:10E03C002F534852302F30002F534852302F31007D
:10E04C0000000000000000000000000000000000C4
:02E05C000000C2
:107812004201B100004201B30000C10DC111C10E0D
:1078220041000A004201D60000C10F6190000B0026
:107832000000000000000000000000000000000046
:107842000000000000000000000000000000000036
:107852000000000000000000000000000000000026
:107862000000000000000000000000000000000016
:107872000000000000000000000000000000000006
:1078820000000000000000000000000000000000F6
:1078920000000000000000000000000000000000E6
:1078A20000000000000000000000000000000000D6
:1078B20000000000000000000000000000000000C6
:1078C20000000000000000000000000000000000B6
:1078D20000000000000000000000000000000000A6
:1078E2000000000000000000000000000000000096
:1078F2000000000000000000000000000000000086
:107902000000000000000000000000000000000075
:107912000000000000000000000000000000000065
:107922000000000000000000000000000000000055
:107932000000000000000000000000000000000045
:107942000000000000000000000000000000000035
:107952000000000000000000000000000000000025
:107962000000000000000000000000000000000015
:107972000000000000000000000000000000000005
:1079820000000000000000000000000000000000F5
:1079920000000000000000000000000000000000E5
:1079A20000000000000000000000000000000000D5
:1079B2000000000000000000000000000000005075
:1079C200019B000000000000000000000000000019
:1079D20000004101AC004101AD00602001B5000092
:1079E2000000000000000000000000000000000095
:1079F2000000000000000000000000000000C110B4
:107A02004101D541410000FF410009FF410008004A
:107A12004101AB08C10CC1124101AF004101D800C4
:087A22004101B0004101AE007A
:10DBB60043BA07759850759A5075AC1053ACBF753B
:10DBC600841043844043D12075D3E075D2FE43D1FF
:10DBD60080538EEF438E01438E0475D7E075D6FED3
:09DBE600438E10D2AC43AF1922AA
:0D000E0053D17F75D3E875D2FF43D1802216
:10E14900C2991221556010F5993099FDC29974014F
:08E1590029F9E43AFA80EB22F7
:08DDA100900204ECF0A3EDF088
:10DDA900E4FFFEC299900204E06E7003A3E06F6085
:10DDB90018122155F5993099FDC299740129F9E490
:09DDC9003AFA0FBF00010E80DCE4
:01DDD200222E
:0AE28800C2998F993099FDC29922C6
:03E179002430FF50
:10E17C0053AFF753ACFD8FADE5AC30E1FB53ACFDC9
:04E18C0043AF082273
:10DF5600AE07EEC39400401FEED3940850197F7E9F
:10DF660012E17C7F0312E17C7FA412E17CAF0612F2
:08DF7600E17C7F7E12E17C22B8
:0ACF5D00E49001D8F07B02FD7F058F
:02CF6700AE0713
:10CF69007F7E12E17C7F0712E17C7FA012E17C7F4A
:10CF79003012E17CEEB40A00504290CF8AF828289A
:10CF89007302CFA802CFAC02CFB002CFB402CFC593
:10CF990002CFB802CFBC02CFC502CFC502CFC07F36
:10CFA9003080167F3180127F32800E7F33800A7F76
:10CFB9003580067F3680027F3912E17CED12E179F6
:10CFC900EB75F00A84AEF0C3EB9E75F00A8412E1AA
:0DCFD90079EE2430FF12E17C7F7E02E17CC6
:10DE5A0053AFEF5384FD758557E58430E1FB538456
:10DE6A00FD7585ABE58430E1FB5384FD8F85E58440
:0ADE7A0030E1FB5384FD43AF10229A
:10DFF500900228E0FCA3E0FDA3E0FEA3E0FF1222CF
:01E00500E139
:10E0060053AFEF5384FD8F85E58430E1FB5384FDE8
:04E0160043AF1022E2
:03D43D0012DE5AA2
:10D44000900238122333000000007F207EA17D0768
:10D450007C00900238E0F8A3E0F9A3E0FAA3E0FB37
:10D46000C31222D0502C300F08C20F9001ADE0FF44
:10D4700022900238E0FCA3E0FDA3E0FEA3E024013B
:10D48000FFE43EFEE43DFDE43CFC9002381223271D
:04D4900080B87F00E1
:01D494002275
:10DA100053AFEF5384FD758557E58430E1FB5384A4
:10DA2000FD7585ABE58430E1FB5384FD8F85E5848E
:10DA300030E1FB5384FDAF058F85E58430E1FB5376
:0FDA400084FDE58430E0FB5384FEAF8543AF10D7
:01DA4F0022B4
:10DD3A0053AFEF5384FD758557E58430E1FB538477
:10DD4A00FD7585ABE58430E1FB5384FD8F85E58461
:10DD5A0030E1FB5384FDE58430E0FB5384FEAF855C
:03DD6A0043AF10B4
:01DD6D002293
:0BE27D00300F05C20F7F01227F00223E
:10DE2E007D557F0612DA107D037F1512DA107F31D1
:10DE3E0012DD3AEFB414147F0212DE5A0F12E0060E
:0BDE4E007FCC12E00612000E12D44040
:01DE590022A6
:0B004600900230EBF0A3EAF0A3E9F019
:100051007F2712D43D900234EFF0900233F06024F8
:1000610012D440900230E0FBA3E0FAA3E0F9EF12D2
:10007100219B900231E475F001122214900234E0C8
:0900810014F070DC900233E0FF82
:01008A002253
:0BDBEF00900202EBF0A3EAF0A3E9F0C3
:10DBFA007F2D12D43DAE07AD06EE601E900202E004
:10DC0A00FBA3E0FAA3E0F9122155FF12E006900205
:0CDC1A0003E475F001122214DEE2AF05F5
:01DC260022DB
:10D0EF0012D440900234EFF012D440900235EFF09A
:10D0FF0012D440900236EFF012D440900237EFF086
:10D10F00900235E0FE900234E0FDEDFFE4FCFDC03F
:10D11F0004C005C006C007900236E0FFE4FE781099
:10D12F001222F4D003D002D001D000EF4BFFEE4A11
:10D13F00FEED49FDEC48FCC004C005C006C007A3C6
:10D14F00E0FFE4FCFDFE78181222F4D003D002D0E9
:0FD15F0001D000EF4BFFEE4AFEED49FDEC48FC1E
:01D16E00229E
:02E22700AE0740
:0DE229007F0A12DE5AAF0612E00612D44042
:01E2360022C5
:10E20500AE077F0B12DE5AAF0612E006AF0502E03D
:01E215000602
:10E23700AE077F0C12DE5AAF0612E00612D0EF22AD
:10D68C00AE077F0D12DE5AAF0612E006900235A3EC
:10D69C00A3A3E0FF12E006900235A3A3E0FEEEFF89
:10D6AC0012E006900235E0FCA3E0FDA3E0FEA3E04F
:10D6BC00FF78101222E112E006900235E0FCA3E0A4
:0FD6CC00FDA3E0FEA3E0FF78181222E102E006C2
:07E2AB00E4FD7F0D02E20516
:06E2B9007F6812E237222B
:06E2BF007F2B12E2272272
:08E292007F2212DE5A12D44073
:01E29A002261
:10D59700900234122333000000007F407E4B7D4C05
:10D5A7007C00900234E0F8A3E0F9A3E0FAA3E0FBE3
:10D5B700C31222D0502A12E27DEF600302E292905A
:10D5C7000234E0FCA3E0FDA3E0FEA3E02401FFE4B6
:10D5D7003EFEE43DFDE43CFC90023412232780BA72
:02D5E7007FFAC9
:01D5E900221F
:07E2B20012DE5A12D597227B
:04E247007D017F36A0
:0CE24B0012DE5AAF0512E00612D5972231
:0BBE9D00900230EBF0A3EAF0A3E9F004
:10BEA8007F0112DE5A12D440EFC39443400302BF0D
:10BEB800507F2B12E227EFC39410400302BF507F3C
:10BEC8002F12DE5AE4FF12E0067F3212E2B290022D
:10BED80033EFF0641470717FCF12E227900233EFD2
:10BEE800F060657F4C12E237A804A905AA06AB07E3
:10BEF800900233E0FEE4FCFD2BFFEA3EFEED39FD47
:10BF0800EC38FC9002351223277F4C12D68C7F50D8
:10BF180012E237A804A905AA06AB07900233E0FE8F
:10BF2800E4FCFD2BFFEA3EFEED39FDEC38FC900207
:10BF3800351223277F5012D68C90023512233300F6
:10BF48000000007F7012D68C7F2F12DE5A900230CC
:10BF5800E0FBA3E0FAA3E0F9122155FEFF8028EEEA
:10BF6800602A900231E475F001122214900230E048
:10BF7800FBA3E0FAA3E0F9122155FE645C6004EE2D
:0CBF8800B42F02E4FEAF0612E00680D3E6
:01BF9400228A
:10D7FF0090022DEBF0A3EAF0A3E9F090022DE0FBED
:10D80F00A3E0FAA3E0F912BE9D90022DE0FBA3E086
:10D81F00FAA3E0F9122155FF645C6004EFB42F0FF7
:10D82F00900235122333000000007F6412D68C7FE4
:05D83F003212E2B222EA
:0EE25700EA494B600312BE9D7F3412E2B222F0
:0BC4CC009001FFEBF0A3EAF0A3E9F001
:10C4D700A3EBF0A3EAF0A3E9F0900202E0FBA3E0EC
:10C4E700FAA3E0F9122155600C900203E475F001FC
:10C4F70012221480E4900202E0FBA3E0FAA3E0F921
:10C50700122155FF645C603EEF642F60399001FF94
:10C51700E0FBA3E0FAA3E0F9C003C002C001A3E077
:10C52700FBA3E0FAA3E0F9D082D083D0E06B7008D8
:10C53700E965827003EA6583600C90020374FFF576
:10C54700F012221480AF9001FFE0FBA3E0FAA3E012
:10C55700F9C003C002C001A3E0FBA3E0FAA3E0F91E
:10C56700D082D083D0E06B7008E965827003EA65FA
:10C5770083600A900203E475F0011222149001FF10
:0BC58700A3A3E0FFA3A3A3E0C39FFF5A
:01C592002286
:0ECD2B00900228EBF0A3EAF0A3E9F0A3EDF0EC
:10CD3900E4FFA304F0900228E0FBA3E0FAA3E0F9E2
:10CD490090022CE0F58275830012216EFE645C600E
:10CD590010EE642F600BEE600890022CE004F08066
:10CD6900D4EE600890022CE004F08005E490022CD7
:10CD7900F0900228E0FBA3E0FAA3E07E002FF9EE91
:10CD89003AFA12D7FF90022CE0FE602490022BE0C1
:10CD9900FDEE6D601BEF6441600FEFB414037F4338
:10CDA90022EFB442037FB3222290022CE0FF808558
:01CDB9002257
:0BDB4100E0FCA3E0FDA3E0FEA3E0FF7A
:10DB4C009002281223277F3912DE5A900228A3A3B1
:10DB5C00A3E0FF12E006900228A3A3E0FEEEFF1262
:10DB6C00E006781012DFF5781812DFF512D597223F
:0CD06C00A3F07B017A0179B57D207C00E7
:0BD07800900228EBF0A3EAF0A3E9F01F
:10D083007F3A12DE5AAF0512E006ECFF12E006907B
:10D09300022DE0FBA3E0FAA3E0F9EA494B6006E4C2
:10D0A300F5F012228D12D597AE07EE641D703A90FB
:10D0B3000228E0FBA3E0FAA3E0F9120046AE077FE3
:10D0C3003B12DE5AEEFD7C00900229EC8DF0122219
:10D0D3001490022DE0FBA3E0FAA3E0F9EA494B60C8
:0BD0E300C4EC8DF012225580BCAF069B
:01D0EE00221F
:0BD16F009001FAEBF0A3EAF0A3E9F056
:10D17A007F3C12DE5AAF0512E006ECFF12E0069081
:10D18A0001FFE0FBA3E0FAA3E0F9EA494B6006E4F9
:10D19A00F5F012228D12D597AE07EE641E703A9002
:10D1AA0001FAE0FBA3E0FAA3E0F912DBEFAE077F96
:10D1BA003D12DE5AEEFD7C009001FBEC8DF012224E
:10D1CA00149001FFE0FBA3E0FAA3E0F9EA494B60FF
:0BD1DA00C4EC8DF012225580BCAF06A3
:01D1E5002227
:0BCC02009001F6EBF0A3EAF0A3E9F0CC
:10CC0D0012C4CC9001FAEFF0603A9001F6E0FBA36C
:10CC1D00E0FAA3E0F99001FAE0FD12CD2B9001F9B5
:10CC2D00EFF064416011E0FEB414037F4322EEB4D3
:10CC3D0042037FB322804D7F6012E2379001FB12D9
:10CC4D002327800A9001FB1223330000000090017E
:10CC5D00F6E0FBA3E0FAA3E0F99001FAE0FF7E0015
:10CC6D00E92FF9EE3AFA12E2579001F9EFF0641458
:10CC7D006003E0FF2212E2479001F9EFF0641460C7
:09CC8D0003E0FF229001F9E0FF31
:01CC9600227B
:06D844009001F6122327FB
:10D84A007DFF12CD2BEF64146001229001F612DBEA
:10D85A0041EF64146001229001FFE4F0A3F0A3F009
:10D86A007B017A0179B57D20FC12D16FEF641460D7
:0BD87A00012212E247EF64146001225B
:01D885002280
:0BBC99009001F6EBF0A3EAF0A3E9F045
:10BCA400900200122333000000009001F6E0FBA391
:10BCB400E0FAA3E0F97DFF12CD2B9001F9EFF064D7
:10BCC400146003E0FF22E4FFFEFDFC900200E0F8B4
:10BCD400A3E0F9A3E0FAA3E0FBC31222D0700B1295
:10BCE400E2B99001FC122327801290020012DB417A
:10BCF4009001F9EFF064146003E0FF2290022D74C8
:10BD040001F0A37401F074FA12D06C9001F9EFF011
:10BD140064146003E0FF22900200E0F8A3E0F9A3BA
:10BD2400E0FAA3E0FB9001FAE0FEA3E0FFE4FCFDEF
:10BD3400EB2FFFEA3EFEED39FDEC38FC90020012D9
:10BD440023277B017A0179B59001FAE0FCA3E0FD99
:10BD540012DDA1C39001FBE094209001FAE094006D
:10BD640040239001FCE0FCA3E0FDA3E0FEA3E0FF80
:10BD7400A3E0F8A3E0F9A3E0FAA3E0FBC31222D006
:10BD8400500302BCAE12E2479001F9EFF064146074
:06BD940003E0FF227F1412
:01BD9A002286
:10DA50007DFF12CD2BEF64146001227F007E007DDC
:10DA6000007C0012DB4CEF641460012290022D74E4
:10DA700001F0A37402F0742612D06CEF64146001FC
:0CDA80002212E247EF64146001227F14C0
:01DA8C002277
:07E29B000000007F05DFFE1B
:01E2A2002259
:0400060000000022D4
:10E1CF0043A208E4F5CF75CDC075CEFFD2CC53AFC7
:02E1DF00FD221F
:10D25900E49001E3F0A3F078E57C017D017BFF7A9E
:10D26900E0794CFE7F0912212FC2CC1200069001F1
:10D27900E3E0FFC394095040EF7005A304F0800F69
:10D28900EF9001E4B401057442F0800374FFF0905B
:10D2990001E4E0F5CFE5CD30E7FB75CDC09001E3C2
:10D2A900E024E5F582E43401F583E5CFF012E29B51
:0AD2B9009001E3E004F080B6D2CC4F
:01D2C3002248
:104CEE00E49001E3F0A3F078E57C017D017BFF7A8F
:104CFE00E07955FE7F0912212FE4FDFCC2CC120093
:104D0E00069001E3E0FFC394095040EF7005A30441
:104D1E00F0800FEF9001E4B401057442F08003744B
:104D2E00FFF09001E4E0F5CFE5CD30E7FB75CDC0A7
:104D3E009001E3E024E5F582E43401F583E5CFF05C
:104D4E0012E29B9001E3E004F080B6D2CC9001E633
:104D5E00E0FFF460189001D5E0FEEF6E600F900159
:104D6E00E6E09001D5F0900000742AF0229001E860
:104D7E00E0FCA3E0FFEFF47002ECF47003024FE0EE
:104D8E00AE04EF8EF01223AA4F1D7F7F4F147FBF0C
:104D9E004F0B7FDF4F027FEF4E697FFF4EF9BF7FD4
:104DAE004EF0BFBF4EE7BFDF4EDEBFEF4E60BFFF20
:104DBE004ED5DF7F4ECCDFBF4EC3DFDF4EBADFEF07
:104DCE004E57DFFF4EB1EF7F4EA8EFBF4E9FEFDF86
:104DDE004E96EFEF4E4EEFFF4FB3F6FF4FABF7FF92
:104DEE004FCAF9FF4FC2FBFF4FBAFDFF4FA3FEFFA5
:104DFE004E8DFF7F4E84FFBF4E7BFFDF4E72FFEF67
:104E0E004F26FFF04F2FFFF14F38FFF24F41FFF3C8
:104E1E004F4AFFF44F53FFF54F5BFFF64F63FFF71B
:104E2E004F6BFFF84F73FFF94F7BFFFA4F83FFFB7A
:104E3E004F8BFFFC4F93FFFD4F9BFFFE00004FD2A9
:104E4E009000007401F0024FD89000007402F0023E
:104E5E004FD89000007403F0024FD89000007404F5
:104E6E00F0024FD89000007405F0024FD890000069
:104E7E007406F0024FD89000007407F0024FD890DD
:104E8E0000007408F0024FD89000007409F0024F31
:104E9E00D8900000740AF0024FD8900000740BF006
:104EAE00024FD8900000740CF0024FD8900000749E
:104EBE000DF0024FD8900000740EF0024FD8900003
:104ECE0000740FF0024FD89000007410F0024FD80B
:104EDE009000007411F0024FD89000007412F0028E
:104EEE004FD89000007413F0024FD8900000741445
:104EFE00F0024FD89000007415F0024FD8900000C9
:104F0E007416F0024FD89000007417F0024FD8902C
:104F1E0000007418F0024FD89000007419F0024F80
:104F2E00D8900000741AF0024FD8900000741BF055
:104F3E00024FD8900000741CF0024FD890000074FD
:104F4E001DF0024FD8900000741EF0807D9000007E
:104F5E00741FF080759000007420F0806D9000003A
:104F6E007421F080659000007422F0805D90000046
:104F7E007423F080559000007424F0804D90000052
:104F8E007425F080459000007426F0803D9000005E
:104F9E007427F080359000007428F0802D9000006A
:104FAE007429F08025E4900000F0801E90000074BB
:104FBE002BF08016900000742CF0800E9000007480
:104FCE002DF0800690000074FFF0900000E0F46079
:104FDE00072290000074FFF09001E6E06473600316
:104FEE000250C19001E5F09001ECE0FD70099001D6
:104FFE00E5E04480F0800BEDB4FF079001E5E0445E
:10500E0040F09001EDE0FD70099001E5E04420F0E4
:10501E00800BEDB4FF079001E5E04410F09001EA3B
:10502E00E0FD70099001E5E04408F0800BEDB4FF5F
:10503E00079001E5E04404F09001EBE0FD7009906B
:10504E0001E5E04402F0800BEDB4FF079001E5E0CE
:10505E004401F09001E5E014604514603424FE60D4
:10506E003724FC604124F8601A24D0600F24C060FD
:10507E0019246070389000007433F0229000007490
:10508E0034F0229000007435F0229000007436F057
:10509E00229000007437F0229000007438F02290B5
:1050AE0000007439F022900000743AF02290000053
:0350BE0074FFF08C
:0150C10022CC
:10D2C400900000E0FFF46053EF642A604E9001D5B3
:10D2D400E0B44110900000E064016004EFB4031373
:10D2E400D20A800F900000E0FF64336004EFB4358D
:10D2F40002D20A900000E0FF900009E06F6009EF9D
:10D30400F0E4900008F0800C900008E004F0E0C322
:10D314009403500E90000074FFF022300A04D20BE4
:03D32400C20A2218
:10D63C00759701E4F594F593F592F591F596F595BA
:10D64C00F5B2F5B175B420F5B375CA10F5C9F5CCC2
:10D65C00F5CBF5E2F5E112DBB612E1A612E16112AF
:10D66C00E1CFD2AF12DE2EBF51FAE49001B1F0A39C
:0FD67C00F0A3F0A3F07F309002EAE4F0A3DFFC0C
:01D68B00227C
:10E19000D2C020C0107F3212002E12E2167F32123F
:06E1A000002E12DD052235
:10DC2700E49001E3F0A3F09001E3F09001E3E0C397
:10DC3700940A502212D3F8EF645360127F0312DF65
:10DC47007E9001E4E004F0E0D3945040DE2290019E
:07DC5700E3E004F080D5D3E7
:01DC5E0022A3
:10DE0100E49001EDF0F09001EDE0FFC39418501C97
:10DE110074B52FF582E43401F583E0FF12E2887FC7
:0CDE21000512DF7E9001EDE004F080DAD5
:01DE2D0022D2
:10DD6E007FFC12E2887F0112DCCF7FFE12E2887FF9
:10DD7E000112DCCF78E37C017D017BFF7AE0793CF8
:10DD8E001224A37B017A0179E312DA50BF14031235
:02DD9E00DE01A4
:01DDA0002260
:10DB7C0078E37C017D017BFF7AE079441224A37B5E
:10DB8C00017A0179E312DA50BF141E9002C97410A5
:10DB9C00F09001B5E0900277F09001B6E09002763B
:09DBAC00F09001BFE09001ABF024
:01DBB500224D
:06D5EA00F0E0FF12DF5625
:10D5F000900277E09001B5F0900276E09001B6F0ED
:10D600009001ABE09001BFF078E47C017D017BFFED
:10D610007AE079441224A37B017A0179E47DFF1238
:10D62000CD2BBF14167B017A0179E47F007E007D4B
:0BD63000007C0012D8449001E3EFF0F2
:01D63B0022CC
:1092E400E4900246F0900246E0FF24D2F582E43492
:1092F40002F583E0FE74A82FF582E43402F583EED0
:10930400F0900246E004F0E0B408DA12C4047F00EE
:109314007E9412E1BC75E8FF7F0112002EE49002F6
:1093240046F0E4900247F0900246E0FFC374079FC2
:10933400FFE49400FE74A82FF58274023EF583E0E6
:10934400FF900247E0C39F500D7F0112E1E19002BC
:1093540047E004F080D1900246E0FFC374079FFF0A
:10936400E49400FE74CA2FF58274023EF583E05241
:10937400E8900246E004F0E0C3940840A59002C8D7
:10938400E060FAE4900246F0900246E0FF24DAF549
:1093940082E43402F583E0FE74A82FF582E43402FB
:1093A400F583EEF0900246E004F0E0B408DA12C46B
:1093B400047F007E9412E1BC75F8FF7F0112002E39
:1093C400E4900246F0E4900247F0900246E0FFC3C6
:1093D40074079FFFE49400FE74A82FF58274023E84
:1093E400F583E0FF900247E0C39F500D7F0112E137
:1093F400E1900247E004F080D1900246E0FFC3749C
:10940400079FFFE49400FE74CA2FF58274023EF5B0
:1094140083E052F8900246E004F0E0C3940840A5CB
:109424009002C8E060FAE4900246F0900246E0FF41
:1094340024E2F582E43402F583E0FE74A82FF58279
:10944400E43402F583EEF0900246E004F0E0B40860
:10945400DA12C40475A0FF7F007E9412E1BC7F0180
:1094640012002EE4900246F0E4900247F090024687
:10947400E0FFC374079FFFE49400FE74A82FF582F5
:1094840074023EF583E0FF900247E0C39F500D7FD6
:109494000112E1E1900247E004F080D1900246E03D
:1094A400FFC374079FFFE49400FE74CA2FF582740F
:1094B400023EF583E052A0900246E004F0E0C3943B
:1094C4000840A59002C8E060FAC28C30121E9003D6
:1094D40021E0B4011712862A900322E0B4010D7B27
:0C94E400017A0079017D017C0012D35850
:0194F0002259
:10009600E49001E2F012D63C7F0312DED812DB7C3C
:1000A60012CAB912E1909001ABE0FF12DF567F0150
:1000B60012DEAE7B3CE4FDFF12CF677B017A00794E
:1000C6000112D327E4900322F0C2119001B1F0A3EC
:1000D600F0A3F0A3F0D2A8C2149001B1E0FEA3E011
:1000E600FFA3E06E7003A3E06F602DC2A8C28E125C
:1000F600DC27501B12DD6E7B3DE4FDFF12CF677FD0
:100106000312DCCF1238717B3EE4FDFF12CF67D2BB
:10011600A8C214E49001E2F0200E030202E5C2A890
:10012600C28E9001D6E0FEA3E0FFEE60030202BF9E
:10013600EFB40E0040030202BF900146F828287370
:1001460002017002017A0201940201B50201C002A5
:1001560001CB0201DE0201F102020602021B0202CB
:10016600470202610202700202977D10E4FF12CD7F
:10017600BA02025A9001D8E0B4010E7B01E4FD7F79
:100186000512CF67127F44801D12A260801890016D
:10019600D8E0B4010E7B03E4FD7F0512CF67128120
:1001A6009680031283E79001D87401F00202DA12F6
:1001B600CF5D7F01126B2E0202DA12CF5D7F011234
:1001C600686C0202DAE49001D8F07B05FD7F051227
:1001D600CF671250C20202DAE49001D8F07B07FD25
:1001E6007F0512CF671248FC0202DAE49001D8F0CC
:1001F6007B06FD7F0512CF677F01125B7D0202DA67
:10020600E49001D8F07B06FD7F0512CF677F0112CF
:100216005ECC0202DAD2C030C0047F05801D900198
:10022600AFE070047F0180027F009001AFEFF070B5
:1002360006C2127F018004D2127F0212DED80202A9
:10024600DA7F0112DED87B14E4FD7F0512CF677FCB
:100256000312B987E49001D8F080797F0112DED8C5
:100266007B3DE4FDFF12CF67806A7F017E00122A84
:100276007E7F027E00122A7E7F037E00122A7E7F08
:10028600047E00122A7E7F057E00122A7E7F06806B
:10029600247F077E00122A7E7F087E00122A7E7F38
:1002A600097E00122A7E7F0A7E00122A7EE4FFFE65
:1002B600122A7E7F0B7E00801890019BE0FFC3947C
:1002C600144011EFD3942C500BEF24ECFFE434FFD1
:1002D600FE122A7ED2A8C214C20EE49001E2F030C9
:1002E600120312862A7F5512E0FE124CEE12D2C479
:1002F600900000E0FFF4700302074BC2A8C28EE430
:10030600900008F0A374FFF0301003020557EF24A5
:10031600E4700302049D24FC70030204AD24FC7007
:10032600030204C42423B42A00400302073D9003B9
:100336004275F003A4C58325F0C583730203C0028A
:1003460003E50203F902041D02043102044E02040D
:100356006702048402073D02073D02073D02073D8E
:1003660002073D02073D02073D02073D02073D0227
:10037600073D02073D02073D02073D02073D020712
:100386003D02073D02073D02073D02073D02073DCC
:1003960002073D02073D02073D02073D02073D02F7
:1003A600073D02073D02073D0204DB0204EB02059E
:1003B6000402051D02053E0205549001B0E06003EB
:1003C60002073D9001D8E0B4010F7B01E4FD7F05F3
:1003D60012CF67127F440205C912A2600205C990B6
:1003E60001B0E0600302073D12CF62E49001D8F04D
:1003F6000205A99001B0E0600302073D9001D8E034
:10040600B4010E7B03E4FD7F0512CF67128196804F
:10041600031283E70205C99001B0E0600302073DBD
:1004260012CF62E49001D8F00205D59001B0E060E9
:100436000302073D7B05FD7F0512CF67E49001D8D7
:10044600F09001AEF00205EA9001B0E06003020709
:100456003D7B06FD7F0512CF67E49001D8F00205CB
:10046600FD9001B0E0600302073D7B07FD7F0512AA
:10047600CF67E49001D8F09001AEF0020612900129
:10048600B0E0600302073D7B06FD7F0512CF67E4FF
:100496009001D8F00206257B05E4FDFF12CF677FA9
:1004A6000412450902073D9001AEE0600302073DD4
:1004B6007B0FFD7F0512CF6712B50702073D90013E
:1004C600AEE0600302073D7B0FFD7F0512CF67128A
:1004D600B3D302073D7B08E4FDFF12CF677F051209
:1004E600AEE502073D9001B0E0600302073D7B0ADE
:1004F600FD7F0512CF677F0112708002066C9001A6
:10050600B0E0600302073D7B0AFD7F0512CF677FDF
:1005160001126DEA02066CD2C030C00302063290A8
:1005260001AFE070047F0180027F009001AFEFF021
:10053600700302064902064F7F0112DED87B14E4DF
:10054600FD7F0512CF677F0312B98702066C02068C
:1005560074900000E0122384062D2806592906749B
:100566002A067E2B06A52C073D2D058C3305A634C1
:1005760005B13505D23605DD3705F03806053906ED
:10058600183A000006CB9001D8E0B4010E7B01E4D6
:10059600FD7F0512CF67127F44800312A26080237D
:1005A60012CF5D7F0112686C02073D9001D8E0B45E
:1005B600010E7B03E4FD7F0512CF6712819680034F
:1005C6001283E79001D87401F002073D12CF5D7FD8
:1005D60001126B2E02073DE49001D8F07B05FD7FEA
:1005E6000512CF671250C202073DE49001D8F07B96
:1005F60006FD7F0512CF677F01125ECC02073DE440
:100606009001D8F07B07FD7F0512CF671248FC02E8
:10061600073DE49001D8F07B06FD7F0512CF677F8A
:1006260001125B7D02073DD2C030C0047F05801DEC
:100636009001AFE070047F0180027F009001AFEF70
:10064600F07006C2127F018004D2127F0212DED839
:1006560002073D7F0112DED87B14E4FD7F0512CF31
:10066600677F0312B987E49001D8F002073D7F0146
:1006760012DED8B21002073D7F017E00122A7E7F6D
:10068600027E00122A7E7F037E00122A7E7F047E6F
:1006960000122A7E7F057E00122A7E7F06805F7FFB
:1006A600077E00122A7E7F087E00122A7E7F097E40
:1006B60000122A7E7F0A7E00122A7EE4FFFE122A9C
:1006C6007E7F0B8039900000E0FFC394195063EFE2
:1006D600B4090050519006E2F82828730206FD027C
:1006E600070202070802070E02071402071A02078A
:1006F6002C020720020726E4FFFE80317F017E00E0
:10070600802B7F027E0080257F037E00801F7F0472
:100716007E0080197F057E0080137F077E00800D96
:100726007F087E008007900000E0FF7E00122A7E90
:100736008005900000E0FF12D259D2A8C214E490BE
:1007460001E2F08010300B0DE49001D8F0C20B7D71
:1007560010FF12CDBA2014030200DFC2A8C28E9089
:100766000331E0122384086D0008B50108D8020899
:10077600E403085B0408A30508D50608E107084951
:100786000808910908D20A08DE0B08370C087F0D05
:1007960008C70E08DB0F09BE100AC2110B9D120C0A
:1007A600C41309D21409E6150A47160C8B1709AAB1
:1007B600180A54190B301A0C521B0C141F0922402C
:1007C600096F41098742099743090E44095B4508A9
:1007D600064608F94809464908E74C09344D098197
:1007E6004E09844F0D84500E92510D4A540E4855B1
:1007F6000D11580E04590CCE5C0DBD5D00000F3D69
:10080600E49001E2F0D2C030C0047F05801D900163
:10081600AFE070047F0180027F009001AFEFF070BF
:1008260006C2127F018004D2127F0212DED8020FA6
:100836003DE49001E2F07B34FDFF12CF6712C33531
:10084600020F3DE49001E2F07B35FDFF12CF671207
:10085600CB63020F3DE49001E2F07B36FDFF12CF41
:100866006712C71B020F3DE49001E2F07B33FDFFE8
:1008760012CF6712E080020F3DE49001E2F07B1296
:10088600FDFF12CF6712BA8D020F3DE49001E2F030
:100896007B13FDFF12CF6712BB93020F3DE490015D
:1008A600E2F07B14FDFF12CF6712B3D3020F3DE4D3
:1008B6009001E2F07B15FDFF12CF6712B507020F1C
:1008C6003DE49001E2F0120F44020F3D020F3802A0
:1008D6000F38020F38020F38020F38020F38020F96
:1008E60038E49001E2F07B0EFDFF12CF671250C292
:1008F600020F3DE49001E2F07B0CFDFF12CF671280
:10090600A416127312020F3DE49001E2F07B05FD7E
:10091600FF12CF677F04124509020F3DE49001E202
:10092600F07B10FDFF12CF6712257B020F3DE4908E
:1009360001E2F07B0FFDFF12CF671248FC020F3D6C
:10094600E49001E2F07B0DFDFF12CF67129CE012EE
:10095600AAA0020F3DE49001E2F07B08FDFF12CF52
:10096600677F0412AEE5020F3DE49001E2F07B11D1
:10097600FDFF12CF67128A96020F3D020F38020F53
:10098600389001ABE0C394085015E00412D5EA8014
:100996000E9001ABE0D394014005E01412D5EA7B3A
:1009A60041020C50E49001E2F07B01FDFF12CF679B
:1009B6007F01126B2E020A65E49001E2F07B03FDD3
:1009C600FF12CF677F0112686C020A65E49001E2AC
:1009D600F07B02FDFF12CF677F0512C593020F3D24
:1009E600E49001E2F090024FF0A3F0A3F0A3F0A38D
:1009F600F0A3F0A3F0A3F0A3F0A3F0A3F0A3F0A359
:100A0600F0A3F0A3F0A3F0A3F0A3F0A3F0A3F0A348
:100A1600F0A3F0A3F0A3F0A3F0A3F0A3F0A3F0A338
:100A2600F0A3F0A3F0A3F0A3F0A3F0A3F0A3F0A328
:100A3600F0A3F0FBFAFDFCFFFE12C1CA7D1E020CFC
:100A460008E49001E2F07F0412C657020F3DE490DD
:100A560001E2F07B04FDFF12CF677F01125B7DE4AC
:100A660090024FF0A3F0A3F0A3F0A3F0A3F0A3F03D
:100A7600A3F0A3F0A3F0A3F0A3F0A3F0A3F0A3F0D8
:100A8600A3F0A3F0A3F0A3F0A3F0A3F0A3F0A3F0C8
:100A9600A3F0A3F0A3F0A3F0A3F0A3F0A3F0A3F0B8
:100AA600A3F0A3F0A3F0A3F0A3F0A3F0A3F0FBFA46
:100AB600FDFCFFFE12C1CA7D14020C08E49001E29F
:100AC600F07B06FDFF12CF677F01125ECCE4900239
:100AD6004FF0A3F0A3F0A3F0A3F0A3F0A3F0A3F0CC
:100AE600A3F0A3F0A3F0A3F0A3F0A3F0A3F0A3F068
:100AF600A3F0A3F0A3F0A3F0A3F0A3F0A3F0A3F058
:100B0600A3F0A3F0A3F0A3F0A3F0A3F0A3F0A3F047
:100B1600A3F0A3F0A3F0A3F0A3F0A3F0FBFAFDFC6F
:100B2600FFFE12C1CA7D14020C08E49001E2F07BBC
:100B360007FDFF12CF677F01126DEAE490024FF0C6
:100B4600A3F0A3F0A3F0A3F0A3F0A3F0A3F0A3F007
:100B5600A3F0A3F0A3F0A3F0A3F0A3F0A3F0A3F0F7
:100B6600A3F0A3F0A3F0A3F0A3F0A3F0A3F0A3F0E7
:100B7600A3F0A3F0A3F0A3F0A3F0A3F0A3F0A3F0D7
:100B8600A3F0A3F0A3F0A3F0A3F0FBFAFDFCFFFE95
:100B960012C1CA7D14806BE49001E2F07B09FDFF6F
:100BA60012CF677F01127080E490024FF0A3F0A38A
:100BB600F0A3F0A3F0A3F0A3F0A3F0A3F0A3F0A397
:100BC600F0A3F0A3F0A3F0A3F0A3F0A3F0A3F0A387
:100BD600F0A3F0A3F0A3F0A3F0A3F0A3F0A3F0A377
:100BE600F0A3F0A3F0A3F0A3F0A3F0A3F0A3F0A367
:100BF600F0A3F0A3F0A3F0FBFAFDFCFFFE12C1CABE
:100C06007D147C007F0A7E001275A2020F3D9001C2
:100C1600E2E004F0E0FCB4010C9001DCE4F0A30493
:100C2600F07B658025ECB4020C9001DEE4F0A304B1
:100C3600F07B65804E9001E2E0B4030C9001E0E4A5
:100C4600F0A304F07B6580027B7080379001E2E0C0
:100C560004F0E0FCB401059001DC8007ECB4020D61
:100C66009001DEE4F0A37402F07B66804F9001E20F
:100C7600E0B4030D9001E0E4F0A37402F07B66801B
:100C8600027B7080379001E2E004F0E0FCB40105DD
:100C96009001DC8007ECB4020D9001DEE4F0A37451
:100CA60003F07B6780639001E2E0B4030D9001E0FE
:100CB600E4F0A37403F07B6780027B70804BE490C2
:100CC60001E2F07B6E020DBA9001E2E004F0E0FC76
:100CD600B4010F9001DCE4F0A37404F07B68E40235
:100CE6000DBAECB4020D9001DEE4F0A37404F07BBF
:100CF60068804F9001E2E0B4030D9001E0E4F0A3B8
:100D06007404F07B6880027B7080379001E2E00417
:100D1600F0E0FCB401059001DC8007ECB4020D9014
:100D260001DEE4F0A37405F07B6980509001E2E0F7
:100D3600B4030D9001E0E4F0A37405F07B69800232
:100D46007B7080389001E2E004F0E0FCB40105908D
:100D560001DC8007ECB4020E9001DEE4F0A3740619
:100D6600F07B6A020E009001E2E0B4030D9001E010
:100D7600E4F0A37406F07B6A80027B70807C9001AD
:100D8600E2E004F0E0FCB40106E49001DC8008EC4B
:100D9600B4020CE49001DEF0A3F07B64020E8A90AC
:100DA60001E2E0B4030BE49001E0F0A3F07B648081
:100DB600037B70E4020E8A9001E2E004F0E0FCB4EA
:100DC600010F9001DCE4F0A37407F07B6BE4020EE4
:100DD6008AECB4020F9001DEE4F0A37407F07B6B9B
:100DE600E4020E8A9001E2E0B4030D9001E0E4F023
:100DF600A37407F07B6B80027B70E4020E8A90017D
:100E0600E2E004F0E0FCB4010E9001DCE4F0A3742F
:100E160008F07B6CE4806DECB4020E9001DEE4F029
:100E2600A37408F07B6CE4805B9001E2E0B4030DF0
:100E36009001E0E4F0A37408F07B6C80027B70E420
:100E460080429001E2E004F0E0FCB4010E9001DC87
:100E5600E4F0A37409F07B6DE48029ECB4020E90F3
:100E660001DEE4F0A37409F07B6DE480179001E2E3
:100E7600E0B4030D9001E0E4F0A37409F07B6D800B
:100E8600027B70E4FDFF12CF67020F3D9001E2E0A6
:100E9600FC700A7B70FDFF12CF67020F38ECB401BD
:100EA600177B6FE4FDFF12CF677F7D12DF7E900117
:100EB600DCE0FEA3E0FF80779001E2E064027029A7
:100EC6007B6FFDFF12CF677F7D12DF7E9001DCE036
:100ED600FEA3E0FF7C007D0A1221AD9001DFE02F2A
:100EE600FF9001DEE03EFE80469001E2E064037082
:100EF600417B6FFDFF12CF677F7D12DF7E9001DEA3
:100F0600E0FEA3E0FF7C007D0A1221ADAA06AB0736
:100F16009001DCE0FEA3E0FF7D641221ADEF2BFF24
:100F2600EE3AFE9001E1E02FFF9001E0E03EFE1276
:0E0F36002A7EE49001E2F0D2A8C2140200DF8D
:0300230002D4ED17
:10D4ED00C0E0C083C082C0D075D000C0063098386F
:10D4FD00C2989001B1E0FEA3E0240BF58274003ECA
:10D50D00F583E599F09001B2E004F070069001B159
:10D51D00E004F09001B1E0B40110A3E0B4900B90E1
:10D52D0001B1E4F0A3F08002C299D006D0D0D08230
:05D53D00D083D0E032B4
:0300430002B87A86
:10B87A00C0E0C083C082C0D075D000C005C006C079
:10B88A0007E59A20E00302B975539AFE90000AE090
:10B89A00FF249BF582E43401F583E59BF0EFC39422
:10B8AA00025020749B2FF582E43401F583E0900066
:10B8BA000AB4FF05E004F08002E4F09001AAE4F083
:10B8CA0002B97890000AE0FFC39404502C749B2FAD
:10B8DA00F582E43401F583E0FF9001AAE02FF090AD
:10B8EA00000AE004F0E06404600302B97890019E63
:10B8FA00E024049001A9F080759001A9E0FF90006E
:10B90A000AE0FEC39F501A749B2EF582E43401F5B7
:10B91A0083E0FF9001AAE02FF090000AE004F08093
:10B92A004D749B2EF582E43401F583E0FF9001AA61
:10B93A00E06F703090019DE0B4012790019FE0FF15
:10B94A009001D6E4F0A3EFF0E07F00FE9001D6F07C
:10B95A00A3EFF09001A0E0FDEDFF9001D6EEF0A379
:10B96A00EFF0D20E90000AE4F08003539AFDD0075C
:0DB97A00D006D005D0D0D082D083D0E032EE
:03008B0002E0A1EF
:10E0A100C0E0C083C082E5AC30E00B53ACFE900110
:10E0B100ACE5ADF0800353ACFDD082D083D0E0322B
:0300930002E01A6E
:10E01A00C0E0C083C082E58430E00D5384FE9001E5
:10E02A00ADE585F0D20F80035384FDD082D083D032
:02E03A00E032D2
:10E1E100E4FEEEC39F500AE4FD0DEDB401FB0E8089
:01E1F100F13C
:01E1F200220A
:10E1F300E4FEEEC39F500AE4FD0DEDB40BFB0E806D
:01E20300F129
:01E2040022F7
:02E0FE00AC076D
:10E10000E4FBEBC39C500FE4FA7F0B12E1F30AEA45
:06E11000B401F60B80ECE7
:01E1160022E6
:10002E00E4FEEEC39F500B7D067C01DCFEDDFC0E74
:02003E0080F050
:01004000229D
:02E11700AC0753
:10E11900E4FBEBC39C500FE4FA7F7A12E1F30AEABD
:06E12900B401F60B80ECCE
:01E12F0022CD
:05DF7E00900249EFF0E4
:10DF8300E4A3F0900249E0FFA3E0C39F5014E4F937
:10DF93007F0A12E11709E9B401F690024AE004F09E
:02DFA30080E11B
:01DFA5002259
:05DFA600900249EFF0BC
:10DFAB00E4A3F0900249E0FFA3E0C39F5014E4F90F
:10DFBB007F0A12E11709E9B432F690024AE004F045
:02DFCB0080E1F3
:01DFCD002231
:05DCCF0090021EEFF0C1
:10DCD400E4900220F090021EE0FF900220E0C39F37
:10DCE400501EE490021FF07F6412DF7E90021FE05A
:10DCF40004F0E0C3940140EF900220E004F080D5EA
:01DD040022FC
:10E05E002F534852312F2564002F534852302F3002
:10E06E00002F534852302F2564002F534852302F23
:02E07E0031006F
:10D3E40012D3F89001E3E4F0A3EFF0E0F8E4F0E8FE
:04D3F4009001E3F0D1
:10D3F8009001B1E0FEA3E0FF9001B3E0FCA3E0FDE3
:10D408006F7002EC6E60E9740B2DF58274003CF5C8
:10D4180083E0FF9001B4E004F070069001B3E004EB
:10D42800F09001B3E0B4010CA3E0B49007E49001DC
:04D43800B3F0A3F0BA
:01D43C0022CD
:10DDD30074D22FF582E43402F583E0FBEDC39BFD9F
:10DDE300E49400FCEF25E02478F582E43402F58323
:0EDDF300ECF0A3EDF0E4FDFC7F23FE0275A230
:10387100E49001E3F0A3F0C20012D3F8EF64FD601D
:1038810003023CD112D3F89001F5EFF02403700349
:10389100023AF124FCB40A004003023CD19038AC56
:1038A10075F003A4C58325F0C583730238CA0239B4
:1038B100870239A1023A1D023B86023CD1023C1F1C
:1038C100023C27023C78023CCF12D3E49001E3E0B2
:1038D100F0A3E04FF0E49001F5F012D3F89001F578
:1038E100E024B5F582E43401F583EFF09001F5E0D1
:1038F10004F0E0C3942040E290020774FFF0A37447
:10390100E0F0A3745EF09001E3E0FFA3E090020A0F
:10391100CFF0A3EFF07B017A0179E51234537B01FB
:103921007A0179E57DFF12CD2BBF140D7F6812E27C
:10393100379001F1122327800A9001F112233300FD
:10394100000000E47F20FEFDFC9001F1E0F8A3E01F
:10395100F9A3E0FAA3E0FBC31222D07B017A01793B
:10396100E540109001F1E0FCA3E0FDA3E0FEA3E03F
:10397100FF80087F007E007D007C0012D84490010A
:10398100F5EFF0023CD112D3F89001F5EFF012D32C
:10399100F8AE079001F5E0FFAD0612DDD3023CD190
:1039A100E49001F5F09001F5E0FFC394205032EF6F
:1039B100C39418501412D3F89001F5E024B5F582A0
:1039C100E43401F583EFF080109001F5E024B5F5C2
:1039D10082E43401F583747DF09001F5E004F08018
:1039E100C478E57C017D017BFF7AE079671224A32D
:1039F1007B017A0179E57DFF12CD2BBF14167B0186
:103A01007A0179E57F007E007D007C0012D8449028
:103A110001F5EFF07F0112DEAE023C1B12D3E49000
:103A210001E3E0FEA3E04FFF9001E3EEF0FEA3EF20
:103A3100F090020774FFF0A374E0F0A3745EF0A3AA
:103A4100EEF0A3EFF07B017A0179E51234537B01AB
:103A51007A0179E57DFF12CD2BBF140D7F6812E24B
:103A6100379001F1122327800A9001F112233300CC
:103A71000000007FFD12E2887FFD12E2887FFD12C7
:103A8100E2887FFD12E2887F0112E2889001E3E083
:103A9100FF12E2889001E3A3E0FF12E288E47F20B5
:103AA100FEFDFC9001F1E0F8A3E0F9A3E0FAA3E048
:103AB100FBC31222D0400E7B017A0179E512BC9939
:103AC1009001F5EFF07F0212DF7E7F0112DED87FD9
:103AD100FB12E2887F0212DFA67FFB12E2887F02DF
:103AE10012DFA67FFB12E2887F0212DFA6023C1BD7
:103AF10012D3F8EF64FE6003023CD112D3E49001CB
:103B0100E3E0F0A3E04FF07F0112DED87FFC12E288
:103B11008890020774FFF0A374E0F0A3745EF09044
:103B210001E3E0FFA3E090020ACFF0A3EFF07B01F5
:103B31007A0179E51234537B017A0179E512CC02DD
:103B410090020774FFF0A374E0F0A3746FF0A37404
:103B510002F07B017A0179E51234537B017A017914
:103B6100E57DFF12CD2BBF140D7F6812E237900166
:103B7100F1122327800A9001F11223330000000083
:103B81007FFC023C21E49001E3F0A3F09001E3E02B
:103B9100FEA3E0FFE4FCFD7BFF7AFFF9F8D31222DC
:103BA100BA4043900207EBF0A374E0F0A3745EF017
:103BB1009001E3E0FFA3E090020ACFF0A3EFF07BD6
:103BC100017A0179E51234537B017A0179E512CC4E
:103BD100027F0112DED89001E4E004F070AE9001A2
:103BE100E3E004F080A690020774FFF0A374E0F014
:103BF100A3745EF09001E3E0FFA3E090020ACFF02E
:103C0100A3EFF07B017A0179E51234537B017A014C
:103C110079E512CC027F0412DED87FFB80027FFDA2
:103C210012E288023CD1E49001F5F012D3F8900140
:103C3100F5E0FD24D2F582E43402F583E0FBC3EF25
:103C41009BFFE49400FEED25E02478F582E4340244
:103C5100F583EEF0A3EFF09001F5E004F0E0C394FA
:103C61001840C812D3F89001F5EFF0FD7C007F28D1
:103C71007E001275A2805912D3F89001B5EFF012AF
:103C8100D3F89001B6EFF09001ABE09001BFF0786E
:103C9100E57C017D017BFF7AE079781224A37B0129
:103CA1007A0179E57DFF12CD2BBF14167B017A01D4
:103CB10079E57F007E007D007C0012D8449001F5FB
:103CC100EFF07FFB12E2887F0212DED88002D20081
:073CD10020000302387A22F3
:0B3CD800900204EBF0A3EAF0A3E9F077
:103CE30090020AE0D3940050030240F1900204E0F2
:103CF300FBA3E0FAA3E0F912230790020D12232796
:103D030090020DE0FCA3E0FDA3E0FEA3E0FF12DBC5
:103D13004C900211EFF090022D7401F0A37402F0A5
:103D2300A3740BF07B017A0179B57D207C0012D05E
:103D330078900211EFF09002147401F09002137462
:103D430080F0E4900211F0A3F0900214E0FFB401BC
:103D530025900211E0A3F0FD24B9F582E43401F5C6
:103D630083E0FBED25E02478F582E43402F583E477
:103D7300F0A3EBF0803CEF900211B40211E0FF24BA
:103D830008FEA3F074C12FF582E43401800FE0FF35
:103D93002410FEA3F074C92FF582E43401F583E007
:103DA300FDEE25E02478F582E43402F583E4F0A304
:103DB300EDF0900214E024B5F582E43401F583E0DC
:103DC300FF900213E0FEEF5EB5062D900212E0FFB6
:103DD30025E02478F582E43402F583E0FCA3E0FDDA
:103DE300C3E49DFDE49CFCEF25E02478F582E434F4
:103DF30002F583ECF0A3EDF0900212E0FF25E0243E
:103E030078F582E43402F583E0FDA3E0900215CD5A
:103E1300F0A3EDF0EF25E02478F582E43402F58396
:103E2300C083C082E0FEA3E0FF900212E0FD25E024
:103E330024EAF582E43402F583E0FAA3E0FBC3EF5E
:103E43009BFFEE9AD082D083F0A3EFF0900215E0AF
:103E5300FEA3E0FFED25E024EAF582E43402F583D6
:103E6300EEF0A3EFF0900213E0FFC313F090021102
:103E7300E004F0E064086003023D4C900214E004A7
:103E8300F0E064046003023D3F9001D3E0249B60B3
:103E93001C0470219001D4E064646003023F257F19
:103EA3007E12E17C7F0212E17C7FB3806D9001D4AE
:103EB300E06465806D7F7E12E17C7F0712E17C7F89
:103EC300B012E17C9001D3E0D3947F7F304007129E
:103ED300E17C7F31800512E17C7F3012E17C90012F
:103EE300D4E075F06484900211F02430FF12E17C79
:103EF3009001D4E075F06484E5F075F00A849002D3
:103F030011F02430FF12E17C9001D4E075F00A84B3
:103F1300AFF0900211EFF02430FF12E17C7F7E12AC
:103F2300E17C9001D1E02438B41D00400302401E1F
:103F3300903F4175F003A4C58325F0C58373023F09
:103F430098023FA1023FA9023FB0023FB7023FBE22
:103F5300023FC5023FCC023FD3023FDA023FE102F8
:103F63003FE6023FEB023FF0023FF5023FFA023F1A
:103F7300FF02400402400902401102401902402B93
:103F830002402B02402B02402B02402B02402B020B
:103F9300402B02402B12257B128A9602402B7F0175
:103FA300126B2E02402B7F0212C593807B7F01127E
:103FB300686C80747F01125B7D806D7F04124509FC
:103FC30080667F01125ECC805F7F01126DEA8058AC
:103FD3007F0312AEE580517F01127080804A12C8C0
:103FE30092804512C94B804012E080803B12C3355A
:103FF300803612C71B803112CB63802C1250C280D3
:10400300271248FC802212A416127312801A129CE3
:10401300E012AAA0801212C7D8800D9001D1E0FD52
:104023007C00FF7E001275A2E4900211F09001D291
:10403300E0FF900211E0C39F500D7F0A12DF7E90D4
:104043000211E004F080E69001D1E0C394C8404738
:10405300E4900211F0900211E0FFC394185038E08D
:10406300FE24B0F582E43402F583E0FD74D22EF52C
:1040730082E43402F583E0C39DFDE49400FCEF2564
:10408300E024EAF582E43402F583ECF0A3EDF0904A
:104093000211E004F080BE90020DE0F8A3E0F9A362
:1040A300E0FAA3E0FB90020BE0FEA3E0FFE4FCFDDB
:1040B300EB2FFFEA3EFEED39FDEC38FCA31223277C
:1040C300900207E0FBA3E0FAA3E0F91223079002B2
:1040D3000DE0F8A3E0F9A3E0FAA3E0FBD31222D0AA
:0E40E3005003023D0390020AE014F0023CE399
:0140F10022AC
:082A7E009001E3EEF0A3EFF07C
:102A860090020774FFF0A374E0F0A3745EF0900167
:102A9600E3E0FFA3E090020ACFF0A3EFF07B017A18
:102AA6000179E61234537B017A0179E67DFF12CD76
:102AB6002BEF64146003022F517F6812E2379001F6
:102AC600F2122327E47F20FEFDFC9001F2E0F8A33A
:102AD600E0F9A3E0FAA3E0FBC31222D05003022FD1
:102AE600519001FE12233300000000E49001E5F04E
:102AF6009001FEE0FCA3E0FDA3E0FEA3E0FF12DBF5
:102B06004C9001E6EFF090022D7401F0A37401F0F1
:102B1600A374E3F07B017A0179B57D207C0012D0A5
:102B2600789001E6EFF07401F09001E77480F0E42C
:102B3600A3F0A3F09001E8E0FFC394084003022C41
:102B46005F9001E6E0FEB4010E9001E9EFF024B9D2
:102B5600F582E43401802BEE9001E8B40213E02400
:102B660008FFA3F09001E8E024C1F582E434018077
:102B760011E02410FFA3F09001E8E024C9F582E4F7
:102B86003401F583E0FDEF25E02478F582E4340294
:102B9600F583E4F0A3EDF09001E6E024B5F582E4D8
:102BA6003401F583E0FF9001E7E0FEEF5EB5062D08
:102BB6009001E9E0FF25E02478F582E43402F5830C
:102BC600E0FCA3E0FDC3E49DFDE49CFCEF25E024CE
:102BD60078F582E43402F583ECF0A3EDF09001E998
:102BE600E0FF25E02478F582E43402F583E0FDA3D6
:102BF600E0900202CDF0A3EDF0EF25E02478F58217
:102C0600E43402F583C083C082E0FEA3E0FF9001B6
:102C1600E9E0FD25E024EAF582E43402F583E0FAF2
:102C2600A3E0FBC3EF9BFFEE9AD082D083F0A3EF25
:102C3600F0900202E0FEA3E0FFED25E024EAF58233
:102C4600E43402F583EEF0A3EFF09001E7E0FFC372
:102C560013F0A3E004F0022B3A9001E6E004F0E062
:102C660064046003022B2F9001D3E0249B601C04B4
:102C760070219001D4E064646003022D067F7E1209
:102C8600E17C7F0212E17C7FB3806D9001D4E06429
:102C960065806D7F7E12E17C7F0712E17C7FB0123A
:102CA600E17C9001D3E0D3947F7F30400712E17C32
:102CB6007F31800512E17C7F3012E17C9001D4E007
:102CC60075F064849001E6F02430FF12E17C9001F7
:102CD600D4E075F06484E5F075F00A849001E6F0BE
:102CE6002430FF12E17C9001D4E075F00A84AFF045
:102CF6009001E6EFF02430FF12E17C7F7E12E17C4A
:102D06009001D1E02438B41D004003022DFF902D20
:102D16002275F003A4C58325F0C58373022D7902BD
:102D26002D82022D8A022D91022D98022D9F022DB1
:102D3600A6022DAD022DB4022DBB022DC2022DC757
:102D4600022DCC022DD1022DD6022DDB022DE00262
:102D56002DE5022DEA022DF2022DFA022E0C022E8C
:102D66000C022E0C022E0C022E0C022E0C022E0C25
:102D7600022E0C12257B128A96022E0C7F01126BF4
:102D86002E022E0C7F0212C593807B7F0112686C87
:102D960080747F01125B7D806D7F04124509806619
:102DA6007F01125ECC805F7F01126DEA80587F033F
:102DB60012AEE580517F01127080804A12C892805F
:102DC6004512C94B804012E080803B12C3358036E5
:102DD60012C71B803112CB63802C1250C28027127F
:102DE60048FC802212A416127312801A129CE0125A
:102DF600AAA0801212C7D8800D9001D1E0FD7C00F8
:102E0600FF7E001275A2E49001E6F09001D2E0FF89
:102E16009001E6E0C39F500D7F0A12DF7E9001E627
:102E2600E004F080E69001B5E0FBD3948040229068
:102E360001E5E0706A9001FEE0FCA3E0FDA3E0FE80
:102E4600A3E0FF9001F61223279001E57401F080BC
:102E56004EEBD3940040489001B5E09480504090EA
:102E660001E5E0B401399001FEE0FCA3E0FDA3E03A
:102E7600FEA3E0FF9001FA1223279002077401F0E7
:102E8600A37401F0A374FAF09001B5E01490020A5D
:102E9600F07B017A0179F6123CD8E49001E5F090D6
:102EA60001D1E0C394C84047E49001E6F09001E602
:102EB600E0FFC394185038E0FE24B0F582E43402F3
:102EC600F583E0FD74D22EF582E43402F583E0C387
:102ED6009DFDE49400FCEF25E024EAF582E434024B
:102EE600F583ECF0A3EDF09001E6E004F080BE90EF
:102EF60001FEE0F8A3E0F9A3E0FAA3E0FB9001E30A
:102F0600E0FEA3E0FFE4FCFDEB2FFFEA3EFEED3919
:102F1600FDEC38FC9001FE1223279001F2E0FCA3A1
:102F2600E0FDA3E0FEA3E0FF9001FEE0F8A3E0F9D8
:102F3600A3E0FAA3E0FBC31222D05003022AF67DD7
:0B2F4600017F3612E24B9001E6EFF035
:012F5100225D
:107A2A0046032500000000000046031B000000007A
:107A3A0000004103230041032D0341032B3241037C
:107A4A001A324103240041032C014103210041035E
:027A5A00220008
:10E21600759D07439720E4F5BDF5BE75BCE0D2AD0C
:01E2260022D5
:0CE26500900323E024E0F5BC43BC082239
:10DD0500E4FD90032BE0FF90032DE08FF0A4FFEDE1
:10DD1500C39FE5F06480F8748098501212E2659014
:10DD2500032CE070FA90032C7401F00D80D490035D
:04DD3500217401F064
:01DD390022C7
:10E0C100E4FF90032DE0FEEFC39E501212E2659033
:0EE0D100032CE070FA90032C7401F00F80E431
:01E0DF00221E
:03002B0002B29C82
:10B29C00C0E0C0F0C083C082C0D075D000C000C078
:07B2AC0004C005C006C00745
:10B2B3009001D9E4F0A3F053BCEF900324E06003C2
:10B2C30002B36CAFBD9001D9F0A3EFF0E0F8E4F066
:10B2D300E89001D9F0AFBEA3E02FF09001D9E0349C
:10B2E30000F0E0FEA3E0FF900323E025E02425F532
:10B2F30082E43403F583EE8FF0122214900323E0EB
:10B3030004F090032DE0FF900323E0B50708E4F079
:10B3130090031AE014F090031AE0600302B3B990AB
:10B3230001DBF090032DE0FF9001DBE0FEC39F50B3
:10B3330030EE25E02425F582E43403F583C083C091
:10B3430082E0FEA3E0FF90032BE0FD7C001221BF0F
:10B35300D082D083EEF0A3EFF09001DBE004F08025
:10B36300C29003247401F0804DAFBD9001D9E4F085
:10B37300A3EFF0E0F8E4F0E89001D9F0AFBEA3E06A
:10B383002FF09001D9E03400F0E0FEA3E0FF90033A
:10B3930023E025E0241BF582E43403F583EEF0A3D8
:10B3A300EFF0900323E004F090032DE0FF900323DC
:0BB3B300E0B50702E4F090032CE4F08A
:10B3BE00D007D006D005D004D000D0D0D082D08314
:05B3CE00D0F0D0E032D8
:10862A00E4900321F012E0C190032AE02428FF908D
:10863A000329E03400FED3900320E09F90031FE05B
:10864A009E407A900328E024D8FF900327E034FF65
:10865A00FEC390031EE09F90031DE09E505FC2A8D8
:10866A00C28E7F3212002E9002D9E02428F0129294
:10867A00E47F0112DFA69002D9E024D8F01292E436
:10868A007F0112DFA69003227401F0900321F012F9
:10869A0092E4E4900248F0900248E0FFC394185034
:1086AA0018EF25E024EAF582E43402F583E4F0A326
:1086BA00F0900248E004F080DED2A8C21490032AA7
:1086CA00E024D8FF900329E034FFFEC3900320E0A2
:1086DA009F90031FE09E507A900328E024D8FF90D1
:1086EA000327E034FFFEC390031EE09F90031DE0C2
:1086FA009E505FC2A8C28E7F3212002E9002D8E02E
:10870A0024D8F01292E47F0112DFA69002D8E02466
:10871A0028F01292E47F0112DFA69003227401F07E
:10872A00900321F01292E4E4900248F0900248E0AB
:10873A00FFC394185018EF25E024EAF582E43402C6
:10874A00F583E4F0A3F0900248E004F080DED2A8BA
:10875A00C214900326E024D8FF900325E034FFFEDC
:10876A00C390031CE09F90031BE09E506490032873
:10877A00E024D8FF900327E034FFFEC390031EE0F5
:10878A009F90031DE09E5049C2A8C28E7F321200FC
:10879A002E12AAA07F6412002E9003227401F09078
:1087AA000321F01292E4E4900248F0900248E0FFBC
:1087BA00C394185018EF25E024EAF582E43402F550
:1087CA0083E4F0A3F0900248E004F080DED2A8C26D
:1087DA0014900326E02428FF900325E03400FED3FA
:1087EA0090031CE09F90031BE09E4064900328E0E6
:1087FA0024D8FF900327E034FFFEC390031EE09FB6
:10880A0090031DE09E5049C2A8C28E7F3212002EEC
:10881A001273127F6412002E9003227401F09003E7
:10882A0021F01292E4E4900248F0900248E0FFC37B
:10883A0094185018EF25E024EAF582E43402F5830F
:10884A00E4F0A3F0900248E004F080DED2A8C2145B
:06885A009003217401F0FF
:0188600022F5
:05DE8400900336EFF0F1
:10DE8900E4A3F0900336E0FFA3E0C39F5016C2C598
:10DE99007F1E12DF7ED2C57F1E12DF7E900337E020
:04DEA90004F080DF22
:01DEAD002252
:05DEAE009001F6EFF009
:10DEB300E4A3F09001F6E0FFA3E0C39F5016C2C5B0
:10DEC3007F1412DF7ED2C57F1412DF7E9001F7E04C
:04DED30004F080DFF8
:01DED7002228
:05DED8009001F6EFF0DF
:10DEDD00E4A3F09001F6E0FFA3E0C39F5016C2C586
:10DEED007F0A12DF7ED2C57F0A12DF7E9001F7E036
:04DEFD0004F080DFCE
:01DF010022FD
:05DF0200900338EFF070
:10DF0700E4A3F0900338E0FFA3E0C39F5016C2C517
:10DF17007F0512DF7ED2C57F0512DF7E900339E0D1
:04DF270004F080DFA3
:01DF2B0022D3
:05DF2C0090033AEFF044
:10DF3100E4A3F090033AE0FFA3E0C39F5016C2C5EB
:10DF41007F0112E117D2C57F0112E11790033BE077
:04DF510004F080DF79
:01DF550022A9
:08E2A3002F534852302F3000C8
:107A5C005802D200000000000000000000000000EE
:0F7A6C0000000000000000000000004102C80000
:04D886007F157E008C
:08D88A00900246EEF0A3EFF05E
:10D89200E4A3F0A3F0900246E0FEA3E0FFC39002EF
:10D8A20049E09FEE6480F8900248E0648098501549
:10D8B2007F0112002E900249E004F070D8900248D5
:05D8C200E004F080D03D
:01D8C700223E
:10E16100438E805389F0E4F58A758C94C28DD2A9CF
:08E17100D2AF9002C804F022B5
:10E1BC00AD07AC06ECF58CAF058F8AE49002C8F085
:03E1CC00D28C22D0
:03000B0002E130DF
:10E13000C0E0C083C082758A00758C949002C87458
:09E1400001F0D082D083D0E0325E
:10DA8D00E490021EF0900277E024FFFFE434FFFEE5
:10DA9D009002C9E0FD7C001221AD90021EE0C39FF3
:10DAAD00EE6480F874809850127F0112DF7E7F0142
:0BDABD0012DF7E90021EE004F080CA21
:01DAC800223B
:10D98E00E490021EF0900277E0FF900276E0C39FD3
:10D99E00FFE49400FE9002C9E0FD7C001221AD90E0
:10D9AE00021EE0C39FEE6480F874809850127F01CF
:10D9BE0012DF7E7F0112DF7E90021EE004F080C532
:01D9CE002236
:10C40400E4FFFD9002CA74FEF0A314F0A374FBF0E1
:10C41400A374F7F0A374EFF0A374DFF0A374BFF078
:10C42400A3747FF0EF04FEEED39407506974A82E32
:10C43400F582E43402F583E0FC74A82FF582E43439
:10C4440002F583E0FBC39C504AAD0474A82EF58228
:10C45400E43402F583EBF074A82FF582E43402F59A
:10C4640083EDF074CA2EF582E43402F583E0FD74A2
:10C47400CA2FF582E43402F583E0FC74CA2EF582F7
:10C48400E43402F583ECF074CA2FF582E43402F547
:10C4940083EDF00E80910FEF64077088E4FF74A8B9
:10C4A4002FF582E43402F583C083C082E0FE74A9D0
:10C4B4002FF582E43402F583E0FDC3EE9DD082D0F3
:07C4C40083F00FEFB407D76E
:01C4CB00224E
:0BD1E600900246EFF0A3ECF0A3EDF088
:10D1F100E4A3F0900246E0FF900249E0FEC39F5095
:10D201004EEE25E02478F582E43402F583E0FEA3B6
:10D21100E0FF12E271C3900248E09FEE6480F89053
:10D221000247E0648098501F900249E025E024788D
:10D23100F582E43402F583E0FEA3E0FF12E271908F
:10D241000247EEF0A3EFF0900249E004F080A490D1
:07D251000247E0FEA3E0FF2D
:01D2580022B3
:08759A007F0F7D147C007E00D0
:0E75A20090021EEEF0A3EFF0A3ECF0A3EDF0CC
:1075B000E4900226F0A3F0A3F0A3F0900222F09052
:1075C0000222E0FF24D2F582E43402F583E0FE7467
:1075D0002E2FF582E43402F583EEF0900222E004CF
:1075E000F0E0B418DA900220E07002A3E070459059
:1075F0000228F0A304F0FD7C007F1812D1E690026F
:1076000028EEF0A3EFF0D39432EE64809480400B28
:10761000900228E4F0A37432F08028D3900229E08D
:107620009414900228E0648094804017E4F0A374DE
:1076300014F0800F900220E0FFA3E0900228CFF02A
:10764000A3EFF09002227401F0900222E0FFC390B9
:107650000229E09F7480F8900228E064809850032B
:107660000277B9E4900223F0900223E0FFC394185C
:1076700040030277A2EF25E02478F582E43402F596
:1076800083E0FCA3E0FDEC121CFB90022A122327EE
:10769000900222E0FCB40145E4121D0090022AE0B1
:1076A000F8A3E0F9A3E0FAA3E0FB121B50C004C06A
:1076B00005C006C007900228E0FCA3E0FDEC121C08
:1076C000FBA804A905AA06AB07D007D006D005D0B1
:1076D00004121C59121D3490022402777690022263
:1076E000E0FCE4121D0090022AE0F8A3E0F9A3E018
:1076F000FAA3E0FB121B50C004C005C006C00790EF
:107700000228E0FCA3E0FDEC121CFBA804A905AADA
:1077100006AB07D007D006D005D004121C59121DA5
:1077200034900224EEF0A3EFF0900222E024FFFD5B
:10773000E434FFFCE4121CFB90022AE0F8A3E0F919
:10774000A3E0FAA3E0FB121B50C004C005C006C0B2
:1077500007900228E0FCA3E0FDEC121CFBA804A9A2
:1077600005AA06AB07D007D006D005D004121C59D5
:10777000121D34900226EEF0A3EFF0900226A3E053
:10778000FF900224A3E0C39FFF900223E024D2F5E0
:1077900082E43402F583E02FF0900223E004F0024B
:1077A00076681292E490021EE0FEA3E0FF12D88AEF
:1077B000900222E004F0027649E4900222F0900266
:1077C00022E0FF25E02478F582E43402F583A3E08B
:1077D000FE742E2FF582E43402F583E02EFF900232
:1077E00022E0FE24D2F582E43402F583EFF0EE25A8
:1077F000E02478F582E43402F583E4F0A3F090020B
:1078000022E004F0E0B418B61292E47F0A7E00028F
:02781000D88A14
:10C17500E490024FF0A3F0A3F0A3F0A3F0A3F0A383
:10C18500F0A3F0A3F0A3F0A3F0A3F0A3F0A3F0A312
:10C19500F0A3F0A3F0A3F0A3F0A3F0A3F0A3F0A302
:10C1A500F0A3F0A3F0A3F0A3F0A3F0A3F0A3F0A3F2
:10C1B500F0A3F0A3F0A3F0A3F0A3F0A3F0A3F0FB8A
:05C1C500FAFDFCFFFE85
:10C1CA00900249EEF0A3EFF0A3ECF0A3EDF0A3EA9E
:04C1DA00F0A3EBF0F3
:10C1DE007B017A027949E4900275F0900275E0FFD6
:10C1EE00C39416506B12222AFDACF0F44C7012EF71
:10C1FE0025E02478F582E43402F583E4F0A3F080A0
:10C20E0040900275E024D2F582E43402F583E0FF1B
:10C21E00C3ED9FFFEC9400FE900275E024B0F58212
:10C22E00E43402F583E07C002FFFEC3EFE900275B5
:10C23E00E025E02478F582E43402F583EEF0A3EFF6
:10C24E00F0900275E004F0740229F9E43AFA808B5A
:01C25E0022BD
:06CAB300A212920CC21257
:10CAB900781C7C027D017BFF7AE279A31224A3E42E
:10CAC90090021BF07B017A02791C12DA50EF641490
:10CAD9007028FF74B52FF582E43401F583E0FE7404
:10CAE900D22FF582E43402F583EEF00FEFB418E3A8
:10CAF9001292E47F0F7E0012D88A90021BE004F0A4
:10CB0900E0C3940440BEE490021BF090021BE0FFD6
:10CB1900C39418504474D22FF582E43402F583E0AB
:10CB2900FE74B02FF582E43402F583EEF090021B17
:10CB3900E0FF25E02478F582E43402F583E4F0A3EC
:10CB4900F0EF25E024EAF582E43402F583E4F0A36A
:09CB5900F090021BE004F080B230
:01CB620022B0
:10D9CF00E4FF74D22FF582E43402F583E0FD74B0E6
:10D9DF002FF582E43402F583E0C39DFDE49400FC4F
:10D9EF00EF25E02478F582E43402F583ECF0A3ED23
:10D9FF00F00FEFB418CC7D1E7C007F0F7E000275F8
:01DA0F00A274
:10B987009001E3EFF06401705A90024FF0A374FF47
:10B99700F0A3E4F0A374FFF0A3E4F0A374FFF0E4D2
:10B9A700A3F0A3F0A3F0A3F0A3F0A374FFF0A3E424
:10B9B700F0A374FFF0A3E4F0A374FFF0A3E4F0A3F3
:10B9C70074FFF0E4A3F0A3F0A3F0A3F0A3F0A3F0B7
:10B9D700A3F0A3F0A3F0A3F07BFFFA7DFFFC7FFFAA
:10B9E70002BA839001E3E06402705190024FF0A322
:10B9F700F0A3F0A3F0A3F0A3F0A3F0A374FFF0A3C8
:10BA0700E4F0A374FFF0E4A3F0A3F0A3F0A3F0A382
:10BA1700F0A3F0A3F0A3F0A3F0A374FFF0A3E4F066
:10BA2700A374FFF0A3E4F0A374FFF0A3E4F0A374FE
:10BA3700FFF0A3E4F0A374FFF0E4803BE490024F2F
:10BA4700F0A3F0A3F0A3F0A3F0A3F0A3F0A3F0A357
:10BA5700F0A3F0A3F0A3F0A3F0A3F0A3F0A3F0A347
:10BA6700F0A3F0A3F0A3F0A3F0A3F0A3F0A3F0A337
:10BA7700F0A3F0A3F0A3F0FBFAFDFCFFFE12C1CA8E
:06BA87007F0A12759C22EB
:05D8C80090021AEFF0D0
:10D8CD00E4A3F090021AE0FFA3E0C39F502E900254
:10D8DD00D2E014F0A3E02402F0A3E004F0A3E004EE
:10D8ED00F0A3E024FEF0A3E014F01292E47F197E81
:0CD8FD000012D88A90021BE004F080C7E3
:01D9090022FB
:05D90A0090021AEFF08D
:10D90F00E4A3F090021AE0FFA3E0C39F502E900211
:10D91F00D2E004F0A3E024FEF0A3E014F0A3E0149F
:10D92F00F0A3E02402F0A3E004F01292E47F197E4A
:0CD93F000012D88A90021BE004F080C7A0
:01D94B0022B9
:056B2E00900217EFF0DA
:106B33009001AEE0B401089002187414F08005E4EB
:106B4300900218F0900218E0F924ECFFE434FFFE01
:106B5300E9FDC374149D900250F0E4940090024F39
:106B6300F090025174FFF0A374D8F0A374FFF0A364
:106B730074ECF0E4A3F0A3F0A3F0A3F0A3F0A3F06C
:106B8300A3F0A3F0A3F0A3F0A3F0A3F0A3F0A374E6
:106B9300FFF0A3E4F0A374FFF0A3E4F0A374FFF009
:106BA300A3E4F0A374FFF0E4A3F0A3F07B14FA7D55
:106BB30028FC12C1CA7D147C00E4FFFE1275A2906A
:106BC3000218E0F924ECFFE434FFFEE9FDC374147A
:106BD3009D900250F0E4940090024FF090025174A3
:106BE300FFF0A374D8F0A374FFF0A374ECF0A3E454
:106BF300F0A374FFF0A3E4F0A374FFF0A3F0A37475
:106C0300F6F0A3E4F0A3740AF0A374FFF0A374F600
:106C1300F0A3E4F0A3740AF0A3E4F0A374FFF0A3D9
:106C2300E4F0A374FFF0A3E4F0A374FFF0A3E4F093
:106C3300A374FFF0E4A3F0A3F07B14FA7D28FC1205
:106C4300C1CA7D0F7C00E4FFFE1275A2900218E01A
:106C5300F924ECFFE434FFFEE9FDC374469D900282
:106C630050F0E4940090024FF090025174FFF0A3AF
:106C730074B0F0A374FFF0A374F1F0A3E4F0A37471
:106C8300FFF0A3E4F0A374FFF0A3F0A374F6F0A362
:106C9300E4F0A3740FF0A374FFF0A374ECF0A3E487
:106CA300F0A37414F0A3E4F0A374FFF0A3E4F0A33F
:106CB30074FFF0A3E4F0A374FFF0A3E4F0A374FF64
:106CC300F0E4A3F0A3F07B14FA7D28FC12C1CA7D83
:106CD300107C00E4FFFE1275A2900218E0F924FB79
:106CE300FFE434FFFEE9FDC374239D900250F0E4FA
:106CF300940090024FF090025174FFF0A374D8F007
:106D0300A374FFF0A374FBF0A3E4F0A374FFF0A358
:106D1300E4F0A374FFF0A3F0A374FBF0A3E4F0A3E7
:106D23007405F0A374FFF0A374FBF0A3E4F0A37461
:106D330005F0A3E4F0A374FFF0A3E4F0A374FFF061
:106D4300A3E4F0A374FFF0A3E4F0A374FFF0E4A3BF
:106D5300F0A3F07B23FA7D28FC12C1CA7D107C00CE
:106D6300E4FFFE1275A2900218E0F924ECFFE4346C
:106D7300FFFEE9FDC374149D900250F0E49400906B
:106D8300024FF090025174FFF0A374D8F0A374FF84
:106D9300F0A374ECF0A3E4F0A374FFF0A3E4F0A376
:106DA30074FFF0E4A3F0A3F0A3F0A3F0A3F0A3F027
:106DB300A3F0A3F0A3F0A374FFF0A3E4F0A374FF84
:106DC300F0A3E4F0A374FFF0A3E4F0A374FFF0E4F2
:106DD300A3F0A3F07B14FA7D28FC12C1CA7D107CBA
:076DE30000E4FFFE0275A2AF
:05686C00900217EFF09F
:106871009001AEE0B401089002187414F08005E4B0
:10688100900218F0900218E0F924ECFFE434FFFEC6
:10689100E9FDC374149D900250F0E4940090024FFE
:1068A100F090025174FFF0A374D8F0A374FFF0A329
:1068B10074ECF0E4A3F0A3F0A3F0A3F0A3F0A3F031
:1068C100A3F0A3F0A3F0A3F0A3F0A3F0A3F0A374AB
:1068D100FFF0A3E4F0A374FFF0A3E4F0A374FFF0CE
:1068E100A3E4F0A374FFF0E4A3F0A3F07B14FA7D1A
:1068F10028FC12C1CA7D147C00E4FFFE1275A2902F
:106901000218E0F924ECFFE434FFFEE9FDC374143E
:106911009D900250F0E4940090024FF09002517467
:10692100FFF0A374D8F0A374FFF0A374ECF0A3E418
:10693100F0A374FFF0A3E4F0A374FFF0A3E4F0A3C9
:10694100740AF0A374FFF0A374F6F0A3E4F0A37447
:106951000CF0A374FFF0A374F4F0A3E4F0A374FFAC
:10696100F0A3E4F0A374FFF0A3E4F0A374FFF0A399
:10697100E4F0A374FFF0E4A3F0A3F07B14FA7D2804
:10698100FC12C1CA7D0F7C00E4FFFE1275A29002C9
:1069910018E0F924BAFFE434FFFEE9FDC374149D45
:1069A100900250F0E4940090024FF090025174FF75
:1069B100F0A374D8F0A374FFF0A374ECF0A3E4F097
:1069C100A374FFF0A3E4F0A374FFF0A3E4F0A374B5
:1069D10014F0A374FFF0A374ECF0A3E4F0A3740A21
:1069E100F0A374FFF0A374F1F0A3E4F0A374FFF03B
:1069F100A3E4F0A374FFF0A3E4F0A374FFF0A3E415
:106A0100F0A374FFF0E4A3F0A3F07B0AFA7D50FC3D
:106A110012C1CA7D107C00E4FFFE1275A29002181B
:106A2100E0F924DDFFE434FFFEE9FDC374059D9028
:106A31000250F0E4940090024FF090025174FFF084
:106A4100A374D8F0A374FFF0A374DDF0A3E4F0A362
:106A510074FFF0A3E4F0A374FFF0A3E4F0A37406C1
:106A6100F0A374FFF0A374FBF0A3E4F0A37405F0AA
:106A7100A374FFF0A374FBF0A3E4F0A374FFF0A3ED
:106A8100E4F0A374FFF0A3E4F0A374FFF0A3E4F037
:106A9100A374FFF0E4A3F0A3F07B05FA7D28FC12B8
:106AA100C1CA7D107C00E4FFFE1275A2900218E0BD
:106AB100F924ECFFE434FFFEE9FDC374149D900258
:106AC10050F0E4940090024FF090025174FFF0A353
:106AD10074D8F0A374FFF0A374ECF0A3E4F0A374F2
:106AE100FFF0A3E4F0A374FFF0E4A3F0A3F0A3F09C
:106AF100A3F0A3F0A3F0A3F0A3F0A3F0A374FFF01D
:106B0100A3E4F0A374FFF0A3E4F0A374FFF0A3E403
:106B1100F0A374FFF0E4A3F0A3F07B14FA7D28FC4A
:0D6B210012C1CA7D107C00E4FFFE0275A2C7
:055B7D00900217EFF09B
:105B82009001AEE0B401089002187414F08005E4AC
:105B9200900218F0900218E0F924ECFFE434FFFEC2
:105BA200E9FDC374149D900250F0E4940090024FFA
:105BB200F090025174FFF0A374D8F0A374FFF0A325
:105BC20074ECF0E4A3F0A3F0A3F0A3F0A3F0A3F02D
:105BD200A3F0A3F0A3F0A3F0A3F0A3F0A3F0A374A7
:105BE200FFF0A3E4F0A374FFF0A3E4F0A374FFF0CA
:105BF200A3E4F0A374FFF0E4A3F0A3F07B14FA7D16
:105C020028FC12C1CA7D147C00E4FFFE1275A2902A
:105C12000218E0F924ECFFE434FFFEE9FDC374143A
:105C22009D900250F0E4940090024FF09002517463
:105C3200FFF0A374D8F0A374FFF0A374ECF0A3E414
:105C4200F0A374FFF0A3E4F0A374FFF0A3E4F0A3C5
:105C52007405F0A374FFF0A374FBF0A3E4F0A37443
:105C620005F0A374FFF0A374F6F0A3E4F0A374FFAD
:105C7200F0A3E4F0A374FFF0A3E4F0A374FFF0A395
:105C8200E4F0A374FFF0E4A3F0A3F07B14FA7D2800
:105C9200FC12C1CA7D0C7C007F057E001275A290A9
:105CA2000218E0F924E2FFE434FFFEE9FDC37414B4
:105CB2009D900250F0E4940090024FF090025174D3
:105CC200FFF0A374D8F0A374FFF0A374ECF0A3E484
:105CD200F0A374FFF0A3E4F0A374FFF0A3E4F0A335
:105CE200741EF0A374FFF0A374E2F0A3E4F0A374B3
:105CF20005F0A374FFF0A374F6F0A3E4F0A374FF1D
:105D0200F0A3E4F0A374FFF0A3E4F0A374FFF0A304
:105D1200E4F0A374FFF0E4A3F0A3F07B1EFA7D3C51
:105D2200FC12C1CA7D0C7C007F057E001275A29018
:105D32000218E0F924ECFFE434FFFEE9FDC3741419
:105D42009D900250F0E4940090024FF09002517442
:105D5200FFF0A374D8F0A374FFF0A374ECF0A3E4F3
:105D6200F0A374FFF0A3E4F0A374FFF0A3F0A37414
:105D7200FBF0A3E4F0A37405F0A374FFF0A374E7AF
:105D8200F0A3E4F0A37419F0A3E4F0A374FFF0A36A
:105D9200E4F0A374FFF0A3E4F0A374FFF0A3E4F033
:105DA200A374FFF0E4A3F0A3F07B14FA7D28FC12A5
:105DB200C1CA7D187C00E4FFFE1275A2900218E0B1
:105DC200F924ECFFE434FFFEE9FDC3741E9D90024A
:105DD20050F0E4940090024FF090025174FFF0A34F
:105DE20074C4F0A374FFF0A374E2F0A3E4F0A3740C
:105DF200FFF0A3E4F0A374FFF0A3F0A374FBF0A3FD
:105E0200E4F0A37405F0A374FFF0A374FBF0A3E421
:105E1200F0A37405F0A3E4F0A374FFF0A3E4F0A3ED
:105E220074FFF0A3E4F0A374FFF0A3E4F0A374FF03
:105E3200F0E4A3F0A3F07B14FA7D28FC12C1CA7D22
:105E42000C7C00E4FFFE1275A2900218E0F924EC2B
:105E5200FFE434FFFEE9FDC374149D900250F0E4A8
:105E6200940090024FF090025174FFF0A374D8F0A6
:105E7200A374FFF0A374ECF0A3E4F0A374FFF0A307
:105E8200E4F0A374FFF0E4A3F0A3F0A3F0A3F0A363
:105E9200F0A3F0A3F0A3F0A3F0A374FFF0A3E4F047
:105EA200A374FFF0A3E4F0A374FFF0A3E4F0A374DF
:105EB200FFF0E4A3F0A3F07B14FA7D28FC12C1CA20
:0A5EC2007D0C7C00E4FFFE0275A2D7
:055ECC00900217EFF049
:105ED1009001AEE0B401089002187414F08005E45A
:105EE100900218F0900218E0F924ECFFE434FFFE70
:105EF100E9FDC374149D900250F0E4940090024FA8
:105F0100F090025174FFF0A374D8F0A374FFF0A3D2
:105F110074ECF0E4A3F0A3F0A3F0A3F0A3F0A3F0DA
:105F2100A3F0A3F0A3F0A3F0A3F0A3F0A3F0A37454
:105F3100FFF0A3E4F0A374FFF0A3E4F0A374FFF077
:105F4100A3E4F0A374FFF0E4A3F0A3F07B14FA7DC3
:105F510028FC12C1CA7D147C00E4FFFE1275A290D8
:105F61000218E0F924ECFFE434FFFEE9FDC37414E8
:105F71009D900250F0E4940090024FF09002517411
:105F8100FFF0A374D8F0A374FFF0A374ECF0A3E4C2
:105F9100F0A374FFF0A3E4F0A374FFF0A3F0A374E3
:105FA100FBF0A3E4F0A3740AF0A374FFF0A374FB65
:105FB100F0A3E4F0A37405F0A3E4F0A374FFF0A34D
:105FC100E4F0A374FFF0A3E4F0A374FFF0A3E4F002
:105FD100A374FFF0E4A3F0A3F07B14FA7D28FC1274
:105FE100C1CA7D0C7C007F057E001275A29002184B
:105FF100E0F924ECFFE434FFFEE9FDC3741E9D903B
:106001000250F0E4940090024FF090025174FFF0BE
:10601100A374C4F0A374FFF0A374E2F0A3E4F0A3AB
:1060210074FFF0A3E4F0A374FFF0A3F0A374FBF0FA
:10603100A3E4F0A3740AF0A374FFF0A374E2F0A345
:10604100E4F0A3741EF0A3E4F0A374FFF0A3E4F062
:10605100A374FFF0A3E4F0A374FFF0A3E4F0A3742E
:10606100FFF0E4A3F0A3F07B14FA7D28FC12C1CA6F
:106071007D0C7C007F057E001275A2900218E0F96C
:1060810024ECFFE434FFFEE9FDC374149D9002503B
:10609100F0E4940090024FF090025174FFF0A37469
:1060A100D8F0A374FFF0A374ECF0A3E4F0A374FFA1
:1060B100F0A3E4F0A374FFF0A3E4F0A37419F0A338
:1060C10074FFF0A374E7F0A3E4F0A37405F0A374E4
:1060D100FFF0A374FBF0A3E4F0A374FFF0A3E4F0DA
:1060E100A374FFF0A3E4F0A374FFF0A3E4F0A3749E
:1060F100FFF0E4A3F0A3F07B14FA7D28FC12C1CADF
:106101007D187C00E4FFFE1275A2900218E0F924CC
:10611100E2FFE434FFFEE9FDC374149D900250F0E8
:10612100E4940090024FF090025174FFF0A374D8F0
:10613100F0A374FFF0A374ECF0A3E4F0A374FFF0F8
:10614100A3E4F0A374FFF0A3E4F0A37405F0A37437
:10615100FFF0A374FBF0A3E4F0A37405F0A374FFB4
:10616100F0A374FBF0A3E4F0A374FFF0A3E4F0A3A5
:1061710074FFF0A3E4F0A374FFF0A3E4F0A374FFB1
:10618100F0E4A3F0A3F07B1EFA7D3CFC12C1CA7DB2
:106191000C7C00E4FFFE1275A2900218E0F924ECD9
:1061A100FFE434FFFEE9FDC374149D900250F0E456
:1061B100940090024FF090025174FFF0A374D8F054
:1061C100A374FFF0A374ECF0A3E4F0A374FFF0A3B5
:1061D100E4F0A374FFF0E4A3F0A3F0A3F0A3F0A311
:1061E100F0A3F0A3F0A3F0A3F0A374FFF0A3E4F0F5
:1061F100A374FFF0A3E4F0A374FFF0A3E4F0A3748D
:10620100FFF0E4A3F0A3F07B14FA7D28FC12C1CACD
:0A6211007D0C7C00E4FFFE0275A284
:05450900900217EFF025
:10450E0012CAB390024FE4F0A3747AF0A3E4F0A3BE
:10451E007437F0A3E4F0A37450F0A374FFF0A37407
:10452E0074F0A3E4F0A3748CF0E4A3F0A3F0A3F072
:10453E00A3F0A3F0A3F0A3F0A3F0A3F0A3F0A3F0D5
:10454E00A3F0A3F0A3F0A3F0A3F0A3F0A3F0A3F0C5
:10455E00A3F0A3F0A3F0A3F0A3F0A3F0A3F0A3F0B5
:10456E00A3F07BB07AFF7DC97CFF7F867EFF12C1F0
:10457E00CA7D287C007F0F7E001275A290024FE448
:10458E00F0A3747AF0A3E4F0A37437F0A3E4F0A3DD
:10459E007428F0A374FFF0A37474F0A3E4F0A37472
:1045AE008CF0E4A3F0A3F0A3F0A3F0A3F0A3F0A388
:1045BE00F0A3F0A3F0A3F0A3F0A3F0A3F0A3F0A355
:1045CE00F0A3F0A3F0A3F0A3F0A3F0A3F0A3F0A345
:1045DE00F0A3F0A3F0A3F0A3F0A3F07BD87AFF7DB5
:1045EE00C97CFF7F867EFF12C1CA12759A90024F58
:1045FE00E4F0A3743CF0A3E4F0A37437F0A374FFCB
:10460E00F0A374ECF0A374FFF0A37474F0A3E4F0C1
:10461E00A3748CF0E4A3F0A3F0A3F0A3F0A3F0A393
:10462E00F0A3F0A3F0A3F0A3F0A3F0A3F0A3F0A3E4
:10463E00F0A3F0A3F0A3F0A3F0A3F0A3F0A3F0A3D4
:10464E00F0A3F0A3F0A3F0A3F0A3F0A3F07B14FA71
:10465E007DC97CFF7FC47EFF12C1CA12759AE49099
:10466E00024FF0A3F0A3F0A3F0A3F0A3F0A374FF06
:10467E00F0A3749CF0A3E4F0A37464F0E412C18C74
:10468E007D287C007F0F7E001275A2E4900219F047
:10469E00900217E0FF900219E0C39F506AE4900267
:1046AE0018F09002DEE024FCF0A3E02406F0A3E074
:1046BE002404F0A3E024FAF01292E47F197E001293
:1046CE00D88A900218E004F0E0C3941440D4E49029
:1046DE000218F09002DEE02404F0A3E024FAF0A326
:1046EE00E024FCF0A3E02406F01292E47F197E0091
:1046FE0012D88A900218E004F0E0C3941440D490CB
:10470E000219E004F08089E490024FF0A3F0A3F0C8
:10471E00A37405F0E4A3F0A3F0A374FFF0A3749CBC
:10472E00F0A3E4F0A37464F0E4A3F0A3F0A3F0A369
:10473E00F0A3F0A3F0A3F0A3F0A3F0A3F0A3F0A3D3
:10474E00F0A3F0A3F0A3F0A3F0A3F0A3F0A3F0A3C3
:10475E00F0A3F0A3F0A3F0A3F0A3F0A3F0A3F0A3B3
:10476E00F0FBFA7DFB7CFFFFFE12C1CA7D057C00CB
:10477E007F0F7E001275A290024FE4F0A3747AF0C0
:10478E00A3E4F0A37432F0E4A3F0A3F0A374FFF05B
:10479E00A3746AF0A3E4F0A37496F0E4A3F0A3F07C
:1047AE00A3F0A3F0A3F0A3F0A3F0A3F0A3F0A3F063
:1047BE00A3F0A3F0A3F0A3F0A3F0A3F0A3F0A3F053
:1047CE00A3F0A3F0A3F0A3F0A3F0A3F0A3F0A3F043
:1047DE00A3F0A3F0FBFA7DCE7CFF7F867EFF12C195
:1047EE00CA7D237C007F0F7E001275A290024FE4DB
:1047FE00F0A3747AF0A3E4F0A37432F0A3E4F0A370
:10480E007428F0A374FFF0A3746AF0A3E4F0A37409
:10481E0096F0E4A3F0A3F0A3F0A3F0A3F0A3F0A30B
:10482E00F0A3F0A3F0A3F0A3F0A3F0A3F0A3F0A3E2
:10483E00F0A3F0A3F0A3F0A3F0A3F0A3F0A3F0A3D2
:10484E00F0A3F0A3F0A3F0A3F0A3F07BD87AFF7D42
:10485E00CE7CFF7F867EFF12C1CA7D0F7C007F0F4C
:10486E007E001275A290024FE4F0A3746EF0A3E4E2
:10487E00F0A3742CF0A3E4F0A37446F0A374FFF03D
:10488E00A3746AF0A3E4F0A37496F0E4A3F0A3F08B
:10489E00A3F0A3F0A3F0A3F0A3F0A3F0A3F0A3F072
:1048AE00A3F0A3F0A3F0A3F0A3F0A3F0A3F0A3F062
:1048BE00A3F0A3F0A3F0A3F0A3F0A3F0A3F0A3F052
:1048CE00A3F0A3F07BBA7AFF7DCE7CFF7F927EFFB2
:1048DE0012C1CA12759A12C1757D2D7C007F0F7E92
:0D48EE00001275A27F0A12DF7EA20C92124A
:0148FB00229A
:056DEA00900217EFF01C
:106DEF00E4A3F0900217E0FFA3E0C39F40030270FB
:106DFF007F90024FE4F0A37419F0A374FFF0A37413
:106E0F00CEF0A374FFF0A374E7F0E4A3F0A3F0A314
:106E1F00F0A3F0A3F0A3740AF0A374FFF0A374F629
:106E2F00F0A3E4F0A3740AF0A374FFF0A374F4F0DA
:106E3F00E4A3F0A3F0A3F0A3F0A3F0A3F0A3F0A3B7
:106E4F00F0A3F0A3F0A3F0A3F0A3F0A3F0A3F0A39B
:106E5F00F0A3F0A3F0A3F0A3F07B19FA7D32FC7F2F
:106E6F00E77EFF12C1CA7D0F7C007F027E00127584
:106E7F00A290024FE4F0A37419F0A374FFF0A3746F
:106E8F00CEF0A374FFF0A374E7F0E4A3F0A3F0A394
:106E9F00F0A3F0A3F0A3740AF0A374FFF0A374F6A9
:106EAF00F0E4A3F0A3F0A374FFF0A374EEF0E4A357
:106EBF00F0A3F0A3F0A3F0A3F0A3F0A3F0A3F0A32B
:106ECF00F0A3F0A3F0A3F0A3F0A3F0A3F0A3F0A31B
:106EDF00F0A3F0A3F0A3F07B3CFA7D46FC7F0FFEFE
:106EEF0012C1CA7D127C00E4FFFE1275A290024F00
:106EFF00E4F0A37419F0A374FFF0A374CEF0A3749D
:106F0F00FFF0A374E7F0E4A3F0A3F0A3F0A3F0A3C2
:106F1F00F0A3740AF0A374FFF0A374F6F0A3E4F0E7
:106F2F00A37405F0A374FFF0A374ECF0E4A3F0A333
:106F3F00F0A3F0A3F0A3F0A3F0A3F0A3F0A3F0A3AA
:106F4F00F0A3F0A3F0A374FFF0A374FBF0E4A3F09D
:106F5F00A3F0A3F0A3F0A3F0A3F07BFB7AFF7D32A5
:106F6F00FC7FC47EFF12C1CA7D017C00E4FFFE12CC
:106F7F0075A27F0112DFA690024FE4F0A37419F0FF
:106F8F00A374FFF0A374CEF0A374FFF0A374E7F023
:106F9F00E4A3F0A3F0A3F0A3F0A3F0A3740AF0A36B
:106FAF0074FFF0A374F1F0A3E4F0A37405F0A374DD
:106FBF00FFF0A374F1F0E4A3F0A3F0A3F0A3F0A308
:106FCF00F0A3F0A3F0A3F0A3F0A3F0A3F0A3F0A31A
:106FDF00F0A3F0A3F0A3F0A3F0A3F0A3F0A3F07B32
:106FEF0019FA7D32FC7FE77EFF12C1CA7D197C0042
:106FFF00E4FFFE1275A290024FE4F0A37419F0A300
:10700F0074FFF0A374CEF0A374FFF0A374E7F0E461
:10701F00A3F0A3F0A3F0A3F0A3F0A3F0A3F0A3F0C9
:10702F00A3F0A3F0A3F0A3F0A3F0A3F0A3F0A3F0B9
:10703F00A3F0A3F0A3F0A3F0A3F0A3F0A3F0A3F0A9
:10704F00A3F0A3F0A3F0A3F0A3F0A3F0A3F0A3F099
:10705F007B19FA7D32FC7FE77EFF12C1CA7D0F7C60
:10706F0000E4FFFE1275A2900218E004F0026DF228
:01707F0022EE
:05708000900217EFF083
:10708500E4A3F0900217E0FFA3E0C39F400302735F
:107095001190024FE4F0A37419F0A374FFF0A374E8
:1070A500CEF0A374FFF0A374E7F0E4A3F0A3F0A37C
:1070B500F0A3F0A374FFF0A374F6F0A3E4F0A374B7
:1070C5000CF0A374FFF0A374F6F0A3E4F0A3740A24
:1070D500F0E4A3F0A3F0A3F0A3F0A3F0A3F0A3F0D2
:1070E500A3F0A3F0A3F0A3F0A3F0A3F0A3F0A3F003
:1070F500A3F0A3F0A3F0A3F0A3F07B19FA7D32FC73
:107105007FE77EFF12C1CA7D0F7C007F027E0012E1
:1071150075A290024F74FFF0A374F1F0A374FFF011
:10712500A374BAF0A374FFF0A374C4F0E4A3F0A3AE
:10713500F0A3F0A3F0A3F0A3F0A3F0A37412F0A3BF
:1071450074FFF0A374F6F0A3E4F0A3740AF0E4A3CB
:10715500F0A3F0A3F0A3F0A3F0A3F0A3F0A3F0A392
:10716500F0A3F0A3F0A3F0A3F0A3F0A3F0A3F0A382
:10717500F0A3F0A3F0A3F07B19FA7D32FC7FE77E44
:10718500FF12C1CA7D127C00E4FFFE1275A29002B7
:107195004FE4F0A3743CF0A374FFF0A374CEF0A306
:1071A500E4F0A37405F0E4A3F0A3F0A3F0A3F0A327
:1071B50074FFF0A374FBF0A3E4F0A37414F0A374BC
:1071C500FFF0A374F6F0A3E4F0A3740AF0E4A3F0CF
:1071D500A3F0A3F0A3F0A3F0A3F0A3F0A3F0A3F012
:1071E500A3F0A3F0A3F0A3F0A3F0A3F0A3F0A3F002
:1071F500A3F0A3F0A3F07B19FA7D32FC7FE77EFFB5
:1072050012C1CA7D017C00E4FFFE1275A27F011246
:10721500DFA690024FE4F0A37419F0A374FFF0A366
:1072250074CEF0A374FFF0A374E7F0E4A3F0A3F029
:10723500A3F0A3F0A374FFF0A374FBF0A3E4F0A301
:10724500740FF0A374FFF0A374F6F0A3E4F0A37435
:107255000FF0E4A3F0A3F0A3F0A3F0A3F0A3F0A331
:10726500F0A3F0A3F0A3F0A3F0A3F0A3F0A3F0A381
:10727500F0A3F0A3F0A3F0A3F0A3F07B19FA7D32FD
:10728500FC7FE77EFF12C1CA7D197C00E4FFFE1278
:1072950075A290024FE4F0A37419F0A374FFF0A354
:1072A50074CEF0A374FFF0A374E7F0E4A3F0A3F0A9
:1072B500A3F0A3F0A3F0A3F0A3F0A3F0A3F0A3F031
:1072C500A3F0A3F0A3F0A3F0A3F0A3F0A3F0A3F021
:1072D500A3F0A3F0A3F0A3F0A3F0A3F0A3F0A3F011
:1072E500A3F0A3F0A3F0A3F0A3F0A3F07B19FA7D1C
:1072F50032FC7FE77EFF12C1CA7D0F7C00E4FFFEF2
:0C7305001275A2900218E004F0027088DB
:017311002259
:10A4160090024FE4F0A37482F0A3E4F0A37437F043
:10A42600A3E4F0A37450F0A374FFF0A37474F0A334
:10A43600E4F0A3748CF0E4A3F0A3F0A3F0A3F0A3DC
:10A44600F0A3F0A3F0A3F0A3F0A3F0A3F0A3F0A36E
:10A45600F0A3F0A3F0A3F0A3F0A3F0A3F0A3F0A35E
:10A46600F0A3F0A3F0A3F0A3F0A3F0A3F0A3F07B76
:10A47600B07AFF7DC97CFF7F7E7EFF12C1CA7D2830
:10A486007C007F0F7E001275A290024FE4F0A37449
:10A4960082F0A3E4F0A37437F0A3E4F0A37428F0E9
:10A4A600A374FFF0A37474F0A3E4F0A3748CF0E437
:10A4B600A3F0A3F0A3F0A3F0A3F0A3F0A3F0A3F0FE
:10A4C600A3F0A3F0A3F0A3F0A3F0A3F0A3F0A3F0EE
:10A4D600A3F0A3F0A3F0A3F0A3F0A3F0A3F0A3F0DE
:10A4E600A3F0A3F0A3F0A3F07BD87AFF7DC97CFF8D
:10A4F6007F7E7EFF12C1CA12759A90024FE4F0A3C6
:10A50600743CF0A3E4F0A37437F0A374FFF0A374D3
:10A51600ECF0A374FFF0A37474F0A3E4F0A3748CBE
:10A52600F0E4A3F0A3F0A3F0A3F0A3F0A3F0A3F04C
:10A53600A3F0A3F0A3F0A3F0A3F0A3F0A3F0A3F07D
:10A54600A3F0A3F0A3F0A3F0A3F0A3F0A3F0A3F06D
:10A55600A3F0A3F0A3F0A3F0A3F07B14FA7DC97CCB
:10A56600FF7FC47EFF12C1CA12759AE490024FF0B3
:10A57600A3F0A3F0A3F0A3F0A3F0A374FFF0A374D9
:10A586009CF0A3E4F0A37464F0E412C18C7D287CF3
