:10EB77002F534852302F30002F534852302F310037
:10EB8700000000000000000000000000000000007E
:02EB970000007C
:1089FF004201B000004201B20000C10DC111C10E11
:108A0F0041000A004201D50000C10F6190000B0028
:108A1F000000000000000000000000000000000047
:108A2F000000000000000000000000000000000037
:108A3F000000000000000000000000000000000027
:108A4F000000000000000000000000000000000017
:108A5F000000000000000000000000000000000007
:108A6F0000000000000000000000000000000000F7
:108A7F0000000000000000000000000000000000E7
:108A8F0000000000000000000000000000000000D7
:108A9F0000000000000000000000000000000000C7
:108AAF0000000000000000000000000000000000B7
:108ABF0000000000000000000000000000000000A7
:108ACF000000000000000000000000000000000097
:108ADF000000000000000000000000000000000087
:108AEF000000000000000000000000000000000077
:108AFF000000000000000000000000000000000067
:108B0F000000000000000000000000000000000056
:108B1F000000000000000000000000000000000046
:108B2F000000000000000000000000000000000036
:108B3F000000000000000000000000000000000026
:108B4F000000000000000000000000000000000016
:108B5F000000000000000000000000000000000006
:108B6F0000000000000000000000000000000000F6
:108B7F0000000000000000000000000000000000E6
:108B8F0000000000000000000000000000000000D6
:108B9F000000000000000000000000000000005076
:108BAF00019B00000000000000000000000000001A
:108BBF0000004101AC004101AD00602001B4000094
:108BCF000000000000000000000000000000000096
:108BDF000000000000000000000000000000C110B5
:108BEF004101D441410000FF410009FF410008004D
:108BFF004101AB08C10CC1124101AE004101D700C8
:048C0F004101AF0070
:10E6B50043BA07759850759A5075AC1053ACBF7531
:10E6C500841043844043D12075D3E075D2FE43D1F5
:10E6D50080538EEF438E01438E0475D7E075D6FEC9
:09E6E500438E10D2AC43AF1922A0
:0D000E0053D17F75D3E875D2FF43D1802216
:10EC9F00C2991221546010F5993099FDC2997401EF
:08ECAF0029F9E43AFA80EB2296
:08E8D500900203ECF0A3EDF04A
:10E8DD00E4FFFEC299900203E06E7003A3E06F6047
:10E8ED0018122154F5993099FDC299740129F9E452
:09E8FD003AFA0FBF00010E80DCA5
:01E9060022EE
:0AEDFA00C2998F993099FDC2992249
:07EC39007F7E12EC407F0317
:10EC400053AFF753ACFD8FADE5AC30E1FB53ACFDFA
:04EC500043AF0822A4
:10E90700AE07EEC394004026EED3941E50207F7EC0
:10E9170012EC407F0412EC407F3112EC40AF06123C
:0FE92700EC40EF6435FF12EC407FEF12EC402222
:09E80400E49001D7F07D027F05CC
:02E80D00AE0754
:10E80F007C477F7E12EC407F0512EC407F4212EC7A
:10E81F0040AF0612EC40EC6FFCAF0512EC40EC6F12
:0AE82F00FCFF12EC407FEF02EC400A
:10ED440012EC397F1E12EC401F12EC407FEF02ECF4
:01ED5400407E
:10ED550012EC397F1212EC401F12EC407FEF02ECEF
:01ED6500406D
:10ED660012EC397F1112EC400F12EC407FEF02ECEF
:01ED7600405C
:10E9BD0053AFEF5384FD758557E58430E1FB5384E8
:10E9CD00FD7585ABE58430E1FB5384FD8F85E584D2
:0AE9DD0030E1FB5384FD43AF10222C
:10EB3000900227E0FCA3E0FDA3E0FEA3E0FF122289
:01EB4000E0F4
:10EB410053AFEF5384FD8F85E58430E1FB5384FDA2
:04EB510043AF10229C
:03E0210012E9BD44
:10E02400900237122332000000007F207EA17D077A
:10E034007C00900237E0F8A3E0F9A3E0FAA3E0FB48
:10E04400C31222CF502C300F08C20F9001ADE0FF55
:10E0540022900237E0FCA3E0FDA3E0FEA3E024014C
:10E06400FFE43EFEE43DFDE43CFC9002371223262F
:04E0740080B87F00F1
:01E078002285
:10E50F0053AFEF5384FD758557E58430E1FB53849A
:10E51F00FD7585ABE58430E1FB5384FD8F85E58484
:10E52F0030E1FB5384FDAF058F85E58430E1FB536C
:0FE53F0084FDE58430E0FB5384FEAF8543AF10CD
:01E54E0022AA
:10E86E0053AFEF5384FD758557E58430E1FB538438
:10E87E00FD7585ABE58430E1FB5384FD8F85E58422
:10E88E0030E1FB5384FDE58430E0FB5384FEAF851D
:03E89E0043AF1075
:01E8A1002254
:0BEDEF00300F05C20F7F01227F0022C1
:10E991007D557F0612E50F7D037F1512E50F7F314F
:10E9A10012E86EEFB414147F0212E9BD0F12EB41AD
:0BE9B1007FCC12EB4112000E12E0249C
:01E9BC002238
:0B00460090022FEBF0A3EAF0A3E9F01A
:100051007F2712E021900233EFF0900232F060240A
:1000610012E02490022FE0FBA3E0FAA3E0F9EF12E3
:10007100219A900230E475F001122213900233E0CC
:0900810014F070DC900232E0FF83
:01008A002253
:0BE6EE00900201EBF0A3EAF0A3E9F0BA
:10E6F9007F2D12E021AE07AD06EE601E900201E00B
:10E70900FBA3E0FAA3E0F9122154FF12EB419002B6
:0CE7190002E475F001122213DEE2AF05ED
:01E7250022D1
:10DC4D0012E024900233EFF012E024900234EFF052
:10DC5D0012E024900235EFF012E024900236EFF03E
:10DC6D00900234E0FE900233E0FDEDFFE4FCFDC0D8
:10DC7D0004C005C006C007900235E0FFE4FE781031
:10DC8D001222F3D003D002D001D000EF4BFFEE4AA9
:10DC9D00FEED49FDEC48FCC004C005C006C007A35D
:10DCAD00E0FFE4FCFDFE78181222F3D003D002D081
:0FDCBD0001D000EF4BFFEE4AFEED49FDEC48FCB5
:01DCCC002235
:02ED9900AE07C3
:0DED9B007F0A12E9BDAF0612EB4112E02421
:01EDA8002248
:10ED7700AE077F0B12E9BDAF0612EB41AF0502EB01
:01ED8700414A
:10EDA900AE077F0C12E9BDAF0612EB4112DC4D2212
:10E1CD00AE077F0D12E9BDAF0612EB41900234A3ED
:10E1DD00A3A3E0FF12EB41900234A3A3E0FEEEFFF8
:10E1ED0012EB41900234E0FCA3E0FDA3E0FEA3E0BE
:10E1FD00FF78101222E012EB41900234E0FCA3E014
:0FE20D00FDA3E0FEA3E0FF78181222E002EB4130
:07EE1D00E4FD7F0D02ED771B
:06EE2B007F6812EDA92230
:06EE31007F2B12ED992277
:08EE04007F2212E9BD12E02497
:01EE0C0022E3
:10E17A00900233122332000000007F407E4B7D4C18
:10E18A007C00900233E0F8A3E0F9A3E0FAA3E0FBF5
:10E19A00C31222CF502A12EDEFEF600302EE049071
:10E1AA000233E0FCA3E0FDA3E0FEA3E02401FFE4C8
:10E1BA003EFEE43DFDE43CFC90023312232680BA85
:02E1CA007FFADA
:01E1CC002230
:07EE240012E9BD12E17A22A0
:04EDB9007D017F3623
:0CEDBD0012E9BDAF0512EB4112E17A2211
:0BCB6C0090022FEBF0A3EAF0A3E9F029
:10CB77007F0112E9BD12E024EFC39443400302CCC6
:10CB87001F7F2B12ED99EFC39410400302CC1F7F38
:10CB97002F12E9BDE4FF12EB417F3212EE2490021F
:10CBA70032EFF0641470717FCF12ED99900232EF7B
:10CBB700F060657F4C12EDA9A804A905AA06AB078A
:10CBC700900232E0FEE4FCFD2BFFEA3EFEED39FD6C
:10CBD700EC38FC9002341223267F4C12E1CD7F50B3
:10CBE70012EDA9A804A905AA06AB07900232E0FE38
:10CBF700E4FCFD2BFFEA3EFEED39FDEC38FC90022C
:10CC0700341223267F5012E1CD90023412233200D2
:10CC17000000007F7012E1CD7F2F12E9BD90022F37
:10CC2700E0FBA3E0FAA3E0F9122154FEFF8028EE0F
:10CC3700602A900230E475F00112221390022FE06F
:10CC4700FBA3E0FAA3E0F9122154FE645C6004EE52
:0CCC5700B42F02E4FEAF0612EB4180D3C4
:01CC630022AE
:10E3400090022CEBF0A3EAF0A3E9F090022CE0FBA2
:10E35000A3E0FAA3E0F912CB6C90022CE0FBA3E05F
:10E36000FAA3E0F9122154FF645C6004EFB42F0FAC
:10E37000900234122332000000007F6412E1CD7F4E
:05E380003212EE242220
:0EEDC900EA494B600312CB6C7F3412EE242219
:0BD0B1009001FEEBF0A3EAF0A3E9F011
:10D0BC00A3EBF0A3EAF0A3E9F0900201E0FBA3E0FC
:10D0CC00FAA3E0F9122154600C900202E475F0010D
:10D0DC0012221380E4900201E0FBA3E0FAA3E0F932
:10D0EC00122154FF645C603EEF642F60399001FEA6
:10D0FC00E0FBA3E0FAA3E0F9C003C002C001A3E087
:10D10C00FBA3E0FAA3E0F9D082D083D0E06B7008E7
:10D11C00E965827003EA6583600C90020274FFF586
:10D12C00F012221380AF9001FEE0FBA3E0FAA3E023
:10D13C00F9C003C002C001A3E0FBA3E0FAA3E0F92D
:10D14C00D082D083D0E06B7008E965827003EA6509
:10D15C0083600A900202E475F0011222139001FE22
:0BD16C00A3A3E0FFA3A3A3E0C39FFF69
:01D177002295
:0ED99F00900227EBF0A3EAF0A3E9F0A3EDF06D
:10D9AD00E4FFA304F0900227E0FBA3E0FAA3E0F963
:10D9BD0090022BE0F58275830012216DFE645C6090
:10D9CD0010EE642F600BEE600890022BE004F080E7
:10D9DD00D4EE600890022BE004F08005E490022B59
:10D9ED00F0900227E0FBA3E0FAA3E07E002FF9EE12
:10D9FD003AFA12E34090022BE0FE602490022AE0F6
:10DA0D00FDEE6D601BEF6441600FEFB414037F43B7
:10DA1D0022EFB442037FB3222290022BE0FF8085D8
:01DA2D0022D6
:0BE64000E0FCA3E0FDA3E0FEA3E0FF70
:10E64B009002271223267F3912E9BD900227A3A33C
:10E65B00A3E0FF12EB41900227A3A3E0FEEEFF1213
:10E66B00EB41781012EB30781812EB3012E17A2272
:0CDBCA00A3F07B017A0179B47D207C007F
:0BDBD600900227EBF0A3EAF0A3E9F0B7
:10DBE1007F3A12E9BDAF0512EB41ECFF12EB419018
:10DBF100022CE0FBA3E0FAA3E0F9EA494B6006E45A
:10DC0100F5F012228C12E17AAE07EE641D703A90A3
:10DC11000227E0FBA3E0FAA3E0F9120046AE077F7A
:10DC21003B12E9BDEEFD7C00900228EC8DF0122242
:10DC31001390022CE0FBA3E0FAA3E0F9EA494B6060
:0BDC4100C4EC8DF012225480BCAF0632
:01DC4C0022B5
:0BDD47009001F9EBF0A3EAF0A3E9F073
:10DD52007F3C12E9BDAF0512EB41ECFF12EB4190A3
:10DD620001FEE0FBA3E0FAA3E0F9EA494B6006E416
:10DD7200F5F012228C12E17AAE07EE641E703A9030
:10DD820001F9E0FBA3E0FAA3E0F912E6EEAE077FA9
:10DD92003D12E9BDEEFD7C009001FAEC8DF01222FD
:10DDA200139001FEE0FBA3E0FAA3E0F9EA494B601D
:0BDDB200C4EC8DF012225480BCAF06C0
:01DDBD002243
:0BD876009001F5EBF0A3EAF0A3E9F04D
:10D8810012D0B19001F9EFF0603A9001F5E0FBA3FD
:10D89100E0FAA3E0F99001F9E0FD12D99F9001F8B7
:10D8A100EFF064416011E0FEB414037F4322EEB453
:10D8B10042037FB322804D7F6012EDA99001FA12DD
:10D8C1002326800A9001FA12233200000000900101
:10D8D100F5E0FBA3E0FAA3E0F99001F9E0FF7E0097
:10D8E100E92FF9EE3AFA12EDC99001F8EFF064145C
:10D8F1006003E0FF2212EDB99001F8EFF0641460CB
:09D9010003E0FF229001F8E0FFB1
:01D90A0022FA
:06E385009001F5122326B1
:10E38B007DFF12D99FEF64146001229001F512E614
:10E39B0040EF64146001229001FEE4F0A3F0A3F0BF
:10E3AB007B017A0179B47D20FC12DD47EF641460A8
:0BE3BB00012212EDB9EF641460012292
:01E3C6002234
:0BC968009001F5EBF0A3EAF0A3E9F06A
:10C973009001FF122332000000009001F5E0FBA3B9
:10C98300E0FAA3E0F97DFF12D99F9001F8EFF0647C
:10C99300146003E0FF22E4FFFEFDFC9001FFE0F8DA
:10C9A300A3E0F9A3E0FAA3E0FBC31222CF700B12BA
:10C9B300EE2B9001FB12232680129001FF12E6401A
:10C9C3009001F8EFF064146003E0FF2290022C74EE
:10C9D30001F0A37401F074F912DBCA9001F8EFF0CF
:10C9E30064146003E0FF229001FFE0F8A3E0F9A3E1
:10C9F300E0FAA3E0FB9001F9E0FEA3E0FFE4FCFD15
:10CA0300EB2FFFEA3EFEED39FDEC38FC9001FF12FF
:10CA130023267B017A0179B49001F9E0FCA3E0FDC0
:10CA230012E8D5C39001FAE094209001F9E0940054
:10CA330040239001FBE0FCA3E0FDA3E0FEA3E0FFA5
:10CA4300A3E0F8A3E0F9A3E0FAA3E0FBC31222CF2B
:10CA5300500302C97D12EDB99001F8EFF064146040
:06CA630003E0FF227F1436
:01CA690022AA
:10E54F007DFF12D99FEF64146001227F007E007D52
:10E55F00007C0012E64BEF641460012290022C74D1
:10E56F0001F0A37402F0742512DBCAEF641460018A
:0CE57F002212EDB9EF64146001227F1439
:01E58B00226D
:07EE0D000000007F05DFFE9D
:01EE140022DB
:0400060000000022D4
:10ED0E0043A208E4F5CF75CDC075CEFFD2CC53AF7C
:02ED1E00FD22D4
:10DE3100E49001E2F0A3F078E47C017D017BFF7ABC
:10DE4100EB7987FE7F0912212EC2CC1200069001C8
:10DE5100E2E0FFC394095040EF7005A304F0800F86
:10DE6100EF9001E3B401057442F0800374FFF09078
:10DE710001E3E0F5CFE5CD30E7FB75CDC09001E2E0
:10DE8100E024E4F582E43401F583E5CFF012EE0DF0
:0ADE91009001E2E004F080B6D2CC6C
:01DE9B002264
:105BCF00E49001E2F0A3F078E47C017D017BFF7AA1
:105BDF00EB7990FE7F0912212EE4FDFCC2CC12005E
:105BEF00069001E2E0FFC394095040EF7005A30453
:105BFF00F0800FEF9001E3B401057442F08003745D
:105C0F00FFF09001E3E0F5CFE5CD30E7FB75CDC0B8
:105C1F009001E2E024E4F582E43401F583E5CFF06E
:105C2F0012EE0D9001E2E004F080B6D2CC9001E5C7
:105C3F00E0FFF460189001D4E0FEEF6E600F90016A
:105C4F00E5E09001D4F0900000742AF0229001E773
:105C5F00E0FCA3E0FFEFF47002ECF47003025EC10E
:105C6F00AE04EF8EF01223A95DFE7F7F5DF57FBF3F
:105C7F005DEC7FDF5DE37FEF5D4A7FFF5DDABF7F26
:105C8F005DD1BFBF5DC8BFDF5DBFBFEF5D41BFFF70
:105C9F005DB6DF7F5DADDFBF5DA4DFDF5D9BDFEF57
:105CAF005D38DFFF5D92EF7F5D89EFBF5D80EFDFD6
:105CBF005D77EFEF5D2FEFFF5E94F6FF5E8CF7FFE2
:105CCF005EABF9FF5EA3FBFF5E9BFDFF5E84FEFFF5
:105CDF005D6EFF7F5D65FFBF5D5CFFDF5D53FFEFB7
:105CEF005E07FFF05E10FFF15E19FFF25E22FFF319
:105CFF005E2BFFF45E34FFF55E3CFFF65E44FFF76C
:105D0F005E4CFFF85E54FFF95E5CFFFA5E64FFFBCA
:105D1F005E6CFFFC5E74FFFD5E7CFFFE00005EB3F9
:105D2F009000007401F0025EB99000007402F0025E
:105D3F005EB99000007403F0025EB9900000740425
:105D4F00F0025EB99000007405F0025EB990000099
:105D5F007406F0025EB99000007407F0025EB9900D
:105D6F0000007408F0025EB99000007409F0025E42
:105D7F00B9900000740AF0025EB9900000740BF045
:105D8F00025EB9900000740CF0025EB990000074CE
:105D9F000DF0025EB9900000740EF0025EB9900033
:105DAF0000740FF0025EB99000007410F0025EB93B
:105DBF009000007411F0025EB99000007412F002AE
:105DCF005EB99000007413F0025EB9900000741475
:105DDF00F0025EB99000007415F0025EB9900000F9
:105DEF007416F0025EB99000007417F0025EB9905D
:105DFF0000007418F0025EB99000007419F0025E92
:105E0F00B9900000741AF0025EB9900000741BF094
:105E1F00025EB9900000741CF0025EB9900000742D
:105E2F001DF0025EB9900000741EF0807D9000009E
:105E3F00741FF080759000007420F0806D9000004A
:105E4F007421F080659000007422F0805D90000056
:105E5F007423F080559000007424F0804D90000062
:105E6F007425F080459000007426F0803D9000006E
:105E7F007427F080359000007428F0802D9000007A
:105E8F007429F08025E4900000F0801E90000074CB
:105E9F002BF08016900000742CF0800E9000007490
:105EAF002DF0800690000074FFF0900000E0F46089
:105EBF00072290000074FFF09001E5E06473600327
:105ECF00025FA29001E4F09001EBE0FD70099001F8
:105EDF00E4E04480F0800BEDB4FF079001E4E04470
:105EEF0040F09001ECE0FD70099001E4E04420F0F7
:105EFF00800BEDB4FF079001E4E04410F09001E94E
:105F0F00E0FD70099001E4E04408F0800BEDB4FF70
:105F1F00079001E4E04404F09001EAE0FD7009907D
:105F2F0001E4E04402F0800BEDB4FF079001E4E0E0
:105F3F004401F09001E4E014604514603424FE60E5
:105F4F003724FC604124F8601A24D0600F24C0600D
:105F5F0019246070389000007433F02290000074A0
:105F6F0034F0229000007435F0229000007436F067
:105F7F00229000007437F0229000007438F02290C5
:105F8F0000007439F022900000743AF02290000063
:035F9F0074FFF09C
:015FA20022DC
:10DF0600900000E0FFF46053EF642A604E9001D465
:10DF1600E0B44110900000E064016004EFB4031324
:10DF2600D20A800F900000E0FF64336004EFB4353E
:10DF360002D20A900000E0FF900009E06F6009EF4E
:10DF4600F0E4900008F0800C900008E004F0E0C3D4
:10DF56009403500E90000074FFF022300A04D20B96
:03DF6600C20A22CA
:10DE9C00759701E4F594F593F592F591F596F59552
:10DEAC00F5B2F5B175B420F5B375CA10F5C9F5CC5A
:10DEBC00F5CBF5E2F5E112E6B512ECE512ECB71292
:10DECC00ED0ED2AF12E991EF645160187D3FE4FF83
:10DEDC0012E80D7F0512EA3B7F0112EAE17F021284
:10DEEC00EAB980E0E49001B0F0A3F0A3F0A3F07FD6
:09DEFC00309002EDE4F0A3DFFC1C
:01DF050022F9
:10ECCF00D2C020C0107F3212002E12ED887F321278
:06ECDF00002E12E83922AC
:10E72600E49001E2F0A3F09001E2F09001E2E0C390
:10E73600940A502212DFDCEF645360127F0312EA60
:10E74600B99001E3E004F0E0D3945040DE2290015A
:07E75600E2E004F080D5D3DE
:01E75D002299
:10E96400E49001ECF0F09001ECE0FFC39418501C2B
:10E9740074B42FF582E43401F583E0FF12EDFA7FDD
:0CE984000512EAB99001ECE004F080DA22
:01E990002264
:10E8A2007FFC12EDFA7F0112E7CE7FFE12EDFA7FB6
:10E8B2000112E7CE78E27C017D017BFF7AEB79776A
:10E8C2001224A27B017A0179E212E54FBF140312EE
:02E8D200E964F7
:01E8D4002221
:10E67B0078E27C017D017BFF7AEB797F1224A27B10
:10E68B00017A0179E212E54FBF141E9002CC74108F
:10E69B00F09001B4E090027AF09001B5E09002792D
:09E6AB00F09001BEE09001ABF01B
:01E6B4002243
:08E12600E004F0E0FF12E9073C
:10E12E0090027AE09001B4F0900279E09001B5F09F
:10E13E009001ABE09001BEF078E37C017D017BFFA6
:10E14E007AEB797F1224A27B017A0179E37DFF12AB
:10E15E00D99FBF14167B017A0179E37F007E007D83
:0BE16E00007C0012E3859001E2EFF05E
:01E179002283
:109E1000E4900245F0900245E0FF24D5F582E43459
:109E200002F583E0FE74AB2FF582E43402F583EE95
:109E3000F0900245E004F0E0B408DA12CFE97F00C8
:109E40007E9412ECFB75E8FF7F0112002EE4900275
:109E500045F0E4900246F0900245E0FFC374079F8E
:109E6000FFE49400FE74AB2FF58274023EF583E0AC
:109E7000FF900246E0C39F500D7F0112ED2090023B
:109E800046E004F080D1900245E0FFC374079FFFD5
:109E9000E49400FE74CD2FF58274023EF583E05207
:109EA000E8900245E004F0E0C3940840A59002CB9E
:109EB000E060FAE4900245F0900245E0FF24DDF511
:109EC00082E43402F583E0FE74AB2FF582E43402C1
:109ED000F583EEF0900245E004F0E0B408DA12CF2A
:109EE000E97F007E9412ECFB75F8FF7F0112002ED3
:109EF000E4900245F0E4900246F0900245E0FFC392
:109F000074079FFFE49400FE74AB2FF58274023E49
:109F1000F583E0FF900246E0C39F500D7F0112EDF4
:109F200020900246E004F080D1900245E0FFC37427
:109F3000079FFFE49400FE74CD2FF58274023EF576
:109F400083E052F8900245E004F0E0C3940840A595
:109F50009002CBE060FAE4900245F0900245E0FF09
:109F600024E5F582E43402F583E0FE74AB2FF5823C
:109F7000E43402F583EEF0900245E004F0E0B4082A
:109F8000DA12CFE975A0FF7F007E9412ECFB7F010F
:109F900012002EE4900245F0E4900246F090024553
:109FA000E0FFC374079FFFE49400FE74AB2FF582BB
:109FB00074023EF583E0FF900246E0C39F500D7FA0
:109FC0000112ED20900246E004F080D1900245E0BD
:109FD000FFC374079FFFE49400FE74CD2FF58274D5
:109FE000023EF583E052A0900245E004F0E0C39405
:109FF0000840A59002CBE060FAC28C30121E90039C
:10A0000024E0B4011712912D900325E0B4010D7BDB
:0CA01000017A0079017D017C0012DF9ACA
:01A01C002221
:10009600E49001E1F012DE9C7F0312EA3B12E67B5C
:1000A60012D5DA12ECCF9001ABE0FF12E9077F011F
:1000B60012EA117D3CE4FF12E80D7B017A0079011A
:1000C60012DF69E4900325F0C2119001B0F0A3F0AD
:1000D600A3F0A3F0D2A8C2149001B0E0FEA3E0FF03
:1000E600A3E06E7003A3E06F602BC2A8C28E12E776
:1000F60026501912E8A27D3DE4FF12E80D7F031297
:10010600E7CE1242DA7D3EE4FF12E80DD2A8C21411
:10011600E49001E1F0200E03020375C2A8C28E909E
:1001260001D5E0FEA3E0FFEE600302029DEF12237D
:1001360083016B64017A6501926601B16701BC684F
:1001460001C76901D96A01EB6B01FF6C02136D02ED
:10015600206E022D6F023C70024B78027779028581
:100166007A0000029D7D10E4FF12D72EE49001D79D
:10017600F002036A9001D7E0B4010C7D017F0512FD
:10018600E80D127F7D801B12A42480169001D7E013
:10019600B4010C7D037F0512E80D12823280031232
:1001A60084E69001D77401F002036A12E8047F0125
:1001B6001270C802036A12E8047F01126D8E0203F0
:1001C6006AE49001D7F07D057F0512E80D1230A094
:1001D60002036AE49001D7F07D077F0512E80D124D
:1001E6002BD002036AE49001D7F07D067F0512E862
:1001F6000D7F0112540902036AE49001D7F07D06CF
:100206007F0512E80D7F011257EC02036A7D0F7F0E
:100216000512E80D12B80402036A7D0F7F0512E885
:100226000D12B98C02036A7D0A7F0512E80D7F0163
:10023600127A0502036A7D0A7F0512E80D7F011214
:100246007CC302036AD2CD30CD047F05801D9001A8
:10025600AEE070047F0180027F009001AEEFF07087
:1002660006C2127F018004D2127F0212EA3B020309
:100276006A9001ABE0C3941E501312E126800E90E3
:1002860001ABE0D394014005E01412E1287D41E47E
:10029600FF12E80D02036A90019BE0FFC394005031
:1002A6000302036AEFD39463400302036AE49002F5
:1002B6004EF0A3F0A3F0A3F0A3F0A3F0A3F0A3F0F5
:1002C600A3F0A3F0A3F0A3F0A3F0A3F0A3F0A3F090
:1002D600A3F0A3F0A3F0A3F0A3F0A3F0A3F0A3F080
:1002E600A3F0A3F0A3F0A3F0A3F0A3F0A3F0A3F070
:1002F600A3F0A3F0A3F0A3F0A3F0A3F0A3F0A3F060
:10030600A3F0A3F0FBFAFDFCFFFE12B1DD7D0A7C33
:10031600007F0A7E0012878F90019BE0FFC3940A3C
:100326005003EF802890019BE0FF75F00A84C3EF2D
:1003360095F075F00A842464FDE4FF12E80D7F4B06
:1003460012EAB990019BE075F00A84E5F02464FD99
:10035600E4FF12E80D7F4B12EAB990019BE0FF7EA5
:1003660000123E5DD2A8C214C20EE49001E1F03044
:10037600120312912D7F5512EC54125BCF12DF0639
:10038600900000E0FFF47003020786C2A8C28EE464
:10039600900008F0A374FFF0301003020525EF2447
:1003A600E470030204D524FC70030204E424FC7008
:1003B600030207362423B42A004003020778900379
:1003C600D275F003A4C58325F0C5837302045002D9
:1003D600046A02047502048E0204990204A8020447
:1003E600B70204C602077802077802077802077880
:1003F6000207780207780207780207780207780270
:10040600077802077802077802077802077802075A
:1004160078020778020778020778020778020778D9
:10042600020778020778020778020778020778023F
:1004360007780207780207780204E70204F8020444
:10044600FB0204FE02051F0205229001D7E0B4015B
:100456000D7D017F0512E80D127F7D02059312A422
:100466002402059312E809E49001D7F0020575907D
:1004760001D7E0B4010C7D037F0512E80D1282322C
:1004860080031284E602059312E809E49001D7F08E
:1004960002059F7D057F0512E80DE49001D7F00265
:1004A60005B37D067F0512E80DE49001D7F002053D
:1004B600C57D077F0512E80DE49001D7F00205D946
:1004C6007D067F0512E80DE49001D7F00205EB905A
:1004D60001ABE0C3941E501712E126020750020733
:1004E6002A9001ABE0D394014005E01412E1280202
:1004F6000750020759020767D2CD30CD030205F82F
:100506009001AEE070047F0180027F009001AEEFA3
:10051600F0700302060F02061502061F020633904C
:100526000000E012238305F328061F2906332A0755
:10053600782B07782C07782D055A33057234057DFC
:1005460035059C3605A73705B93805CD3905DF3A97
:100556000000063D9001D7E0B4010C7D017F051235
:10056600E80D127F7D800312A424802112E8047F07
:1005760001126D8E0207789001D7E0B4010C7D035D
:100586007F0512E80D12823280031284E69001D7AD
:100596007401F002077812E8047F011270C802079E
:1005A60078E49001D7F07D057F0512E80D1230A0A2
:1005B600020778E49001D7F07D067F0512E80D7FEB
:1005C600011257EC020778E49001D7F07D077F050A
:1005D60012E80D122BD0020778E49001D7F07D06C1
:1005E6007F0512E80D7F01125409020778D2CD303B
:1005F600CD047F05801D9001AEE070047F0180026E
:100606007F009001AEEFF07006C2127F018004D227
:10061600127F0212EA3B0207787F0112EA3B7D1441
:100626007F0512E80D7F0312BEFB0207737F0112DE
:10063600EA3BB210020778900000E0C39419400329
:10064600020703E490024EF0A3F0A3F0A3F0A3F098
:10065600A3F0A3F0A3F0A3F0A3F0A3F0A3F0A3F0FC
:10066600A3F0A3F0A3F0A3F0A3F0A3F0A3F0A3F0EC
:10067600A3F0A3F0A3F0A3F0A3F0A3F0A3F0A3F0DC
:10068600A3F0A3F0A3F0A3F0A3F0A3F0A3F0A3F0CC
:10069600A3F0A3F0A3F0A3F0A3F0FBFAFDFCFFFE8A
:1006A60012B1DD7D0A7C007F0A7E0012878F9000E2
:1006B60000E0FFC3940A5003EF8028900000E0FF9B
:1006C60075F00A84C3EF95F075F00A842464FDE49E
:1006D600FF12E80D7F4B12EAB9900000E075F00AB0
:1006E60084E5F02464FDE4FF12E80D7F4B12EAB9BD
:1006F600900000E0FF7E00123E5D02077890000049
:10070600E024E0601F24FC60271460301460441469
:10071600604F240B705C9001ABE0C3941E50031233
:10072600E12680267D0F7F0512E80D12B98C8042E6
:100736007D0F7F0512E80D12B80480369001ABE0FC
:10074600D394014005E01412E1287D41E4FF12E84C
:100756000D801F7D0A7F0512E80D7F01127CC38084
:100766000C7D0A7F0512E80D7F01127A05E49001DF
:10077600D7F012DE31D2A8C214E49001E1F080165F
:10078600300B13C2A8C28EE49001D7F0C20B7D10C5
:10079600FF12D72ED2A82014030200DEC2A8C28EF2
:1007A600900334E012238308AB0008EF010911021D
:1007B600091D03089A0408DE05090E06091A07082A
:1007C600890808CD09090B0A09170B08780C08BC1B
:1007D6000D09000E09140F09EC100AFD110BE612A3
:1007E6000EA71309FF140A12150A7B160CDB17094C
:1007F600D9180A88190B721A0CA21B0C641F095807
:100806004009A14109B84209C643094544098E4534
:10081600084746093148097A4909204C09694D09B2
:10082600B24E09B54F0E6B500EB5510D86540E31B2
:10083600550D4D580DF8590D145C0DBF5D00000F98
:100846003CE49001E1F0D2CD30CD047F05801D90CF
:1008560001AEE070047F0180027F009001AEEFF0F0
:100866007006C2127F018004D2127F0212EA3B0296
:100876000F3CE49001E1F07D34FF12E80D12CF1A2F
:10088600020F3CE49001E1F07D35FF12E80D12D72E
:10089600D7020F3CE49001E1F07D36FF12E80D121D
:1008A600D300020F3CE49001E1F07D33FF12E80D26
:1008B60012EBBB020F3CE49001E1F07D12FF12E85F
:1008C6000D12C627020F3CE49001E1F07D13FF12E2
:1008D600E80D12C741020F3CE49001E1F07D14FFE0
:1008E60012E80D12B804020F3CE49001E1F07D1508
:1008F600FF12E80D12B98C020F3CE49001E1F012F0
:100906000F43020F3C020F37020F37020F37020F59
:1009160037020F37020F37020F37E49001E1F07DFF
:100926000EFF12E80D1230A0020F3CE49001E1F038
:100936007D0CFF12E80D12AC0012770F020F3CE49B
:100946009001E1F07D05FF12E80D7F041247410298
:100956000F3CE49001E1F07D10FF12E80D12257ABC
:10096600020F3CE49001E1F07D0FFF12E80D122B1F
:10097600D0020F3CE49001E1F07D0DFF12E80D126C
:10098600A228129599020F3CE49001E1F07D08FF40
:1009960012E80D7F0412BDB4020F3CE49001E1F0B1
:1009A6007D11FF12E80D124B9E020F3C020F37021B
:1009B6000F379001ABE0C3941E501312E126800E50
:1009C6009001ABE0D394014005E01412E1287D418B
:1009D600020CA0E49001E1F07D01FF12E80D7F0119
:1009E6001270C8020A98E49001E1F07D03FF12E854
:1009F6000D7F01126D8E020A98E49001E1F07D02EE
:100A0600FF12E80D7F0512D178020F3CE49001E158
:100A1600F090024EF0A3F0A3F0A3F0A3F0A3F0A38E
:100A2600F0A3F0A3F0A3F0A3F0A3F0A3F0A3F0A328
:100A3600F0A3F0A3F0A3F0A3F0A3F0A3F0A3F0A318
:100A4600F0A3F0A3F0A3F0A3F0A3F0A3F0A3F0A308
:100A5600F0A3F0A3F0A3F0A3F0A3F0A3F0A3F0A3F8
:100A6600F0A3F0A3F0A3F0FBFAFDFCFFFE12B1DD4C
:100A76007D1E020C58E49001E1F07F0412D23C0284
:100A86000F3CE49001E1F07D04FF12E80D7F0112B6
:100A96005409E490024EF0A3F0A3F0A3F0A3F0A350
:100AA600F0A3F0A3F0A3F0A3F0A3F0A3F0A3F0A3A8
:100AB600F0A3F0A3F0A3F0A3F0A3F0A3F0A3F0A398
:100AC600F0A3F0A3F0A3F0A3F0A3F0A3F0A3F0A388
:100AD600F0A3F0A3F0A3F0A3F0A3F0A3F0A3F0A378
:100AE600F0A3F0A3F0A3F0A3F0FBFAFDFCFFFE12C7
:100AF600B1DD7D14020C58E49001E1F07D06FF1291
:100B0600E80D7F011257ECE490024EF0A3F0A3F03B
:100B1600A3F0A3F0A3F0A3F0A3F0A3F0A3F0A3F037
:100B2600A3F0A3F0A3F0A3F0A3F0A3F0A3F0A3F027
:100B3600A3F0A3F0A3F0A3F0A3F0A3F0A3F0A3F017
:100B4600A3F0A3F0A3F0A3F0A3F0A3F0A3F0A3F007
:100B5600A3F0A3F0A3F0A3F0A3F0A3F0A3F0FBFA95
:100B6600FDFCFFFE12B1DD7D14020C58E49001E19C
:100B7600F07D07FF12E80D7F01127A05E490024E20
:100B8600F0A3F0A3F0A3F0A3F0A3F0A3F0A3F0A3C7
:100B9600F0A3F0A3F0A3F0A3F0A3F0A3F0A3F0A3B7
:100BA600F0A3F0A3F0A3F0A3F0A3F0A3F0A3F0A3A7
:100BB600F0A3F0A3F0A3F0A3F0A3F0A3F0A3F0A397
:100BC600F0A3F0A3F0A3F0A3F0A3F0A3F0A3F0A387
:100BD600F0A3F0FBFAFDFCFFFE12B1DD7D1480727E
:100BE600E49001E1F07D09FF12E80D7F01127CC35C
:100BF600E490024EF0A3F0A3F0A3F0A3F0A3F0A3B9
:100C0600F0A3F0A3F0A3F0A3F0A3F0A3F0A3F0A346
:100C1600F0A3F0A3F0A3F0A3F0A3F0A3F0A3F0A336
:100C2600F0A3F0A3F0A3F0A3F0A3F0A3F0A3F0A326
:100C3600F0A3F0A3F0A3F0A3F0A3F0A3F0A3F0A316
:100C4600F0A3F0A3F0A3F0FBFAFDFCFFFE12B1DD6A
:100C56007D147C007F0A7E0012878F020F3C900174
:100C6600E1E004F0E0FBB4010C9001DBE4F0A30446
:100C7600F07D658025EBB4020C9001DDE4F0A30461
:100C8600F07D65804E9001E1E0B4030C9001DFE455
:100C9600F0A304F07D6580027D7080379001E1E06D
:100CA60004F0E0FBB401059001DB8007EBB4020D14
:100CB6009001DDE4F0A37402F07D66804F9001E1BF
:100CC600E0B4030D9001DFE4F0A37402F07D6680CA
:100CD600027D7080379001E1E004F0E0FBB401058D
:100CE6009001DB8007EBB4020D9001DDE4F0A37404
:100CF60003F07D67804F9001E1E0B4030D9001DFC2
:100D0600E4F0A37403F07D6780027D708037900164
:100D1600E1E004F0E0FBB401059001DB8007EBB4F1
:100D2600020D9001DDE4F0A37404F07D68804F901D
:100D360001E1E0B4030D9001DFE4F0A37404F07D5B
:100D46006880027D7080379001E1E004F0E0FBB43A
:100D560001059001DB8007EBB4020D9001DDE4F0A4
:100D6600A37405F07D69804F9001E1E0B4030D9016
:100D760001DFE4F0A37405F07D6980027D708037A1
:100D86009001E1E004F0E0FBB401059001DB80078F
:100D9600EBB4020D9001DDE4F0A37406F07D6A80E9
:100DA6004F9001E1E0B4030D9001DFE4F0A3740677
:100DB600F07D6A80027D7080379001E1E004F0E00A
:100DC600FBB401059001DB8007EBB4020D9001DD59
:100DD600E4F0A37407F07D6B804F9001E1E0B4036B
:100DE6000D9001DFE4F0A37407F07D6B80027D7047
:100DF60080379001E1E004F0E0FBB401059001DBEF
:100E06008007EBB4020D9001DDE4F0A37408F07DD9
:100E16006C804F9001E1E0B4030D9001DFE4F0A394
:100E26007408F07D6C80027D7080379001E1E004EB
:100E3600F0E0FBB401059001DB8007EBB4020D90F6
:100E460001DDE4F0A37409F07D6D80169001E1E008
:100E5600B4030D9001DFE4F0A37409F07D6D800208
:100E66007D70E4803A9001E1E004F0E0FBB4010B10
:100E7600E49001DBF0A3F07D648024EBB4020BE484
:100E86009001DDF0A3F07D64801E9001E1E0B403E3
:100E96000BE49001DFF0A3F07D6480037D70E480B5
:100EA60007E49001E1F07D6EFF12E80D020F3C9021
:100EB60001E1E0FB70047D708073EBB4010A9001E0
:100EC600DBE0FEA3E0FF805D9001E1E0B4021D904F
:100ED60001DBE0FEA3E0FF7C007D0A1221AC90015D
:100EE600DEE02FFF9001DDE03EFE80399001E1E07B
:100EF600B403379001DDE0FEA3E0FF7C007D0A121B
:100F060021ACAA06AB079001DBE0FEA3E0FF7D64FF
:100F16001221ACEF2BFFEE3AFE9001E0E02FFF909E
:100F260001DFE03EFE123E5D80077D70E4FF12E8C1
:0D0F36000DE49001E1F0D2A8C2140200DE2B
:0300230002E0D127
:10E0D100C0E0C083C082C0D075D000C0063098387F
:10E0E100C2989001B0E0FEA3E0240BF58274003EDB
:10E0F100F583E599F09001B1E004F070069001B06C
:10E10100E004F09001B0E0B40110A3E0B4900B90F2
:10E1110001B0E4F0A3F08002C299D006D0D0D08241
:05E12100D083D0E032C4
:0300430002C85B95
:10C85B00C0E0C083C082C0D075D000C005C006C088
:10C86B0007E59A20E00302C956539AFE90000AE0AE
:10C87B00FF249BF582E43401F583E59BF0EFC39431
:10C88B00025020749B2FF582E43401F583E0900075
:10C89B000AB4FF05E004F08002E4F09001AAE4F092
:10C8AB0002C95990000AE0FFC39404502C749B2FCB
:10C8BB00F582E43401F583E0FF9001AAE02FF090BC
:10C8CB00000AE004F0E06404600302C95990019E81
:10C8DB00E024049001A9F080759001A9E0FF90007D
:10C8EB000AE0FEC39F501A749B2EF582E43401F5C7
:10C8FB0083E0FF9001AAE02FF090000AE004F080A3
:10C90B004D749B2EF582E43401F583E0FF9001AA70
:10C91B00E06F703090019DE0B4012790019FE0FF24
:10C92B009001D5E4F0A3EFF0E07F00FE9001D5F08D
:10C93B00A3EFF09001A0E0FDEDFF9001D5EEF0A389
:10C94B00EFF0D20E90000AE4F08003539AFDD0076B
:0DC95B00D006D005D0D0D082D083D0E032FD
:03008B0002EBDCA9
:10EBDC00C0E0C083C082E5AC30E00B53ACFE9001CA
:10EBEC00ACE5ADF0800353ACFDD082D083D0E032E5
:0300930002EB5528
:10EB5500C0E0C083C082E58430E00D5384FE90019F
:10EB6500ADE585F0D20F80035384FDD082D083D0EC
:02EB7500E0328C
:10ED2000E4FEEEC39F500AE4FD0DEDB401FB0E803E
:01ED3000F1F1
:01ED310022BF
:10ED3200E4FEEEC39F500AE4FD0DEDB40BFB0E8022
:01ED4200F1DF
:01ED430022AD
:02EC5400AC070B
:10EC5600E4FBEBC39C500FE4FA7F0B12ED320AEA99
:06EC6600B401F60B80EC86
:01EC6C002285
:10002E00E4FEEEC39F500B7D067C01DCFEDDFC0E74
:02003E0080F050
:01004000229D
:02EC6D00AC07F2
:10EC6F00E4FBEBC39C500FE4FA7F7A12ED320AEA11
:06EC7F00B401F60B80EC6D
:01EC8500226C
:05EAB900900248EFF09F
:10EABE00E4A3F0900248E0FFA3E0C39F5014E4F9F2
:10EACE007F0A12EC6D09E9B401F6900249E004F0F8
:02EADE0080E1D5
:01EAE0002213
:05EAE100900248EFF077
:10EAE600E4A3F0900248E0FFA3E0C39F5014E4F9CA
:10EAF6007F0A12EC6D09E9B432F6900249E004F09F
:02EB060080E1AC
:01EB080022EA
:05E7CE0090021DEFF0B8
:10E7D300E490021FF090021DE0FF90021FE0C39F30
:10E7E300501EE490021EF07F6412EAB990021EE00C
:10E7F30004F0E0C3940140EF90021FE004F080D5E1
:01E8030022F2
:10EB99002F534852312F2564002F534852302F30BC
:10EBA900002F534852302F2564002F534852302FDD
:02EBB900310029
:10DFC80012DFDC9001E2E4F0A3EFF0E0F8E4F0E81F
:04DFD8009001E2F0E2
:10DFDC009001B0E0FEA3E0FF9001B2E0FCA3E0FDF5
:10DFEC006F7002EC6E60E9740B2DF58274003CF5D9
:10DFFC0083E0FF9001B3E004F070069001B2E004FE
:10E00C00F09001B2E0B4010CA3E0B49007E49001ED
:04E01C00B2F0A3F0CB
:01E0200022DD
:10E9360074D52FF582E43402F583E0FBEDC39BFD2D
:10E94600E49400FCEF25E0247BF582E43402F583B1
:0EE95600ECF0A3EDF0E4FDFC7F23FE02878FC2
:1042DA00E49001E2F0A3F0C20012DFDCEF64FD60BB
:1042EA000302473A12DFDC9001F4EFF02403700373
:1042FA0002455A24FCB40A00400302473A90431587
:10430A0075F003A4C58325F0C583730243330243C2
:10431A00F002440A0244860245EF02473A024688FE
:10432A000246900246E102473812DFC89001E2E0F5
:10433A00F0A3E04FF0E49001F4F012DFDC9001F416
:10434A00E024B4F582E43401F583EFF09001F4E05F
:10435A0004F0E0C3942040E290020674FFF0A374D4
:10436A00EBF0A37499F09001E2E0FFA3E090020958
:10437A00CFF0A3EFF07B017A0179E4123A3F7B0197
:10438A007A0179E47DFF12D99FBF140D7F6812ED7F
:10439A00A99001F0122326800A9001F0122332001C
:1043AA00000000E47F20FEFDFC9001F0E0F8A3E0AD
:1043BA00F9A3E0FAA3E0FBC31222CF7B017A0179C9
:1043CA00E440109001F0E0FCA3E0FDA3E0FEA3E0CE
:1043DA00FF80087F007E007D007C0012E38590014B
:1043EA00F4EFF002473A12DFDC9001F4EFF012DF4B
:1043FA00DCAE079001F4E0FFAD0612E93602473A57
:10440A00E49001F4F09001F4E0FFC394205032EFFD
:10441A00C39418501412DFDC9001F4E024B4F5823E
:10442A00E43401F583EFF080109001F4E024B4F550
:10443A0082E43401F583747DF09001F4E004F080A5
:10444A00C478E47C017D017BFF7AEB79A21224A275
:10445A007B017A0179E47DFF12D99FBF14167B0193
:10446A007A0179E47F007E007D007C0012E385906A
:10447A0001F4EFF07F0112EA1102468412DFC890BC
:10448A0001E2E0FEA3E04FFF9001E2EEF0FEA3EFAF
:10449A00F090020674FFF0A374EBF0A37499F0A3F2
:1044AA00EEF0A3EFF07B017A0179E4123A3F7B0147
:1044BA007A0179E47DFF12D99FBF140D7F6812ED4E
:1044CA00A99001F0122326800A9001F012233200EB
:1044DA000000007FFD12EDFA7FFD12EDFA7FFD125A
:1044EA00EDFA7FFD12EDFA7F0112EDFA9001E2E09A
:1044FA00FF12EDFA9001E2A3E0FF12EDFAE47F2049
:10450A00FEFDFC9001F0E0F8A3E0F9A3E0FAA3E0D5
:10451A00FBC31222CF400E7B017A0179E412C968EB
:10452A009001F4EFF07F0212EAB97F0112EA3B7FB1
:10453A00FB12EDFA7F0212EAE17FFB12EDFA7F022B
:10454A0012EAE17FFB12EDFA7F0212EAE1024684E7
:10455A0012DFDCEF64FE600302473A12DFC8900103
:10456A00E2E0F0A3E04FF07F0112EA3B7FFC12ED9C
:10457A00FA90020674FFF0A374EBF0A37499F0901A
:10458A0001E2E0FFA3E0900209CFF0A3EFF07B0184
:10459A007A0179E4123A3F7B017A0179E412D876FA
:1045AA0090020674FFF0A374EBF0A374AAF0A3744C
:1045BA0002F07B017A0179E4123A3F7B017A0179B0
:1045CA00E47DFF12D99FBF140D7F6812EDA99001F7
:1045DA00F0122326800A9001F01223320000000014
:1045EA007FFC02468AE49001E2F0A3F09001E2E047
:1045FA00FEA3E0FFE4FCFD7BFF7AFFF9F8D3122269
:10460A00B94043900206EBF0A374EBF0A37499F05F
:10461A009001E2E0FFA3E0900209CFF0A3EFF07B64
:10462A00017A0179E4123A3F7B017A0179E412D8DE
:10463A00767F0112EA3B9001E3E004F070AE90014C
:10464A00E2E004F080A690020674FFF0A374EBF097
:10465A00A37499F09001E2E0FFA3E0900209CFF081
:10466A00A3EFF07B017A0179E4123A3F7B017A01E8
:10467A0079E412D8767F0412EA3B7FFB80027FFD41
:10468A0012EDFA02473AE49001F4F012DFDC9001ED
:10469A00F4E0FD24D5F582E43402F583E0FBC3EFB0
:1046AA009BFFE49400FEED25E0247BF582E43402CE
:1046BA00F583EEF0A3EFF09001F4E004F0E0C39488
:1046CA001840C812DFDC9001F4EFF0FD7C007F286F
:1046DA007E0012878F805912DFDC9001B4EFF0124E
:1046EA00DFDC9001B5EFF09001ABE09001BEF0780D
:1046FA00E47C017D017BFF7AEB79B31224A27B0172
:10470A007A0179E47DFF12D99FBF14167B017A01E1
:10471A0079E47F007E007D007C0012E3859001F43D
:10472A00EFF07FFB12EDFA7F0212EA3B8002D20021
:06473A002000030242E32F
:014740002256
:0B5FA300900203EBF0A3EAF0A3E9F08A
:105FAE00900209E0D394005003026356900203E07E
:105FBE00FBA3E0FAA3E0F912230690020C122326AB
:105FCE0090020CE0FCA3E0FDA3E0FEA3E0FF12E6CE
:105FDE004B900210EFF090022C7401F0A37402F0BB
:105FEE00A3740AF07B017A0179B47D207C0012DB68
:105FFE00D6900210EFF09002137401F0900212741A
:10600E0080F0E4900210F0A3F0900213E0FFB401D0
:10601E0025900210E0A3F0FD24B8F582E43401F5DA
:10602E0083E0FBED25E0247BF582E43402F583E486
:10603E00F0A3EBF0803CEF900210B40211E0FF24CD
:10604E0008FEA3F074C02FF582E43401800FE0FF48
:10605E002410FEA3F074C82FF582E43401F583E01A
:10606E00FDEE25E0247BF582E43402F583E4F0A313
:10607E00EDF0900213E024B4F582E43401F583E0F0
:10608E00FF900212E0FEEF5EB5062D900211E0FFCA
:10609E0025E0247BF582E43402F583E0FCA3E0FDE9
:1060AE00C3E49DFDE49CFCEF25E0247BF582E43403
:1060BE0002F583ECF0A3EDF0900211E0FF25E02451
:1060CE007BF582E43402F583E0FDA3E0900214CD6B
:1060DE00F0A3EDF0EF25E0247BF582E43402F583A6
:1060EE00C083C082E0FEA3E0FF900211E0FD25E038
:1060FE0024EDF582E43402F583E0FAA3E0FBC3EF6E
:10610E009BFFEE9AD082D083F0A3EFF0900214E0C2
:10611E00FEA3E0FFED25E024EDF582E43402F583E5
:10612E00EEF0A3EFF0900212E0FFC313F090021016
:10613E00E004F0E064086003026017900213E004CC
:10614E00F0E06404600302600A9001D2E02404606F
:10615E000F0470159001D3E0B4FB1912ED448014B6
:10616E009001D3E0B4FC0D800B9001D2E0FFA3E0D0
:10617E00FD12E80D9001D0E02438B41D004003025A
:10618E00628390619E75F003A4C58325F0C5837369
:10619E000261F50261FE02620602620E02621502E1
:1061AE00621C02622302622A0262310262380262B9
:1061BE003F02624402624902624E02625302625818
:1061CE0002625D02626202626702626F02627702BF
:1061DE00627C02629002629002629002629002629F
:1061EE009002629002629012257A124B9E02629089
:1061FE007F011270C80262907F0212D17802629003
:10620E007F01126D8E807B7F0112540980747F0492
:10621E00124741806D7F011257EC80667F01127A22
:10622E0005805F7F0312BDB480587F01127CC3804E
:10623E005112D52B804C12D684804712EBBB804274
:10624E0012CF1A803D12D300803812D7D780331266
:10625E0030A0802E122BD0802912AC0012770F8026
:10626E002112A228129599801912D3BD80147F0293
:10627E0012D23C800D9001D0E0FD7C00FF7E00121A
:10628E00878FE4900210F09001D1E0FF900210E0B1
:10629E00C39F500D7F0A12EAB9900210E004F080FD
:1062AE00E69001D0E0C394C84047E4900210F0900D
:1062BE000210E0FFC394185038E0FE24B3F582E4D8
:1062CE003402F583E0FD74D52EF582E43402F583B5
:1062DE00E0C39DFDE49400FCEF25E024EDF582E49F
:1062EE003402F583ECF0A3EDF0900210E004F080A0
:1062FE00BE90020CE0F8A3E0F9A3E0FAA3E0FB9055
:10630E00020AE0FEA3E0FFE4FCFDEB2FFFEA3EFEF7
:10631E00ED39FDEC38FCA3122326900206E0FBA318
:10632E00E0FAA3E0F912230690020CE0F8A3E0F9DC
:10633E00A3E0FAA3E0FBD31222CF5003025FCE906C
:08634E000209E014F0025FAE49
:016356002224
:083E5D009001E2EEF0A3EFF08A
:103E650090020674FFF0A374EBF0A37499F090012F
:103E7500E2E0FFA3E0900209CFF0A3EFF07B017A27
:103E85000179E5123A3F7B017A0179E57DFF12D987
:103E95009FEF6414600280257F6812EDA99001F1FF
:103EA500122326E47F20FEFDFC9001F1E0F8A3E05B
:103EB500F9A3E0FAA3E0FBC31222CF50077D71E41A
:103EC500FF02E80D7D6FE4FF12E80D7F8212EAB96B
:103ED5009001FD12233200000000E49001E4F0900F
:103EE50001FDE0FCA3E0FDA3E0FEA3E0FF12E64B2D
:103EF5009001E5EFF090022C7401F0A37401F0A39A
:103F050074E2F07B017A0179B47D207C0012DBD666
:103F15009001E5EFF07401F09001E67480F0E4A300
:103F2500F0A3F09001E7E0FFC39408400302404D81
:103F35009001E5E0FEB4010E9001E8EFF024B8F53C
:103F450082E43401802BEE9001E7B40213E02408EB
:103F5500FFA3F09001E7E024C0F582E4340180116D
:103F6500E02410FFA3F09001E7E024C8F582E434D3
:103F750001F583E0FDEF25E0247BF582E43402F5CD
:103F850083E4F0A3EDF09001E5E024B4F582E43498
:103F950001F583E0FF9001E6E0FEEF5EB5062D90AA
:103FA50001E8E0FF25E0247BF582E43402F583E0B7
:103FB500FCA3E0FDC3E49DFDE49CFCEF25E0247B30
:103FC500F582E43402F583ECF0A3EDF09001E8E02E
:103FD500FF25E0247BF582E43402F583E0FDA3E0D0
:103FE500900201CDF0A3EDF0EF25E0247BF582E40E
:103FF5003402F583C083C082E0FEA3E0FF9001E8B0
:10400500E0FD25E024EDF582E43402F583E0FAA332
:10401500E0FBC3EF9BFFEE9AD082D083F0A3EFF0D5
:10402500900201E0FEA3E0FFED25E024EDF582E43A
:104035003402F583EEF0A3EFF09001E6E0FFC31341
:10404500F0A3E004F0023F289001E5E004F0E0640D
:10405500046003023F1D9001D2E02404600F047048
:10406500159001D3E0B4FB1912ED4480149001D3EF
:10407500E0B4FC0D800B9001D2E0FFA3E0FD12E857
:104085000D9001D0E02438B41D0040030241879013
:1040950040A275F003A4C58325F0C583730240F9DA
:1040A50002410202410A0241120241190241200263
:1040B500412702412E02413502413C024143024162
:1040C5004802414D02415202415702415C024161A1
:1040D50002416602416B02417302417B024180024B
:1040E5004194024194024194024194024194024157
:1040F5009402419412257A124B9E0241947F01123B
:1041050070C80241947F0212D1780241947F011256
:104115006D8E807B7F0112540980747F04124741A4
:10412500806D7F011257EC80667F01127A05805FF2
:104135007F0312BDB480587F01127CC3805112D514
:104145002B804C12D684804712EBBB804212CF1ACB
:10415500803D12D300803812D7D780331230A0802B
:104165002E122BD0802912AC0012770F802112A2BB
:1041750028129599801912D3BD80147F0212D23C62
:10418500800D9001D0E0FD7C00FF7E0012878FE45A
:104195009001E5F09001D1E0FF9001E5E0C39F506B
:1041A5000D7F0A12EAB99001E5E004F080E690017E
:1041B500B4E0FBD3948040229001E4E0706A900162
:1041C500FDE0FCA3E0FDA3E0FEA3E0FF9001F512F6
:1041D50023269001E47401F0804EEBD3940040480F
:1041E5009001B4E0948050409001E4E0B40139902E
:1041F50001FDE0FCA3E0FDA3E0FEA3E0FF9001F9D3
:104205001223269002067401F0A37401F0A374F939
:10421500F09001B4E014900209F07B017A0179F580
:10422500125FA3E49001E4F09001D0E0C394C8408C
:1042350047E49001E5F09001E5E0FFC3941850389C
:10424500E0FE24B3F582E43402F583E0FD74D52E57
:10425500F582E43402F583E0C39DFDE49400FCEFB0
:1042650025E024EDF582E43402F583ECF0A3EDF0CE
:104275009001E5E004F080BE9001FDE0F8A3E0F9CF
:10428500A3E0FAA3E0FB9001E2E0FEA3E0FFE4FC7B
:10429500FDEB2FFFEA3EFEED39FDEC38FC9001FD0C
:1042A5001223269001F1E0FCA3E0FDA3E0FEA3E0CC
:1042B500FF9001FDE0F8A3E0F9A3E0FAA3E0FBC35A
:1042C5001222CF5003023EE47D017F3612EDBD90F0
:0442D50001E5EFF020
:0142D90022C2
:108C130046032800000000000046031E0000000079
:108C23000000410326004103300341032E32410378
:108C33001D324103270041032F0141032400410357
:028C430025000A
:10ED8800759D07439720E4F5BDF5BE75BCE0D2AD8F
:01ED98002258
:0CEDD700900326E024E0F5BC43BC0822B9
:10E83900E4FD90032EE0FF900330E08FF0A4FFED9C
:10E84900C39FE5F06480F8748098501212EDD79058
:10E85900032FE070FA90032F7401F00D80D4900318
:04E86900247401F022
:01E86D002288
:10EBFC00E4FF900330E0FEEFC39E501212EDD7906D
:0EEC0C00032FE070FA90032F7401F00F80E4E4
:01EC1A0022D7
:03002B0002C2AF5F
:10C2AF00C0E0C0F0C083C082C0D075D000C000C055
:07C2BF0004C005C006C00722
:10C2C6009001D8E4F0A3F053BCEF900327E060039D
:10C2D60002C37FAFBD9001D8F0A3EFF0E0F8E4F021
:10C2E600E89001D8F0AFBEA3E02FF09001D8E0347B
:10C2F60000F0E0FEA3E0FF900326E025E02428F509
:10C3060082E43403F583EE8FF0122213900326E0C5
:10C3160004F0900330E0FF900326E0B50708E4F050
:10C3260090031DE014F090031DE0600302C3CC905F
:10C3360001DAF0900330E0FF9001DAE0FEC39F508F
:10C3460030EE25E02428F582E43403F583C083C06B
:10C3560082E0FEA3E0FF90032EE0FD7C001221BEEA
:10C36600D082D083EEF0A3EFF09001DAE004F08003
:10C37600C29003277401F0804DAFBD9001D8E4F060
:10C38600A3EFF0E0F8E4F0E89001D8F0AFBEA3E048
:10C396002FF09001D8E03400F0E0FEA3E0FF900318
:10C3A60026E025E0241EF582E43403F583EEF0A3AF
:10C3B600EFF0900326E004F0900330E0FF900326B0
:0BC3C600E0B50702E4F090032FE4F064
:10C3D100D007D006D005D004D000D0D0D082D083F1
:05C3E100D0F0D0E032B5
:10912D00E4900324F012EBFC90032DE02428FF9033
:10913D00032CE03400FED3900323E09F900322E044
:10914D009E407A90032BE024D8FF90032AE034FF51
:10915D00FEC3900321E09F900320E09E505FC2A8C4
:10916D00C28E7F3212002E9002DCE02428F0129E77
:10917D00107F0112EAE19002DCE024D8F0129E107B
:10918D007F0112EAE19003257401F0900324F0129F
:10919D009E10E4900247F0900247E0FFC3941850F0
:1091AD0018EF25E024EDF582E43402F583E4F0A315
:1091BD00F0900247E004F080DED2A8C21490032D97
:1091CD00E024D8FF90032CE034FFFEC3900323E08E
:1091DD009F900322E09E507A90032BE024D8FF90BD
:1091ED00032AE034FFFEC3900321E09F900320E0AB
:1091FD009E505FC2A8C28E7F3212002E9002DBE01D
:10920D0024D8F0129E107F0112EAE19002DBE024D7
:10921D0028F0129E107F0112EAE19003257401F0EF
:10922D00900324F0129E10E4900247F0900247E064
:10923D00FFC394185018EF25E024EDF582E43402B5
:10924D00F583E4F0A3F0900247E004F080DED2A8AD
:10925D00C214900329E024D8FF900328E034FFFEC8
:10926D00C390031FE09F90031EE09E506490032B5C
:10927D00E024D8FF90032AE034FFFEC3900321E0E1
:10928D009F900320E09E5049C2A8C28E7F321200EB
:10929D002E1295997F6412002E9003257401F09083
:1092AD000324F0129E10E4900247F0900247E0FF75
:1092BD00C394185018EF25E024EDF582E43402F53F
:1092CD0083E4F0A3F0900247E004F080DED2A8C260
:1092DD0014900329E02428FF900328E03400FED3E6
:1092ED0090031FE09F90031EE09E406490032BE0CF
:1092FD0024D8FF90032AE034FFFEC3900321E09FA2
:10930D00900320E09E5049C2A8C28E7F3212002EDB
:10931D0012770F7F6412002E9003257401F09003D5
:10932D0024F0129E10E4900247F0900247E0FFC334
:10933D0094185018EF25E024EDF582E43402F583FE
:10934D00E4F0A3F0900247E004F080DED2A8C2144E
:06935D009003247401F0EE
:0193630022E7
:05E9E700900339EFF080
:10E9EC00E4A3F0900339E0FFA3E0C39F5016C2C527
:10E9FC007F1E12EAB9D2C57F1E12EAB990033AE023
:04EA0C0004F080DFB3
:01EA100022E3
:05EA11009001F5EFF09B
:10EA1600E4A3F09001F5E0FFA3E0C39F5016C2C542
:10EA26007F1412EAB9D2C57F1412EAB99001F6E052
:04EA360004F080DF89
:01EA3A0022B9
:05EA3B009001F5EFF071
:10EA4000E4A3F09001F5E0FFA3E0C39F5016C2C518
:10EA50007F0A12EAB9D2C57F0A12EAB99001F6E03C
:04EA600004F080DF5F
:01EA6400228F
:05EA650090033BEFF0FF
:10EA6A00E4A3F090033BE0FFA3E0C39F5016C2C5A6
:10EA7A007F0512EAB9D2C57F0512EAB990033CE0D4
:04EA8A0004F080DF35
:01EA8E002265
:05EA8F0090033DEFF0D3
:10EA9400E4A3F090033DE0FFA3E0C39F5016C2C57A
:10EAA4007F0112EC6DD2C57F0112EC6D90033EE044
:04EAB40004F080DF0B
:01EAB800223B
:08EE15002F534852302F30004A
:108C45005802D500000000000000000000000000F0
:0F8C550000000000000000000000004102CB0002
:04E3C7007F157E0040
:08E3CB00900245EEF0A3EFF013
:10E3D300E4A3F0A3F0900245E0FEA3E0FFC39002A4
:10E3E30048E09FEE6480F8900247E06480985015FF
:10E3F3007F0112002E900248E004F070D89002478B
:05E40300E004F080D0F0
:01E4080022F1
:10ECB700438E805389F0E4F58A758C94C28DD2A96E
:08ECC700D2AF9002CB04F02251
:10ECFB00AD07AC06ECF58CAF058F8AE49002CBF038
:03ED0B00D28C2285
:03000B0002EC867E
:10EC8600C0E0C083C082758A00758C949002CB74F4
:09EC960001F0D082D083D0E032FD
:10E58C00E490021DF090027AE024FFFFE434FFFED9
:10E59C009002CCE0FD7C001221AC90021DE0C39FE8
:10E5AC00EE6480F874809850127F0112EAB97F01F2
:0BE5BC0012EAB990021DE004F080CAD2
:01E5C7002231
:10E48D00E490021DF090027AE0FF900279E0C39FC4
:10E49D00FFE49400FE9002CCE0FD7C001221AC90D4
:10E4AD00021DE0C39FEE6480F874809850127F01C6
:10E4BD0012EAB97F0112EAB990021DE004F080C59D
:01E4CD00222C
:10CFE900E4FFFD9002CD74FEF0A314F0A374FBF0EE
:10CFF900A374F7F0A374EFF0A374DFF0A374BFF088
:10D00900A3747FF0EF04FEEED39407506974AB2E3E
:10D01900F582E43402F583E0FC74AB2FF582E43445
:10D0290002F583E0FBC39C504AAD0474AB2EF58234
:10D03900E43402F583EBF074AB2FF582E43402F5A6
:10D0490083EDF074CD2EF582E43402F583E0FD74AE
:10D05900CD2FF582E43402F583E0FC74CD2EF58200
:10D06900E43402F583ECF074CD2FF582E43402F553
:10D0790083EDF00E80910FEF64077088E4FF74ABC5
:10D089002FF582E43402F583C083C082E0FE74ACDC
:10D099002FF582E43402F583E0FDC3EE9DD082D002
:07D0A90083F00FEFB407D77D
:01D0B000225D
:0BDDBE00900245EFF0A3ECF0A3EDF0A5
:10DDC900E4A3F0900245E0FF900248E0FEC39F50B3
:10DDD9004EEE25E0247BF582E43402F583E0FEA3D0
:10DDE900E0FF12EDE3C3900247E09FEE6480F890F4
:10DDF9000246E0648098501F900248E025E0247BA9
:10DE0900F582E43402F583E0FEA3E0FF12EDE3902E
:10DE19000246EEF0A3EFF0900248E004F080A490EF
:07DE29000246E0FEA3E0FF4A
:01DE300022CF
:088787007F0C7D147C007E00D4
:0E878F0090021DEEF0A3EFF0A3ECF0A3EDF0CE
:10879D00E4900225F0A3F0A3F0A3F0900221F09055
:1087AD000221E0FF24D5F582E43402F583E0FE7466
:1087BD002D2FF582E43402F583EEF0900221E004D2
:1087CD00F0E0B418DA90021FE07002A3E07045905B
:1087DD000227F0A304F0FD7C007F1812DDBE90028D
:1087ED0027EEF0A3EFF0D39432EE64809480400B2B
:1087FD00900227E4F0A37432F08028D3900228E091
:10880D009414900227E0648094804017E4F0A374E0
:10881D0014F0800F90021FE0FFA3E0900227CFF02D
:10882D00A3EFF09002217401F0900221E0FFC390BC
:10883D000228E09F7480F8900227E064809850032E
:10884D000289A6E4900222F0900222E0FFC3941860
:10885D00400302898FEF25E0247BF582E43402F595
:10886D0083E0FCA3E0FDEC121CFA900229122326F2
:10887D00900221E0FCB40145E4121CFF900229E0B6
:10888D00F8A3E0F9A3E0FAA3E0FB121B4FC004C06C
:10889D0005C006C007900227E0FCA3E0FDEC121C0A
:1088AD00FAA804A905AA06AB07D007D006D005D0B3
:1088BD0004121C58121D3390022302896390022169
:1088CD00E0FCE4121CFF900229E0F8A3E0F9A3E01C
:1088DD00FAA3E0FB121B4FC004C005C006C00790F1
:1088ED000227E0FCA3E0FDEC121CFAA804A905AADE
:1088FD0006AB07D007D006D005D004121C58121DA8
:10890D0033900223EEF0A3EFF0900221E024FFFD5F
:10891D00E434FFFCE4121CFA900229E0F8A3E0F91C
:10892D00A3E0FAA3E0FB121B4FC004C005C006C0B4
:10893D0007900227E0FCA3E0FDEC121CFAA804A9A5
:10894D0005AA06AB07D007D006D005D004121C58D7
:10895D00121D33900225EEF0A3EFF0900225A3E057
:10896D00FF900223A3E0C39FFF900222E024D5F5E0
:10897D0082E43402F583E02FF0900222E004F0024D
:10898D008855129E1090021DE0FEA3E0FF12E3CB6E
:10899D00900221E004F0028836E4900221F090026A
:1089AD0021E0FF25E0247BF582E43402F583A3E08A
:1089BD00FE742D2FF582E43402F583E02EFF900234
:1089CD0021E0FE24D5F582E43402F583EFF0EE25A7
:1089DD00E0247BF582E43402F583E4F0A3F0900209
:1089ED0021E004F0E0B418B6129E107F0A7E00025A
:0289FD00E3CBCA
:10B17800EFF0A212920CC212E490024EF0A3F0A3D8
:10B18800F0A3F0A3F0A3F0A3F0A3F0A3F0A3F0A31F
:10B19800F0A3F0A3F0A3F0A3F0A3F0A3F0A3F0A30F
:10B1A800F0A3F0A3F0A3F0A3F0A3F0A3F0A3F0A3FF
:10B1B800F0A3F0A3F0A3F0A3F0A3F0A3F0A3F0A3EF
:10B1C800F0A3F0A3F0A3F0A3F0A3F0A3F0A3F0FB87
:05B1D800FAFDFCFFFE82
:10B1DD00900248EEF0A3EFF0A3ECF0A3EDF0A3EA9C
:04B1ED00F0A3EBF0F0
:10B1F1007B017A027948E4900278F0900278E0FFCE
:10B20100C39418506B122229FDACF0F44C7012EF6C
:10B2110025E0247BF582E43402F583E4F0A3F08099
:10B2210040900278E024D5F582E43402F583E0FF12
:10B23100C3ED9FFFEC9400FE900278E024B3F58209
:10B24100E43402F583E07C002FFFEC3EFE900278AF
:10B25100E025E0247BF582E43402F583EEF0A3EFF0
:10B26100F0900278E004F0740229F9E43AFA808B54
:10B27100900276E0FEA3E0FF900274EEF0A3EFF0FF
:10B28100900272EEF0A3EFF0900270EEF0A3EFF0F7
:10B2910090026EEEF0A3EFF090026CEEF0A3EFF0EF
:10B2A10090026AEEF0A3EFF0900268EEF0A3EFF0E7
:10B2B100900266EEF0A3EFF0900264EEF0A3EFF0DF
:10B2C100900262EEF0A3EFF0900260EEF0A3EFF0D7
:10B2D10090025EEEF0A3EFF090025CEEF0A3EFF0CF
:10B2E10090025AEEF0A3EFF0900258EEF0A3EFF0C7
:10B2F100900256EEF0A3EFF0900254EEF0A3EFF0BF
:10B30100900252EEF0A3EFF0900250EEF0A3EFF0B6
:10B3110090024EEEF0A3EFF090024CEEF0A3EFF0AE
:0CB3210090024AEEF0A3EFF0900278F0EA
:01B32D0022FD
:10D5DA00781B7C027D017BFF7AEE79151224A2E486
:10D5EA0090021AF07B017A02791B12E54FEF64145C
:10D5FA007028FF74B42FF582E43401F583E0FE74D9
:10D60A00D52FF582E43402F583EEF00FEFB418E378
:10D61A00129E107F0F7E0012E3CB90021AE004F0F4
:10D62A00E0C3940440BEE490021AF090021AE0FFAC
:10D63A00C39418504474D52FF582E43402F583E07C
:10D64A00FE74B32FF582E43402F583EEF090021AE9
:10D65A00E0FF25E0247BF582E43402F583E4F0A3BD
:10D66A00F0EF25E024EDF582E43402F583E4F0A33B
:09D67A00F090021AE004F080B205
:01D683002284
:10E4CE00E4FF74D52FF582E43402F583E0FD74B3D6
:10E4DE002FF582E43402F583E0C39DFDE49400FC45
:10E4EE00EF25E0247BF582E43402F583ECF0A3ED16
:10E4FE00F00FEFB418CC7D1E7C007F0F7E000287DC
:01E50E008F7D
:10BEFB009001E2EFF06401707690024EF0A374FFB4
:10BF0B00F0A3E4F0A374FFF0A3E4F0A374FFF0E458
:10BF1B00A3F0A3F0A3F0A3F0A3F0A374FFF0A3E4AA
:10BF2B00F0A374FFF0A3E4F0A374FFF0A3E4F0A379
:10BF3B0074FFF0E4A3F0A3F0A3F0A3F0A3F0A3F03D
:10BF4B00A3F0A3F0A3F0A3F0A3F0A3F0A3F0A3F04E
:10BF5B00A3F0A3F0A3F0A3F0A3F0A3F0A3F0A3F03E
:10BF6B00A3F0A3F07BFFFA7DFFFC7FFF02C02F90B5
:10BF7B0001E2E06402705190024EF0A3F0A3F0A333
:10BF8B00F0A3F0A3F0A3F0A374FFF0A3E4F0A37469
:10BF9B00FFF0E4A3F0A3F0A3F0A3F0A3F0A3F0A3AE
:10BFAB00F0A3F0A3F0A374FFF0A3E4F0A374FFF0ED
:10BFBB00A3E4F0A374FFF0A3E4F0A374FFF0A3E4F5
:10BFCB00F0A374FFF0E4803BE490024EF0A3F0A3E7
:10BFDB00F0A3F0A3F0A3F0A3F0A3F0A3F0A3F0A3BE
:10BFEB00F0A3F0A3F0A3F0A3F0A3F0A3F0A3F0A3AE
:10BFFB00F0A3F0A3F0A3F0A3F0A3F0A3F0A3F0A39E
:10C00B00F0A3F0A3F0A3F0A3F0A3F0A3F0A3F0A38D
:10C01B00F0A3F0A3F0A3F0A3F0A3F0A3F0A3F0FB25
:0EC02B00FAFDFCFFFE12B1DD7F0A12878922AA
:05E40900900219EFF084
:10E40E00E4A3F0900219E0FFA3E0C39F502E900208
:10E41E00D5E014F0A3E02402F0A3E004F0A3E0049E
:10E42E00F0A3E024FEF0A3E014F0129E107F197EFC
:0CE43E000012E3CB90021AE004F080C74B
:01E44A0022AF
:05E44B00900219EFF042
:10E45000E4A3F0900219E0FFA3E0C39F502E9002C6
:10E46000D5E004F0A3E024FEF0A3E014F0A3E01450
:10E47000F0A3E02402F0A3E004F0129E107F197EC6
:0CE480000012E3CB90021AE004F080C709
:01E48C00226D
:0570C800900216EFF03C
:1070CD00E4A3F0E0F924ECFFE434FFFEE9FDC37422
:1070DD00149D90024FF0E4940090024EF0900250F7
:1070ED0074FFF0A374D8F0A374FFF0A374ECF0E474
:1070FD00A3F0A3F0A3F0A3F0A3F0A3F0A3F0A3F0EB
:10710D00A3F0A3F0A3F0A3F0A3F0A374FFF0A3E406
:10711D00F0A374FFF0A3E4F0A374FFF0A3E4F0A3D5
:10712D0074FFF0E4A3F0A3F0A3F0A3F0A3F0A3F099
:10713D00A3F0A3F0A3F0A3F0A3F0A3F0A3F0A3F0AA
:10714D00A3F0A3F07B14FA7D28FC12B1DD7D147C35
:10715D0000E4FFFE12878F900217E0F924ECFFE4A4
:10716D0034FFFEE9FDC374149D90024FF0E49400CA
:10717D0090024EF090025074FFF0A374D8F0A374F7
:10718D00FFF0A374ECF0A3E4F0A374FFF0A3E4F01C
:10719D00A374FFF0A3F0A374F6F0A3E4F0A3740AB4
:1071AD00F0A374FFF0A374F6F0A3E4F0A3740AF057
:1071BD00A3E4F0A374FFF0A3E4F0A374FFF0A3E441
:1071CD00F0A374FFF0A3E4F0A374FFF0E4A3F0A325
:1071DD00F0A3F0A3F0A3F0A3F0A3F0A3F0A3F0A30A
:1071ED00F0A3F0A3F0A3F0A3F0A3F0A3F07B14FAA7
:1071FD007D28FC12B1DD7D0F7C00E4FFFE12878F30
:10720D00900217E0F924ECFFE434FFFEE9FDC374AE
:10721D00469D90024FF0E4940090024EF090025083
:10722D0074FFF0A374B0F0A374FFF0A374F1F0A396
:10723D00E4F0A374FFF0A3E4F0A374FFF0A3F0A3B4
:10724D0074F6F0A3E4F0A3740FF0A374FFF0A3742D
:10725D00ECF0A3E4F0A37414F0A3E4F0A374FFF036
:10726D00A3E4F0A374FFF0A3E4F0A374FFF0A3E490
:10727D00F0A374FFF0E4A3F0A3F0A3F0A3F0A3F048
:10728D00A3F0A3F0A3F0A3F0A3F0A3F0A3F0A3F059
:10729D00A3F0A3F0A3F07B14FA7D28FC12B1DD7DE1
:1072AD000F7C00E4FFFE12878F900217E0F924FB9C
:1072BD00FFE434FFFEE9FDC374239D90024FF0E41B
:1072CD00940090024EF090025074FFF0A374D8F029
:1072DD00A374FFF0A374FBF0A3E4F0A374FFF0A379
:1072ED00E4F0A374FFF0A3F0A374FBF0A3E4F0A308
:1072FD007405F0A374FFF0A374FBF0A3E4F0A37482
:10730D0005F0A3E4F0A374FFF0A3E4F0A374FFF081
:10731D00A3E4F0A374FFF0A3E4F0A374FFF0E4A3DF
:10732D00F0A3F0A3F0A3F0A3F0A3F0A3F0A3F0A3B8
:10733D00F0A3F0A3F0A3F0A3F0A3F0A3F0A3F07BD0
:10734D0023FA7D28FC12B1DD7D0F7C00E4FFFE12D7
:10735D00878F900217E0F924ECFFE434FFFEE9FD7E
:10736D00C374149D90024FF0E4940090024EF0907F
:10737D00025074FFF0A374D8F0A374FFF0A374EC63
:10738D00F0A3E4F0A374FFF0A3E4F0A374FFF0E422
:10739D00A3F0A3F0A3F0A3F0A3F0A3F0A3F0A3F048
:1073AD00A3F0A374FFF0A3E4F0A374FFF0A3E4F043
:1073BD00A374FFF0A3E4F0A374FFF0E4A3F0A3F033
:1073CD00A3F0A3F0A3F0A3F0A3F0A3F0A3F0A3F018
:1073DD00A3F0A3F0A3F0A3F0A3F0A3F07B14FA7D28
:0F73ED0028FC12B1DD7D0F7C00E4FFFE02878FCC
:056D8E00900216EFF079
:106D9300E4A3F0E0F924ECFFE434FFFEE9FDC3745F
:106DA300149D90024FF0E4940090024EF090025034
:106DB30074FFF0A374D8F0A374FFF0A374ECF0E4B1
:106DC300A3F0A3F0A3F0A3F0A3F0A3F0A3F0A3F028
:106DD300A3F0A3F0A3F0A3F0A3F0A374FFF0A3E444
:106DE300F0A374FFF0A3E4F0A374FFF0A3E4F0A313
:106DF30074FFF0E4A3F0A3F0A3F0A3F0A3F0A3F0D7
:106E0300A3F0A3F0A3F0A3F0A3F0A3F0A3F0A3F0E7
:106E1300A3F0A3F07B14FA7D28FC12B1DD7D147C72
:106E230000E4FFFE12878F900217E0F924ECFFE4E1
:106E330034FFFEE9FDC374149D90024FF0E4940007
:106E430090024EF090025074FFF0A374D8F0A37434
:106E5300FFF0A374ECF0A3E4F0A374FFF0A3E4F059
:106E6300A374FFF0A3E4F0A3740AF0A374FFF0A3E8
:106E730074F6F0A3E4F0A3740CF0A374FFF0A3740E
:106E8300F4F0A3E4F0A374FFF0A3E4F0A374FFF021
:106E9300A3E4F0A374FFF0A3E4F0A374FFF0E4A36E
:106EA300F0A3F0A3F0A3F0A3F0A3F0A3F0A3F0A347
:106EB300F0A3F0A3F0A3F0A3F0A3F0A3F0A3F07B5F
:106EC30014FA7D28FC12B1DD7D0F7C00E4FFFE1275
:106ED300878F900217E0F924BAFFE434FFFEE9FD3F
:106EE300C374149D90024FF0E4940090024EF0900E
:106EF300025074FFF0A374D8F0A374FFF0A374ECF2
:106F0300F0A3E4F0A374FFF0A3E4F0A374FFF0A3F1
:106F1300E4F0A37414F0A374FFF0A374ECF0A3E4FF
:106F2300F0A3740AF0A374FFF0A374F1F0A3E4F0E8
:106F3300A374FFF0A3E4F0A374FFF0A3E4F0A3743D
:106F4300FFF0A3E4F0A374FFF0E4A3F0A3F0A3F035
:106F5300A3F0A3F0A3F0A3F0A3F0A3F0A3F0A3F096
:106F6300A3F0A3F0A3F0A3F0A3F07B0AFA7D50FCF7
:106F730012B1DD7D0F7C00E4FFFE12878F900217B4
:106F8300E0F924DDFFE434FFFEE9FDC374059D90C1
:106F9300024FF0E4940090024EF090025074FFF020
:106FA300A374D8F0A374FFF0A374DDF0A3E4F0A3FB
:106FB30074FFF0A3E4F0A374FFF0A3E4F0A374065A
:106FC300F0A374FFF0A374FBF0A3E4F0A37405F043
:106FD300A374FFF0A374FBF0A3E4F0A374FFF0A386
:106FE300E4F0A374FFF0A3E4F0A374FFF0A3E4F0D0
:106FF300A374FFF0E4A3F0A3F0A3F0A3F0A3F0A322
:10700300F0A3F0A3F0A3F0A3F0A3F0A3F0A3F0A3E5
:10701300F0A3F0A3F07B05FA7D28FC12B1DD7D0F10
:107023007C00E4FFFE12878F900217E0F924ECFF47
:10703300E434FFFEE9FDC374149D90024FF0E49421
:107043000090024EF090025074FFF0A374D8F0A3A6
:1070530074FFF0A374ECF0A3E4F0A374FFF0A3E4D3
:10706300F0A374FFF0E4A3F0A3F0A3F0A3F0A3F064
:10707300A3F0A3F0A3F0A3F0A374FFF0A3E4F0A3A1
:1070830074FFF0A3E4F0A374FFF0A3E4F0A374FF90
:10709300F0E4A3F0A3F0A3F0A3F0A3F0A3F0A3F014
:1070A300A3F0A3F0A3F0A3F0A3F0A3F0A3F0A3F045
:1070B300A3F07B14FA7D28FC12B1DD7D0F7C00E484
:0570C300FFFE02878FB3
:05540900900216EFF017
:10540E00E4A3F0E0F924ECFFE434FFFEE9FDC374FD
:10541E00149D90024FF0E4940090024EF0900250D2
:10542E0074FFF0A374D8F0A374FFF0A374ECF0E44F
:10543E00A3F0A3F0A3F0A3F0A3F0A3F0A3F0A3F0C6
:10544E00A3F0A3F0A3F0A3F0A3F0A374FFF0A3E4E2
:10545E00F0A374FFF0A3E4F0A374FFF0A3E4F0A3B1
:10546E0074FFF0E4A3F0A3F0A3F0A3F0A3F0A3F075
:10547E00A3F0A3F0A3F0A3F0A3F0A3F0A3F0A3F086
:10548E00A3F0A3F07B14FA7D28FC12B1DD7D147C11
:10549E0000E4FFFE12878F900217E0F924ECFFE480
:1054AE0034FFFEE9FDC374149D90024FF0E49400A6
:1054BE0090024EF090025074FFF0A374D8F0A374D3
:1054CE00FFF0A374ECF0A3E4F0A374FFF0A3E4F0F8
:1054DE00A374FFF0A3E4F0A37405F0A374FFF0A38C
:1054EE0074FBF0A3E4F0A37405F0A374FFF0A374AF
:1054FE00F6F0A3E4F0A374FFF0A3E4F0A374FFF0BE
:10550E00A3E4F0A374FFF0A3E4F0A374FFF0E4A30C
:10551E00F0A3F0A3F0A3F0A3F0A3F0A3F0A3F0A3E5
:10552E00F0A3F0A3F0A3F0A3F0A3F0A3F0A3F07BFD
:10553E0014FA7D28FC12B1DD7D0B7C007F057E0008
:10554E0012878F900217E0F924E2FFE434FFFEE9A0
:10555E00FDC374149D90024FF0E4940090024EF03F
:10556E0090025074FFF0A374D8F0A374FFF0A374EC
:10557E00ECF0A3E4F0A374FFF0A3E4F0A374FFF047
:10558E00A3E4F0A3741EF0A374FFF0A374E2F0A3DF
:10559E00E4F0A37405F0A374FFF0A374F6F0A3E493
:1055AE00F0A374FFF0A3E4F0A374FFF0A3E4F0A360
:1055BE0074FFF0A3E4F0A374FFF0E4A3F0A3F0A350
:1055CE00F0A3F0A3F0A3F0A3F0A3F0A3F0A3F0A335
:1055DE00F0A3F0A3F0A3F0A3F0A3F07B1EFA7D3CA2
:1055EE00FC12B1DD7D0B7C007F057E0012878F9053
:1055FE000217E0F924ECFFE434FFFEE9FDC3741456
:10560E009D90024FF0E4940090024EF09002507480
:10561E00FFF0A374D8F0A374FFF0A374ECF0A3E42E
:10562E00F0A374FFF0A3E4F0A374FFF0A3F0A3744F
:10563E00FBF0A3E4F0A37405F0A374FFF0A374E7EA
:10564E00F0A3E4F0A37419F0A3E4F0A374FFF0A3A5
:10565E00E4F0A374FFF0A3E4F0A374FFF0A3E4F06E
:10566E00A374FFF0E4A3F0A3F0A3F0A3F0A3F0A3C0
:10567E00F0A3F0A3F0A3F0A3F0A3F0A3F0A3F0A384
:10568E00F0A3F0A3F07B14FA7D28FC12B1DD7D1699
:10569E007C00E4FFFE12878F900217E0F924ECFFE6
:1056AE00E434FFFEE9FDC3741E9D90024FF0E494B6
:1056BE000090024EF090025074FFF0A374C4F0A359
:1056CE0074FFF0A374E2F0A3E4F0A374FFF0A3E47C
:1056DE00F0A374FFF0A3F0A374FBF0A3E4F0A374A3
:1056EE0005F0A374FFF0A374FBF0A3E4F0A374051C
:1056FE00F0A3E4F0A374FFF0A3E4F0A374FFF0A30F
:10570E00E4F0A374FFF0A3E4F0A374FFF0E4A3F0BD
:10571E00A3F0A3F0A3F0A3F0A3F0A3F0A3F0A3F0E3
:10572E00A3F0A3F0A3F0A3F0A3F0A3F0A3F07B14D7
:10573E00FA7D28FC12B1DD7D0B7C00E4FFFE1287A2
:10574E008F900217E0F924ECFFE434FFFEE9FDC36D
:10575E0074149D90024FF0E4940090024EF090026B
:10576E005074FFF0A374D8F0A374FFF0A374ECF0A0
:10577E00A3E4F0A374FFF0A3E4F0A374FFF0E4A39A
:10578E00F0A3F0A3F0A3F0A3F0A3F0A3F0A3F0A373
:10579E00F0A374FFF0A3E4F0A374FFF0A3E4F0A36E
:1057AE0074FFF0A3E4F0A374FFF0E4A3F0A3F0A35E
:1057BE00F0A3F0A3F0A3F0A3F0A3F0A3F0A3F0A343
:1057CE00F0A3F0A3F0A3F0A3F0A3F07B14FA7D28CE
:0E57DE00FC12B1DD7D0B7C00E4FFFE02878F24
:0557EC00900216EFF031
:1057F100E4A3F0E0F924ECFFE434FFFEE9FDC37417
:10580100149D90024FF0E4940090024EF0900250EB
:1058110074FFF0A374D8F0A374FFF0A374ECF0E468
:10582100A3F0A3F0A3F0A3F0A3F0A3F0A3F0A3F0DF
:10583100A3F0A3F0A3F0A3F0A3F0A374FFF0A3E4FB
:10584100F0A374FFF0A3E4F0A374FFF0A3E4F0A3CA
:1058510074FFF0E4A3F0A3F0A3F0A3F0A3F0A3F08E
:10586100A3F0A3F0A3F0A3F0A3F0A3F0A3F0A3F09F
:10587100A3F0A3F07B14FA7D28FC12B1DD7D147C2A
:1058810000E4FFFE12878F900217E0F924ECFFE499
:1058910034FFFEE9FDC374149D90024FF0E49400BF
:1058A10090024EF090025074FFF0A374D8F0A374EC
:1058B100FFF0A374ECF0A3E4F0A374FFF0A3E4F011
:1058C100A374FFF0A3F0A374FBF0A3E4F0A3740AA4
:1058D100F0A374FFF0A374FBF0A3E4F0A37405F04C
:1058E100A3E4F0A374FFF0A3E4F0A374FFF0A3E436
:1058F100F0A374FFF0A3E4F0A374FFF0E4A3F0A31A
:10590100F0A3F0A3F0A3F0A3F0A3F0A3F0A3F0A3FE
:10591100F0A3F0A3F0A3F0A3F0A3F0A3F07B14FA9B
:105921007D28FC12B1DD7D0B7C007F057E00128796
:105931008F900217E0F924ECFFE434FFFEE9FDC388
:10594100741E9D90024FF0E4940090024EF090027C
:105951005074FFF0A374C4F0A374FFF0A374E2F0D9
:10596100A3E4F0A374FFF0A3E4F0A374FFF0A3F0A9
:10597100A374FBF0A3E4F0A3740AF0A374FFF0A3F3
:1059810074E2F0A3E4F0A3741EF0A3E4F0A374FFA7
:10599100F0A3E4F0A374FFF0A3E4F0A374FFF0A379
:1059A100E4F0A374FFF0E4A3F0A3F0A3F0A3F0A349
:1059B100F0A3F0A3F0A3F0A3F0A3F0A3F0A3F0A34E
:1059C100F0A3F0A3F0A3F07B14FA7D28FC12B1DD63
:1059D1007D0B7C007F057E0012878F900217E0F916
:1059E10024ECFFE434FFFEE9FDC374149D90024FE3
:1059F100F0E4940090024EF090025074FFF0A37412
:105A0100D8F0A374FFF0A374ECF0A3E4F0A374FF47
:105A1100F0A3E4F0A374FFF0A3E4F0A37419F0A3DE
:105A210074FFF0A374E7F0A3E4F0A37405F0A3748A
:105A3100FFF0A374FBF0A3E4F0A374FFF0A3E4F080
:105A4100A374FFF0A3E4F0A374FFF0A3E4F0A37444
:105A5100FFF0E4A3F0A3F0A3F0A3F0A3F0A3F0A35D
:105A6100F0A3F0A3F0A3F0A3F0A3F0A3F0A3F0A39D
:105A7100F0A3F07B14FA7D28FC12B1DD7D167C00C9
:105A8100E4FFFE12878F900217E0F924E2FFE4346D
:105A9100FFFEE9FDC374149D90024FF0E494009061
:105AA100024EF090025074FFF0A374D8F0A374FF7B
:105AB100F0A374ECF0A3E4F0A374FFF0A3E4F0A36B
:105AC10074FFF0A3E4F0A37405F0A374FFF0A374D2
:105AD100FBF0A3E4F0A37405F0A374FFF0A374FB3F
:105AE100F0A3E4F0A374FFF0A3E4F0A374FFF0A328
:105AF100E4F0A374FFF0A3E4F0A374FFF0E4A3F0D7
:105B0100A3F0A3F0A3F0A3F0A3F0A3F0A3F0A3F0FC
:105B1100A3F0A3F0A3F0A3F0A3F0A3F0A3F07B1EE6
:105B2100FA7D3CFC12B1DD7D0B7C00E4FFFE1287A7
:105B31008F900217E0F924ECFFE434FFFEE9FDC386
:105B410074149D90024FF0E4940090024EF0900284
:105B51005074FFF0A374D8F0A374FFF0A374ECF0B9
:105B6100A3E4F0A374FFF0A3E4F0A374FFF0E4A3B3
:105B7100F0A3F0A3F0A3F0A3F0A3F0A3F0A3F0A38C
:105B8100F0A374FFF0A3E4F0A374FFF0A3E4F0A387
:105B910074FFF0A3E4F0A374FFF0E4A3F0A3F0A377
:105BA100F0A3F0A3F0A3F0A3F0A3F0A3F0A3F0A35C
:105BB100F0A3F0A3F0A3F0A3F0A3F07B14FA7D28E7
:0E5BC100FC12B1DD7D0B7C00E4FFFE02878F3D
:03474100900216CD
:1047440012B1787D0A7C007F0A7E0012878F900266
:104754004EE4F0A3747AF0A3E4F0A37437F0A3E476
:10476400F0A37450F0A374FFF0A37474F0A3E4F006
:10477400A3748CF0E4A3F0A3F0A3F0A3F0A3F0A33C
:10478400F0A3F0A3F0A3F0A3F0A3F0A3F0A3F0A38D
:10479400F0A3F0A3F0A3F0A3F0A3F0A3F0A3F0A37D
:1047A400F0A3F0A3F0A3F0A3F0A3F0A3F0A3F0A36D
:1047B400F0A3F0A3F07BB07AFF7DC97CFF7F867EF7
:1047C400FF12B1DD7D287C007F0A7E0012878F9066
:1047D400024EE4F0A3747AF0A3E4F0A37437F0A3D8
:1047E400E4F0A37428F0A374FFF0A37474F0A3E4BA
:1047F400F0A3748CF0E4A3F0A3F0A3F0A3F0A3F06F
:10480400A3F0A3F0A3F0A3F0A3F0A3F0A3F0A3F00C
:10481400A3F0A3F0A3F0A3F0A3F0A3F0A3F0A3F0FC
:10482400A3F0A3F0A3F0A3F0A3F0A3F0A3F0A3F0EC
:10483400A3F0A3F0A3F07BD87AFF7DC97CFF7F8629
:104844007EFF12B1DD7D147C007F0A7E0012878F0B
:1048540090024EE4F0A3743CF0A3E4F0A37437F0A8
:10486400A374FFF0A374ECF0A374FFF0A37474F0CA
:10487400A3E4F0A3748CF0E4A3F0A3F0A3F0A3F0FA
:10488400A3F0A3F0A3F0A3F0A3F0A3F0A3F0A3F08C
:10489400A3F0A3F0A3F0A3F0A3F0A3F0A3F0A3F07C
:1048A400A3F0A3F0A3F0A3F0A3F0A3F0A3F0A3F06C
:1048B400A3F0A3F0A3F0A3F07B14FA7DC97CFF7FDF
:1048C400C47EFF12B1DD7D147C007F0A7E00128756
:1048D4008FE490024EF0A3F0A3F0A3F0A3F0A3F0B2
:1048E400A374FFF0A3749CF0A3E4F0A37464F0E455
:1048F40012B1977D287C007F0A7E0012878FE49096
:104904000218F0900216E0FF900218E0C39F506A6C
:10491400E4900217F09002E1E024FCF0A3E0240606
:10492400F0A3E02404F0A3E024FAF0129E107F1E0A
:104934007E0012E3CB900217E004F0E0C39414402D
:10494400D4E4900217F09002E1E02404F0A3E02400
:10495400FAF0A3E024FCF0A3E02406F0129E107FFA
:104964001E7E0012E3CB900217E004F0E0C394141F
:1049740040D4900218E004F08089E490024EF0A341
:10498400F0A3F0A37405F0E4A3F0A3F0A374FFF084
:10499400A3749CF0A3E4F0A37464F0E4A3F0A3F084
:1049A400A3F0A3F0A3F0A3F0A3F0A3F0A3F0A3F06B
:1049B400A3F0A3F0A3F0A3F0A3F0A3F0A3F0A3F05B
:1049C400A3F0A3F0A3F0A3F0A3F0A3F0A3F0A3F04B
:1049D400A3F0A3F0A3F0A3F0A3F0A3F0FBFA7DFBF4
:1049E4007CFFFFFE12B1DD7D057C007F0A7E001294
:1049F400878F90024EE4F0A37478F0A3E4F0A374DC
:104A04003CF0A3E4F0A37423F0A374FFF0A3746A4E
:104A1400F0A3E4F0A37496F0E4A3F0A3F0A3F0A34E
:104A2400F0A3F0A3F0A3F0A3F0A3F0A37405F0E4C3
:104A3400A3F0A3F0A374FFF0A374FBF0E4A3F0A32A
:104A4400F0A3F0A3F0A3F0A3F0A3F0A3F0A3F0A3CA
:104A5400F0A3F0A3F0A3F0A3F0A3F0A3F0A3F0A3BA
:104A6400F07BDD7AFF7DC47CFF7F887EFF12B1DDA1
:104A74007D237C007F0A7E0012878F90024EE4F033
:104A8400A37478F0A3E4F0A37437F0A3E4F0A37460
:104A940037F0A374FFF0A37479F0A3E4F0A3748750
:104AA400F0E4A3F0A3F0A3F0A3F0A3F0A3F0A3F029
:104AB400A3F0A3F0A3740AF0E4A3F0A3F0A374FF9B
:104AC400F0A374F6F0E4A3F0A3F0A3F0A3F0A3F032
:104AD400A3F0A3F0A3F0A3F0A3F0A3F0A3F0A3F03A
:104AE400A3F0A3F0A3F0A3F0A3F07BC97AFF7DC9E0
:104AF4007CFF7F887EFF12B1DD7D0A7C007F057E0E
:104B04000012878F7F0A12EAB990024EE4F0A37470
:104B14006EF0A3E4F0A37432F0A3E4F0A37450F0B5
:104B2400A374FFF0A3749CF0A3E4F0A37464F0E412
:104B3400A3F0A3F0A3F0A3F0A3F0A3F0A3F0A3F0D9
:104B4400A3F0A3F0A3F0A3F0A3F0A3F0A3F0A3F0C9
:104B5400A3F0A3F0A3F0A3F0A3F0A3F0A3F0A3F0B9
:104B6400A3F0A3F0A3F0A3F0A3F0A3F0A3F0A3F0A9
:104B74007BB07AFF7DCE7CFF7F927EFF12B1DD1287
:104B8400878712B1807D2D7C007F0A7E0012878F7B
:094B94007F0A12EAB9A20C921288
:014B9D0022F5
:057A0500900216EFF0F5
:107A0A00E4A3F0900216E0FFA3E0C39F4003027CC8
:107A1A00C290024EE4F0A37419F0A374FFF0A374A9
:107A2A00CEF0A374FFF0A374E7F0E4A3F0A3F0A3ED
:107A3A00F0A3F0A3F0A3740AF0A374FFF0A374F602
:107A4A00F0A3E4F0A3740AF0A374FFF0A374F4F0B3
:107A5A00E4A3F0A3F0A3F0A3F0A3F0A3F0A3F0A390
:107A6A00F0A3F0A3F0A3F0A3F0A3F0A3F0A3F0A374
:107A7A00F0A3F0A3F0A3F0A3F0A3F0A3F0A3F0A364
:107A8A00F07B19FA7D32FC7FE77EFF12B1DD7D0FB4
:107A9A007C007F027E0012878F90024EE4F0A3746E
:107AAA0019F0A374FFF0A374CEF0A374FFF0A374CB
:107ABA00E7F0E4A3F0A3F0A3F0A3F0A3F0A3740A01
:107ACA00F0A374FFF0A374F6F0E4A3F0A3F0A37498
:107ADA00FFF0A374EEF0E4A3F0A3F0A3F0A3F0A3E5
:107AEA00F0A3F0A3F0A3F0A3F0A3F0A3F0A3F0A3F4
:107AFA00F0A3F0A3F0A3F0A3F0A3F0A3F0A3F0A3E4
:107B0A00F0A3F0A3F0A3F07B3CFA7D46FC7F0FFEC6
:107B1A0012B1DD7D127C00E4FFFE12878F90024EC7
:107B2A00E4F0A37419F0A374FFF0A374CEF0A37465
:107B3A00FFF0A374E7F0E4A3F0A3F0A3F0A3F0A38B
:107B4A00F0A3740AF0A374FFF0A374F6F0A3E4F0B0
:107B5A00A37405F0A374FFF0A374ECF0E4A3F0A3FC
:107B6A00F0A3F0A3F0A3F0A3F0A3F0A3F0A3F0A373
:107B7A00F0A3F0A3F0A374FFF0A374FBF0E4A3F066
:107B8A00A3F0A3F0A3F0A3F0A3F0A3F0A3F0A3F053
:107B9A00A3F07BFB7AFF7D32FC7FC47EFF12B1DD4E
:107BAA007D017C00E4FFFE12878F7F0112EAE190DB
:107BBA00024EE4F0A37419F0A374FFF0A374CEF09C
:107BCA00A374FFF0A374E7F0E4A3F0A3F0A3F0A377
:107BDA00F0A3F0A3740AF0A374FFF0A374F1F0A366
:107BEA00E4F0A37405F0A374FFF0A374F1F0E4A326
:107BFA00F0A3F0A3F0A3F0A3F0A3F0A3F0A3F0A3E3
:107C0A00F0A3F0A3F0A3F0A3F0A3F0A3F0A3F0A3D2
:107C1A00F0A3F0A3F0A3F0A3F0A3F0A3F0A3F07BEA
:107C2A0019FA7D32FC7FE77EFF12B1DD7D197C00F7
:107C3A00E4FFFE12878F90024EE4F0A37419F0A3BA
:107C4A0074FFF0A374CEF0A374FFF0A374E7F0E41A
:107C5A00A3F0A3F0A3F0A3F0A3F0A3F0A3F0A3F082
:107C6A00A3F0A3F0A3F0A3F0A3F0A3F0A3F0A3F072
:107C7A00A3F0A3F0A3F0A3F0A3F0A3F0A3F0A3F062
:107C8A00A3F0A3F0A3F0A3F0A3F0A3F0A3F0A3F052
:107C9A00A3F0A3F0A3F0A3F07B19FA7D32FC7FE7EF
:107CAA007EFF12B1DD7D0F7C00E4FFFE12878F900C
:087CBA000217E004F0027A0D4C
:017CC200229F
:057CC300900216EFF035
:107CC800E4A3F0900216E0FFA3E0C39F4003027F05
:107CD8007C90024EE4F0A37419F0A374FFF0A3742F
:107CE800CEF0A374FFF0A374E7F0E4A3F0A3F0A32D
:107CF800F0A3F0A374FFF0A374F6F0A3E4F0A37468
:107D08000CF0A374FFF0A374F6F0A3E4F0A3740AD4
:107D1800F0E4A3F0A3F0A3F0A3F0A3F0A3F0A3F082
:107D2800A3F0A3F0A3F0A3F0A3F0A3F0A3F0A3F0B3
:107D3800A3F0A3F0A3F0A3F0A3F0A3F0A3F0A3F0A3
:107D4800A3F07B19FA7D32FC7FE77EFF12B1DD7D5F
:107D58000F7C007F027E0012878F90024E74FFF026
:107D6800A374F1F0A374FFF0A374BAF0A374FFF046
:107D7800A374C4F0E4A3F0A3F0A3F0A3F0A3F0A3CA
:107D8800F0A3F0A37412F0A374FFF0A374F6F0A3A9
:107D9800E4F0A3740AF0E4A3F0A3F0A3F0A3F0A323
:107DA800F0A3F0A3F0A3F0A3F0A3F0A3F0A3F0A333
:107DB800F0A3F0A3F0A3F0A3F0A3F0A3F0A3F0A323
:107DC800F0A3F0A3F0A3F07B19FA7D32FC7FE77EE5
